{
  "contractName": "ETF",
  "abi": [
    {
      "constant": true,
      "inputs": [],
      "name": "issuer",
      "outputs": [
        {
          "name": "",
          "type": "address"
        }
      ],
      "payable": false,
      "stateMutability": "view",
      "type": "function"
    },
    {
      "constant": true,
      "inputs": [
        {
          "name": "",
          "type": "address"
        }
      ],
      "name": "balances",
      "outputs": [
        {
          "name": "",
          "type": "uint256"
        }
      ],
      "payable": false,
      "stateMutability": "view",
      "type": "function"
    },
    {
      "constant": true,
      "inputs": [],
      "name": "outstandingBalance",
      "outputs": [
        {
          "name": "",
          "type": "uint256"
        }
      ],
      "payable": false,
      "stateMutability": "view",
      "type": "function"
    },
    {
      "constant": true,
      "inputs": [
        {
          "name": "",
          "type": "uint256"
        }
      ],
      "name": "basket",
      "outputs": [
        {
          "name": "name",
          "type": "bytes32"
        },
        {
          "name": "weight",
          "type": "uint256"
        },
        {
          "name": "price",
          "type": "uint256"
        }
      ],
      "payable": false,
      "stateMutability": "view",
      "type": "function"
    },
    {
      "inputs": [],
      "payable": false,
      "stateMutability": "nonpayable",
      "type": "constructor"
    },
    {
      "anonymous": false,
      "inputs": [
        {
          "indexed": false,
          "name": "from",
          "type": "address"
        },
        {
          "indexed": false,
          "name": "to",
          "type": "address"
        },
        {
          "indexed": false,
          "name": "amount",
          "type": "uint256"
        }
      ],
      "name": "Sent",
      "type": "event"
    },
    {
      "constant": false,
      "inputs": [
        {
          "name": "underlyingName",
          "type": "bytes32[]"
        },
        {
          "name": "underlyingWeight",
          "type": "uint256[]"
        },
        {
          "name": "underlyingPrice",
          "type": "uint256[]"
        },
        {
          "name": "fundName",
          "type": "bytes32"
        },
        {
          "name": "managementFee",
          "type": "uint256"
        },
        {
          "name": "amount",
          "type": "uint256"
        }
      ],
      "name": "newIssue",
      "outputs": [
        {
          "name": "success",
          "type": "bool"
        }
      ],
      "payable": false,
      "stateMutability": "nonpayable",
      "type": "function"
    },
    {
      "constant": false,
      "inputs": [
        {
          "name": "amount",
          "type": "uint256"
        }
      ],
      "name": "additionalIssue",
      "outputs": [
        {
          "name": "success",
          "type": "bool"
        }
      ],
      "payable": false,
      "stateMutability": "nonpayable",
      "type": "function"
    },
    {
      "constant": false,
      "inputs": [
        {
          "name": "underlyingName",
          "type": "bytes32[]"
        },
        {
          "name": "underlyingWeight",
          "type": "uint256[]"
        },
        {
          "name": "underlyingPrice",
          "type": "uint256[]"
        }
      ],
      "name": "rebalance",
      "outputs": [],
      "payable": false,
      "stateMutability": "nonpayable",
      "type": "function"
    },
    {
      "constant": false,
      "inputs": [],
      "name": "payContract",
      "outputs": [],
      "payable": true,
      "stateMutability": "payable",
      "type": "function"
    },
    {
      "constant": false,
      "inputs": [],
      "name": "closeFund",
      "outputs": [
        {
          "name": "success",
          "type": "bool"
        }
      ],
      "payable": false,
      "stateMutability": "nonpayable",
      "type": "function"
    },
    {
      "constant": false,
      "inputs": [
        {
          "name": "receiver",
          "type": "address"
        },
        {
          "name": "amount",
          "type": "uint256"
        }
      ],
      "name": "sendFund",
      "outputs": [],
      "payable": false,
      "stateMutability": "nonpayable",
      "type": "function"
    },
    {
      "constant": true,
      "inputs": [],
      "name": "getIfIssued",
      "outputs": [
        {
          "name": "",
          "type": "bool"
        }
      ],
      "payable": false,
      "stateMutability": "view",
      "type": "function"
    },
    {
      "constant": true,
      "inputs": [],
      "name": "getOutstanding",
      "outputs": [
        {
          "name": "",
          "type": "uint256"
        }
      ],
      "payable": false,
      "stateMutability": "view",
      "type": "function"
    },
    {
      "constant": true,
      "inputs": [],
      "name": "getContractETHBalance",
      "outputs": [
        {
          "name": "",
          "type": "uint256"
        }
      ],
      "payable": false,
      "stateMutability": "view",
      "type": "function"
    },
    {
      "constant": true,
      "inputs": [],
      "name": "getIssuer",
      "outputs": [
        {
          "name": "",
          "type": "address"
        }
      ],
      "payable": false,
      "stateMutability": "view",
      "type": "function"
    },
    {
      "constant": true,
      "inputs": [],
      "name": "getFundName",
      "outputs": [
        {
          "name": "",
          "type": "bytes32"
        }
      ],
      "payable": false,
      "stateMutability": "view",
      "type": "function"
    },
    {
      "constant": true,
      "inputs": [],
      "name": "getFundBalance",
      "outputs": [
        {
          "name": "",
          "type": "uint256"
        }
      ],
      "payable": false,
      "stateMutability": "view",
      "type": "function"
    },
    {
      "constant": true,
      "inputs": [],
      "name": "getBasket",
      "outputs": [
        {
          "name": "_name",
          "type": "bytes32[]"
        },
        {
          "name": "_weight",
          "type": "uint256[]"
        },
        {
          "name": "_price",
          "type": "uint256[]"
        }
      ],
      "payable": false,
      "stateMutability": "view",
      "type": "function"
    },
    {
      "constant": true,
      "inputs": [],
      "name": "getNAV",
      "outputs": [
        {
          "name": "",
          "type": "uint256"
        }
      ],
      "payable": false,
      "stateMutability": "view",
      "type": "function"
    }
  ],
  "bytecode": "0x608060405234801561001057600080fd5b5033600060016101000a81548173ffffffffffffffffffffffffffffffffffffffff021916908373ffffffffffffffffffffffffffffffffffffffff16021790555060008060006101000a81548160ff0219169083151502179055506117ad8061007b6000396000f3006080604052600436106100fc576000357c0100000000000000000000000000000000000000000000000000000000900463ffffffff1680630126c606146101015780631d1438481461012c57806327e235e3146101835780632c2b5561146101da5780633133f2a7146103005780634b5694501461032b57806352556421146103785780637a4ee555146103cf5780638c7e0875146103fa5780638c89a0ad14610451578063a87fe87e1461047c578063b369f423146104af578063be57384b146104f4578063c85e8ca114610523578063cd6ef2b01461060f578063dae9e3791461070b578063e3a1c6fe14610736578063ecb0b86214610765575b600080fd5b34801561010d57600080fd5b5061011661076f565b6040518082815260200191505060405180910390f35b34801561013857600080fd5b506101416107fe565b604051808273ffffffffffffffffffffffffffffffffffffffff1673ffffffffffffffffffffffffffffffffffffffff16815260200191505060405180910390f35b34801561018f57600080fd5b506101c4600480360381019080803573ffffffffffffffffffffffffffffffffffffffff169060200190929190505050610824565b6040518082815260200191505060405180910390f35b3480156101e657600080fd5b506102e66004803603810190808035906020019082018035906020019080806020026020016040519081016040528093929190818152602001838360200280828437820191505050505050919291929080359060200190820180359060200190808060200260200160405190810160405280939291908181526020018383602002808284378201915050505050509192919290803590602001908201803590602001908080602002602001604051908101604052809392919081815260200183836020028082843782019150505050505091929192908035600019169060200190929190803590602001909291908035906020019092919050505061083c565b604051808215151515815260200191505060405180910390f35b34801561030c57600080fd5b50610315610c1b565b6040518082815260200191505060405180910390f35b34801561033757600080fd5b50610376600480360381019080803573ffffffffffffffffffffffffffffffffffffffff16906020019092919080359060200190929190505050610c21565b005b34801561038457600080fd5b5061038d610dab565b604051808273ffffffffffffffffffffffffffffffffffffffff1673ffffffffffffffffffffffffffffffffffffffff16815260200191505060405180910390f35b3480156103db57600080fd5b506103e4610dd4565b6040518082815260200191505060405180910390f35b34801561040657600080fd5b5061042560048036038101908080359060200190929190505050610dde565b604051808460001916600019168152602001838152602001828152602001935050505060405180910390f35b34801561045d57600080fd5b50610466610e17565b6040518082815260200191505060405180910390f35b34801561048857600080fd5b50610491610e36565b60405180826000191660001916815260200191505060405180910390f35b3480156104bb57600080fd5b506104da60048036038101908080359060200190929190505050610e40565b604051808215151515815260200191505060405180910390f35b34801561050057600080fd5b50610509610f8d565b604051808215151515815260200191505060405180910390f35b34801561052f57600080fd5b5061060d600480360381019080803590602001908201803590602001908080602002602001604051908101604052809392919081815260200183836020028082843782019150505050505091929192908035906020019082018035906020019080806020026020016040519081016040528093929190818152602001838360200280828437820191505050505050919291929080359060200190820180359060200190808060200260200160405190810160405280939291908181526020018383602002808284378201915050505050509192919290505050610fa3565b005b34801561061b57600080fd5b506106246112c4565b60405180806020018060200180602001848103845287818151815260200191508051906020019060200280838360005b8381101561066f578082015181840152602081019050610654565b50505050905001848103835286818151815260200191508051906020019060200280838360005b838110156106b1578082015181840152602081019050610696565b50505050905001848103825285818151815260200191508051906020019060200280838360005b838110156106f35780820151818401526020810190506106d8565b50505050905001965050505050505060405180910390f35b34801561071757600080fd5b50610720611463565b6040518082815260200191505060405180910390f35b34801561074257600080fd5b5061074b6114aa565b604051808215151515815260200191505060405180910390f35b61076d611716565b005b60008060008060009250670de0b6b3a76400009150600090505b6005805490508110156107f557816005828154811015156107a657fe5b9060005260206000209060030201600101546005838154811015156107c757fe5b906000526020600020906003020160020154028115156107e357fe5b04830192508080600101915050610789565b82935050505090565b600060019054906101000a900473ffffffffffffffffffffffffffffffffffffffff1681565b60046020528060005260406000206000915090505481565b600080600060019054906101000a900473ffffffffffffffffffffffffffffffffffffffff1673ffffffffffffffffffffffffffffffffffffffff163373ffffffffffffffffffffffffffffffffffffffff1614151561092a576040517f08c379a000000000000000000000000000000000000000000000000000000000815260040180806020018281038252602c8152602001807f4f6e6c7920746865206973737565722063616e2063616c6c206e65772069737381526020017f75652066756e6374696f6e2e000000000000000000000000000000000000000081525060400191505060405180910390fd5b600015156000809054906101000a900460ff1615151415156109da576040517f08c379a00000000000000000000000000000000000000000000000000000000081526004018080602001828103825260308152602001807f4e6f746520686173206265656e2069737375656420616c72656164792c20636881526020017f65636b20697373756564206e6f74652e0000000000000000000000000000000081525060400191505060405180910390fd5b865188511480156109ec575085518851145b1515610aac576040517f08c379a00000000000000000000000000000000000000000000000000000000081526004018080602001828103825260548152602001807f4e756d626572206f6620536861726573204e616d657320616e64204e756d626581526020017f72206f662053686172652077656967687420616e64204e756d626572206f662081526020017f7072696365206e65656420746f206d617463682e00000000000000000000000081525060600191505060405180910390fd5b600090505b8751811015610b805760056060604051908101604052808a84815181101515610ad657fe5b906020019060200201516000191681526020018984815181101515610af757fe5b9060200190602002015181526020018884815181101515610b1457fe5b90602001906020020151815250908060018154018082558091505090600182039060005260206000209060030201600090919290919091506000820151816000019060001916905560208201518160010155604082015181600201555050508080600101915050610ab1565b60016000806101000a81548160ff0219169083151502179055506000600381905550846001816000191690555083600281905550826003540160038190555082600460003373ffffffffffffffffffffffffffffffffffffffff1673ffffffffffffffffffffffffffffffffffffffff1681526020019081526020016000206000828254019250508190555060019150509695505050505050565b60035481565b80600460003373ffffffffffffffffffffffffffffffffffffffff1673ffffffffffffffffffffffffffffffffffffffff168152602001908152602001600020541015610c6d57610da7565b80600460003373ffffffffffffffffffffffffffffffffffffffff1673ffffffffffffffffffffffffffffffffffffffff1681526020019081526020016000206000828254039250508190555080600460008473ffffffffffffffffffffffffffffffffffffffff1673ffffffffffffffffffffffffffffffffffffffff168152602001908152602001600020600082825401925050819055507f3990db2d31862302a685e8086b5755072a6e2b5b780af1ee81ece35ee3cd3345338383604051808473ffffffffffffffffffffffffffffffffffffffff1673ffffffffffffffffffffffffffffffffffffffff1681526020018373ffffffffffffffffffffffffffffffffffffffff1673ffffffffffffffffffffffffffffffffffffffff168152602001828152602001935050505060405180910390a15b5050565b60008060019054906101000a900473ffffffffffffffffffffffffffffffffffffffff16905090565b6000600354905090565b600581815481101515610ded57fe5b90600052602060002090600302016000915090508060000154908060010154908060020154905083565b60003073ffffffffffffffffffffffffffffffffffffffff1631905090565b6000600154905090565b60008060019054906101000a900473ffffffffffffffffffffffffffffffffffffffff1673ffffffffffffffffffffffffffffffffffffffff163373ffffffffffffffffffffffffffffffffffffffff16141515610f2c576040517f08c379a000000000000000000000000000000000000000000000000000000000815260040180806020018281038252602c8152602001807f4f6e6c7920746865206973737565722063616e2063616c6c206e65772069737381526020017f75652066756e6374696f6e2e000000000000000000000000000000000000000081525060400191505060405180910390fd5b816003540160038190555081600460003373ffffffffffffffffffffffffffffffffffffffff1673ffffffffffffffffffffffffffffffffffffffff1681526020019081526020016000206000828254019250508190555060019050919050565b60008060009054906101000a900460ff16905090565b600080600060019054906101000a900473ffffffffffffffffffffffffffffffffffffffff1673ffffffffffffffffffffffffffffffffffffffff163373ffffffffffffffffffffffffffffffffffffffff16141515611002576112bd565b83518551148015611014575082518551145b15156110d4576040517f08c379a00000000000000000000000000000000000000000000000000000000081526004018080602001828103825260548152602001807f4e756d626572206f6620536861726573204e616d657320616e64204e756d626581526020017f72206f662053686172652077656967687420616e64204e756d626572206f662081526020017f7072696365206e65656420746f206d617463682e00000000000000000000000081525060600191505060405180910390fd5b60058054905091505b6000821115611145576005600183038154811015156110f857fe5b906000526020600020906003020160008082016000905560018201600090556002820160009055505060058054809190600190036111369190611718565b508180600190039250506110dd565b60006005805490501415156111e8576040517f08c379a000000000000000000000000000000000000000000000000000000000815260040180806020018281038252602a8152602001807f4e65656420746f20636c656172206261736b6574206265666f7265206164642081526020017f6e6577206261736b65740000000000000000000000000000000000000000000081525060400191505060405180910390fd5b600090505b84518110156112bc576005606060405190810160405280878481518110151561121257fe5b90602001906020020151600019168152602001868481518110151561123357fe5b906020019060200201518152602001858481518110151561125057fe5b906020019060200201518152509080600181540180825580915050906001820390600052602060002090600302016000909192909190915060008201518160000190600019169055602082015181600101556040820151816002015550505080806001019150506111ed565b5b5050505050565b60608060606000606080606060006005805490509450846040519080825280602002602001820160405280156113095781602001602082028038833980820191505090505b5093508460405190808252806020026020018201604052801561133b5781602001602082028038833980820191505090505b5092508460405190808252806020026020018201604052801561136d5781602001602082028038833980820191505090505b509150600090505b6005805490508110156114505760058181548110151561139157fe5b90600052602060002090600302016000015484828151811015156113b157fe5b9060200190602002019060001916908160001916815250506005818154811015156113d857fe5b90600052602060002090600302016001015483828151811015156113f857fe5b906020019060200201818152505060058181548110151561141557fe5b906000526020600020906003020160020154828281518110151561143557fe5b90602001906020020181815250508080600101915050611375565b8383839750975097505050505050909192565b6000600460003373ffffffffffffffffffffffffffffffffffffffff1673ffffffffffffffffffffffffffffffffffffffff16815260200190815260200160002054905090565b600080600060019054906101000a900473ffffffffffffffffffffffffffffffffffffffff1673ffffffffffffffffffffffffffffffffffffffff163373ffffffffffffffffffffffffffffffffffffffff16141515611598576040517f08c379a00000000000000000000000000000000000000000000000000000000081526004018080602001828103825260218152602001807f4f6e6c7920746865206973737565722063616e2075706461746520707269636581526020017f2e0000000000000000000000000000000000000000000000000000000000000081525060400191505060405180910390fd5b600354600460008060019054906101000a900473ffffffffffffffffffffffffffffffffffffffff1673ffffffffffffffffffffffffffffffffffffffff1673ffffffffffffffffffffffffffffffffffffffff16815260200190815260200160002054141515611671576040517f08c379a000000000000000000000000000000000000000000000000000000000815260040180806020018281038252601d8152602001807f50617274206f662066756e64206973206e6f742072656465656d65642e00000081525060200191505060405180910390fd5b3073ffffffffffffffffffffffffffffffffffffffff16319050600060019054906101000a900473ffffffffffffffffffffffffffffffffffffffff1673ffffffffffffffffffffffffffffffffffffffff166108fc829081150290604051600060405180830381858888f193505050501580156116f3573d6000803e3d6000fd5b5060008060006101000a81548160ff021916908315150217905550600191505090565b565b81548183558181111561174557600302816003028360005260206000209182019101611744919061174a565b5b505050565b61177e91905b8082111561177a576000808201600090556001820160009055600282016000905550600301611750565b5090565b905600a165627a7a72305820ff9d074e2beb8f534258632fc754a8a99b1ac7e273016d5002bd107d69f846dc0029",
  "source": "pragma solidity ^0.4.24;\r\n\r\n// Exchange Traded Fund\r\ncontract ETF {\r\n\r\n    // This is a type for a single share.\r\n    struct Underlying {\r\n        bytes32 name; // short name (up to 32 bytes)\r\n        uint weight; // weight in percentage\r\n        uint price;  // price of the Share\r\n    }\r\n\r\n    // discription fields for the ETF\r\n    bool isIssued; //flag for whether the note is issued\r\n    address public issuer;\r\n    bytes32 name; //note name\r\n    uint fee; // management fee in percentage\r\n    uint public outstandingBalance; //total oustanding ETF issued\r\n    mapping (address => uint) public balances;\r\n\r\n    // A dynamically-sized array of 'Underlying' structs.\r\n    Underlying[] public basket;\r\n\r\n    // Events allow light clients to react on\r\n    // changes efficiently.\r\n    event Sent(address from, address to, uint amount);\r\n\r\n    // This is the constructor whose code is\r\n    // run only when the contract is created.\r\n    constructor() public {\r\n        issuer = msg.sender;\r\n        isIssued = false;\r\n    }\r\n\r\n   // ----------------------------------------------------------------------------------\r\n    // Issuer functions\r\n\r\n    // This is the new issuance part 1 - add FI and EQ\r\n    function newIssue(bytes32[] underlyingName,\r\n                      uint[] underlyingWeight,\r\n                      uint[] underlyingPrice,\r\n                      bytes32 fundName,\r\n                      uint managementFee,\r\n                      uint amount) public returns(bool success) {\r\n\r\n        // make sure the issuer is the one performing issuance\r\n        require(msg.sender == issuer,\r\n                \"Only the issuer can call new issue function.\"\r\n        );\r\n\r\n        // make sure the note has not been issued before\r\n        require(isIssued == false,\r\n                \"Note has been issued already, check issued note.\"\r\n        );\r\n\r\n        // Need name and weight to have the same length\r\n        require(\r\n            underlyingName.length == underlyingWeight.length && underlyingName.length == underlyingPrice.length,\r\n            \"Number of Shares Names and Number of Share weight and Number of price need to match.\"\r\n        );\r\n\r\n        // Need weight totals to 1 eth\r\n        //for (uint k = 0; k < underlyingName.length; k++) {\r\n        //    uint total = 0;\r\n        //    total = total + underlyingWeight[k];\r\n        //}\r\n        //require(\r\n        //    total == 1 ether,\r\n        //    \"Total of weight need to be 10000 %00\"\r\n        //);\r\n\r\n\r\n        // For each of the provided share name and share weight\r\n        // create a new Underlying object and add it\r\n        // to the end of the array.\r\n        for (uint n = 0; n < underlyingName.length; n++) {\r\n            // 'Underlying({...})' creates a temporary\r\n            // Underlying object and 'basket.push(...)'\r\n            // appends it to the end of `basket`.\r\n            basket.push(Underlying({\r\n                name: underlyingName[n],\r\n                weight: underlyingWeight[n],\r\n                price: underlyingPrice[n]\r\n            }));\r\n        }\r\n\r\n        isIssued = true;\r\n        outstandingBalance = 0;\r\n        name = fundName;\r\n        fee = managementFee;\r\n\r\n        // Add amount to outstanding\r\n        // Issued amount initially belongs to issuer\r\n        outstandingBalance = outstandingBalance + amount;\r\n        balances[msg.sender] += amount;\r\n\r\n        return true;\r\n    }\r\n\r\n\r\n    function additionalIssue(uint amount) public returns(bool success){\r\n        // make sure the issuer is the one performing issuance\r\n        require(msg.sender == issuer,\r\n                \"Only the issuer can call new issue function.\"\r\n        );\r\n        outstandingBalance = outstandingBalance + amount;\r\n        balances[msg.sender] += amount;\r\n        return true;\r\n    }\r\n\r\n\r\n    // This is the rebalancer\r\n    function rebalance(bytes32[] underlyingName,uint[] underlyingWeight,uint[] underlyingPrice) public {\r\n        // make sure the issuer is the one performing rebalancing\r\n        if (msg.sender != issuer) return;\r\n\r\n        // Need name and weight and price to have the same length\r\n        require(\r\n            underlyingName.length == underlyingWeight.length && underlyingName.length == underlyingPrice.length,\r\n            \"Number of Shares Names and Number of Share weight and Number of price need to match.\"\r\n        );\r\n\r\n        // Need weight totals to 1 ether\r\n        //for (uint k = 0; k < underlyingName.length; k++) {\r\n        //    uint total = 0;\r\n        //    total = total + underlyingWeight[k];\r\n        //}\r\n        //require(\r\n        //    total == 1 ether,\r\n        //    \"Total of weight need to be 10000 %00\"\r\n        //);\r\n\r\n        // Delete all the old basket\r\n        for (uint o = basket.length; o > 0; o--) {\r\n            // There is no 'basket.pop(...)'\r\n            // need to delete one by one\r\n            delete basket[o-1];\r\n            basket.length--;\r\n        }\r\n        require(\r\n            basket.length == 0,\r\n            \"Need to clear basket before add new basket\"\r\n        );\r\n\r\n        // For each of the provided share name and share weight\r\n        // create a new Underlying object and add it\r\n        // to the end of the array.\r\n        for (uint n = 0; n < underlyingName.length; n++) {\r\n            // 'Underlying({...})' creates a temporary\r\n            // Underlying object and 'basket.push(...)'\r\n            // appends it to the end of `basket`.\r\n            basket.push(Underlying({\r\n                name: underlyingName[n],\r\n                weight: underlyingWeight[n],\r\n                price: underlyingPrice[n]\r\n            }));\r\n        }\r\n    }\r\n\r\n    function payContract() public payable {\r\n    }\r\n\r\n    function closeFund() public returns(bool success){\r\n        // make sure the issuer is the one performing issuance\r\n        require(msg.sender == issuer,\r\n            \"Only the issuer can update price.\"\r\n        );\r\n\r\n        // Check all units as been redeemed/send back to issuer\r\n        require(balances[issuer] == outstandingBalance,\r\n            \"Part of fund is not redeemed.\"\r\n        );\r\n\r\n        // Send remaining balance(if any) to the Issuer\r\n        uint remainingBal = address(this).balance;\r\n        issuer.transfer(remainingBal); // exclude gas?\r\n\r\n        // Set issued to false and delete all the structs\r\n        isIssued = false;\r\n        // ...\r\n\r\n        return true;\r\n    }\r\n\r\n// ----------------------------------------------------------------------------------\r\n    // user function\r\n\r\n    function sendFund(address receiver, uint amount) public {\r\n        if (balances[msg.sender] < amount) return;\r\n        balances[msg.sender] -= amount;\r\n        balances[receiver] += amount;\r\n        emit Sent(msg.sender, receiver, amount);\r\n    }\r\n\r\n// ----------------------------------------------------------------------------------\r\n    // For display information\r\n    function getIfIssued() public view returns (bool) {\r\n        return isIssued;\r\n    }\r\n\r\n    function getOutstanding() public view returns (uint) {\r\n        return outstandingBalance;\r\n    }\r\n\r\n    function getContractETHBalance() public view returns (uint) {\r\n        return (address(this).balance);\r\n    }\r\n\r\n    function getIssuer() public view returns (address) {\r\n        return issuer;\r\n    }\r\n\r\n    function getFundName() public view returns (bytes32) {\r\n        return name;\r\n    }\r\n\r\n    function getFundBalance() public view returns (uint) {\r\n        return balances[msg.sender];\r\n    }\r\n\r\n    function getBasket() public view\r\n        returns (bytes32[] memory _name,uint[] _weight,uint[] _price) {\r\n        uint length = basket.length;\r\n        bytes32[] memory underlyingname = new bytes32[](length);\r\n        uint[] memory weight = new uint[](length);\r\n        uint[] memory price = new uint[](length);\r\n        for (uint i = 0; i < basket.length; i++) {\r\n            underlyingname[i]=basket[i].name;\r\n            weight[i]=basket[i].weight;\r\n            price[i]=basket[i].price;\r\n        }\r\n        return (underlyingname,weight,price);\r\n    }\r\n\r\n    function getNAV() public view returns (uint) {\r\n        uint nav = 0;\r\n        uint eth = 1 ether;\r\n\r\n        //Adding Underlying price\r\n        for (uint i = 0; i < basket.length; i++) {\r\n            nav  = nav + basket[i].price * basket[i].weight/eth;\r\n        }\r\n        return nav;\r\n    }\r\n\r\n\r\n}\r\n",
  "sourcePath": "C:\\Users\\jzqav\\CoinCapitalMarkets\\contracts\\ETF.sol",
  "compiler": {
    "name": "solc",
    "version": "0.4.24+commit.e67f0147.Emscripten.clang"
  },
  "schemaVersion": "2.0.1",
  "updatedAt": "2018-08-14T22:08:24.307Z"
}