{
  "contractName": "GSP",
  "abi": [
    {
      "constant": true,
      "inputs": [],
      "name": "issuer",
      "outputs": [
        {
          "name": "",
          "type": "address"
        }
      ],
      "payable": false,
      "stateMutability": "view",
      "type": "function"
    },
    {
      "constant": true,
      "inputs": [],
      "name": "maturity",
      "outputs": [
        {
          "name": "",
          "type": "uint256"
        }
      ],
      "payable": false,
      "stateMutability": "view",
      "type": "function"
    },
    {
      "constant": true,
      "inputs": [
        {
          "name": "",
          "type": "address"
        }
      ],
      "name": "balances",
      "outputs": [
        {
          "name": "",
          "type": "uint256"
        }
      ],
      "payable": false,
      "stateMutability": "view",
      "type": "function"
    },
    {
      "constant": true,
      "inputs": [],
      "name": "outstandingBalance",
      "outputs": [
        {
          "name": "",
          "type": "uint256"
        }
      ],
      "payable": false,
      "stateMutability": "view",
      "type": "function"
    },
    {
      "constant": true,
      "inputs": [
        {
          "name": "",
          "type": "uint256"
        }
      ],
      "name": "europeanOptions",
      "outputs": [
        {
          "name": "name",
          "type": "bytes32"
        },
        {
          "name": "isCall",
          "type": "bool"
        },
        {
          "name": "underlying",
          "type": "bytes32"
        },
        {
          "name": "strike",
          "type": "uint256"
        },
        {
          "name": "expiration",
          "type": "uint256"
        },
        {
          "name": "price",
          "type": "uint256"
        },
        {
          "name": "contractSize",
          "type": "uint256"
        },
        {
          "name": "isLong",
          "type": "bool"
        }
      ],
      "payable": false,
      "stateMutability": "view",
      "type": "function"
    },
    {
      "constant": true,
      "inputs": [],
      "name": "bond",
      "outputs": [
        {
          "name": "name",
          "type": "bytes32"
        },
        {
          "name": "issueDate",
          "type": "uint256"
        },
        {
          "name": "maturity",
          "type": "uint256"
        },
        {
          "name": "yld",
          "type": "uint256"
        },
        {
          "name": "price",
          "type": "uint256"
        },
        {
          "name": "contractSize",
          "type": "uint256"
        },
        {
          "name": "isLong",
          "type": "bool"
        }
      ],
      "payable": false,
      "stateMutability": "view",
      "type": "function"
    },
    {
      "constant": true,
      "inputs": [],
      "name": "issueDate",
      "outputs": [
        {
          "name": "",
          "type": "uint256"
        }
      ],
      "payable": false,
      "stateMutability": "view",
      "type": "function"
    },
    {
      "inputs": [],
      "payable": false,
      "stateMutability": "nonpayable",
      "type": "constructor"
    },
    {
      "anonymous": false,
      "inputs": [
        {
          "indexed": false,
          "name": "from",
          "type": "address"
        },
        {
          "indexed": false,
          "name": "to",
          "type": "address"
        },
        {
          "indexed": false,
          "name": "amount",
          "type": "uint256"
        }
      ],
      "name": "Sent",
      "type": "event"
    },
    {
      "constant": false,
      "inputs": [
        {
          "name": "bondName",
          "type": "bytes32"
        },
        {
          "name": "bondIssueDate",
          "type": "uint256"
        },
        {
          "name": "bondMaturity",
          "type": "uint256"
        },
        {
          "name": "bondYld",
          "type": "uint256"
        },
        {
          "name": "bondPrice",
          "type": "uint256"
        },
        {
          "name": "bondPrincipal",
          "type": "uint256"
        },
        {
          "name": "bondLong",
          "type": "bool"
        }
      ],
      "name": "newIssue1AddBond",
      "outputs": [
        {
          "name": "success",
          "type": "bool"
        }
      ],
      "payable": false,
      "stateMutability": "nonpayable",
      "type": "function"
    },
    {
      "constant": false,
      "inputs": [
        {
          "name": "eoName",
          "type": "bytes32[]"
        },
        {
          "name": "eoIsCall",
          "type": "bool[]"
        },
        {
          "name": "eoUnderlying",
          "type": "bytes32[]"
        },
        {
          "name": "eoStrike",
          "type": "uint256[]"
        },
        {
          "name": "eoExpiration",
          "type": "uint256[]"
        },
        {
          "name": "eoPrice",
          "type": "uint256[]"
        },
        {
          "name": "eoContractSize",
          "type": "uint256[]"
        },
        {
          "name": "eoLong",
          "type": "bool[]"
        }
      ],
      "name": "newIssue2AddEuropeanOptions",
      "outputs": [
        {
          "name": "success",
          "type": "bool"
        }
      ],
      "payable": false,
      "stateMutability": "nonpayable",
      "type": "function"
    },
    {
      "constant": false,
      "inputs": [
        {
          "name": "notename",
          "type": "bytes32"
        },
        {
          "name": "noteIssueDate",
          "type": "uint256"
        },
        {
          "name": "noteMaturity",
          "type": "uint256"
        },
        {
          "name": "commissionFee",
          "type": "uint256"
        },
        {
          "name": "amount",
          "type": "uint256"
        }
      ],
      "name": "newIssue3",
      "outputs": [
        {
          "name": "success",
          "type": "bool"
        }
      ],
      "payable": false,
      "stateMutability": "nonpayable",
      "type": "function"
    },
    {
      "constant": false,
      "inputs": [
        {
          "name": "amount",
          "type": "uint256"
        }
      ],
      "name": "additionalIssue",
      "outputs": [
        {
          "name": "success",
          "type": "bool"
        }
      ],
      "payable": false,
      "stateMutability": "nonpayable",
      "type": "function"
    },
    {
      "constant": false,
      "inputs": [
        {
          "name": "newBondPrice",
          "type": "uint256"
        },
        {
          "name": "newEOName",
          "type": "bytes32[]"
        },
        {
          "name": "newEOPrice",
          "type": "uint256[]"
        }
      ],
      "name": "updatePrice",
      "outputs": [
        {
          "name": "success",
          "type": "bool"
        }
      ],
      "payable": false,
      "stateMutability": "nonpayable",
      "type": "function"
    },
    {
      "constant": false,
      "inputs": [],
      "name": "payContract",
      "outputs": [],
      "payable": true,
      "stateMutability": "payable",
      "type": "function"
    },
    {
      "constant": false,
      "inputs": [
        {
          "name": "closeDate",
          "type": "uint256"
        }
      ],
      "name": "closeFund",
      "outputs": [
        {
          "name": "success",
          "type": "bool"
        }
      ],
      "payable": false,
      "stateMutability": "nonpayable",
      "type": "function"
    },
    {
      "constant": false,
      "inputs": [
        {
          "name": "receiver",
          "type": "address"
        },
        {
          "name": "amount",
          "type": "uint256"
        }
      ],
      "name": "sendNote",
      "outputs": [
        {
          "name": "sufficient",
          "type": "bool"
        }
      ],
      "payable": false,
      "stateMutability": "nonpayable",
      "type": "function"
    },
    {
      "constant": true,
      "inputs": [
        {
          "name": "amount",
          "type": "uint256"
        }
      ],
      "name": "userGetSubscribePayable",
      "outputs": [
        {
          "name": "",
          "type": "uint256"
        }
      ],
      "payable": false,
      "stateMutability": "view",
      "type": "function"
    },
    {
      "constant": false,
      "inputs": [
        {
          "name": "amount",
          "type": "uint256"
        }
      ],
      "name": "userSubscribe",
      "outputs": [
        {
          "name": "",
          "type": "bool"
        }
      ],
      "payable": true,
      "stateMutability": "payable",
      "type": "function"
    },
    {
      "constant": true,
      "inputs": [
        {
          "name": "amount",
          "type": "uint256"
        }
      ],
      "name": "userGetRedeemReceivable",
      "outputs": [
        {
          "name": "",
          "type": "uint256"
        }
      ],
      "payable": false,
      "stateMutability": "view",
      "type": "function"
    },
    {
      "constant": false,
      "inputs": [
        {
          "name": "amount",
          "type": "uint256"
        }
      ],
      "name": "userRedeem",
      "outputs": [
        {
          "name": "",
          "type": "bool"
        }
      ],
      "payable": false,
      "stateMutability": "nonpayable",
      "type": "function"
    },
    {
      "constant": true,
      "inputs": [],
      "name": "getIfIssued",
      "outputs": [
        {
          "name": "",
          "type": "bool"
        }
      ],
      "payable": false,
      "stateMutability": "view",
      "type": "function"
    },
    {
      "constant": true,
      "inputs": [],
      "name": "getOutstanding",
      "outputs": [
        {
          "name": "",
          "type": "uint256"
        }
      ],
      "payable": false,
      "stateMutability": "view",
      "type": "function"
    },
    {
      "constant": true,
      "inputs": [],
      "name": "getContractETHBalance",
      "outputs": [
        {
          "name": "",
          "type": "uint256"
        }
      ],
      "payable": false,
      "stateMutability": "view",
      "type": "function"
    },
    {
      "constant": true,
      "inputs": [],
      "name": "getIssuer",
      "outputs": [
        {
          "name": "",
          "type": "address"
        }
      ],
      "payable": false,
      "stateMutability": "view",
      "type": "function"
    },
    {
      "constant": true,
      "inputs": [],
      "name": "getNoteName",
      "outputs": [
        {
          "name": "",
          "type": "bytes32"
        }
      ],
      "payable": false,
      "stateMutability": "view",
      "type": "function"
    },
    {
      "constant": true,
      "inputs": [],
      "name": "getIssueDate",
      "outputs": [
        {
          "name": "",
          "type": "uint256"
        }
      ],
      "payable": false,
      "stateMutability": "view",
      "type": "function"
    },
    {
      "constant": true,
      "inputs": [],
      "name": "getMaturity",
      "outputs": [
        {
          "name": "",
          "type": "uint256"
        }
      ],
      "payable": false,
      "stateMutability": "view",
      "type": "function"
    },
    {
      "constant": true,
      "inputs": [],
      "name": "getNoteBalance",
      "outputs": [
        {
          "name": "",
          "type": "uint256"
        }
      ],
      "payable": false,
      "stateMutability": "view",
      "type": "function"
    },
    {
      "constant": true,
      "inputs": [],
      "name": "getBond",
      "outputs": [
        {
          "name": "bondName",
          "type": "bytes32"
        },
        {
          "name": "bondContractSize",
          "type": "uint256"
        },
        {
          "name": "bondIsLong",
          "type": "bool"
        },
        {
          "name": "bondPrice",
          "type": "uint256"
        }
      ],
      "payable": false,
      "stateMutability": "view",
      "type": "function"
    },
    {
      "constant": true,
      "inputs": [],
      "name": "getEuropeanOption",
      "outputs": [
        {
          "name": "_eoName",
          "type": "bytes32[]"
        },
        {
          "name": "_eoContractSize",
          "type": "uint256[]"
        },
        {
          "name": "_eoIsLong",
          "type": "bool[]"
        },
        {
          "name": "_eoPrice",
          "type": "uint256[]"
        }
      ],
      "payable": false,
      "stateMutability": "view",
      "type": "function"
    },
    {
      "constant": true,
      "inputs": [],
      "name": "getNAV",
      "outputs": [
        {
          "name": "",
          "type": "uint256"
        }
      ],
      "payable": false,
      "stateMutability": "view",
      "type": "function"
    }
  ],
  "bytecode": "0x608060405234801561001057600080fd5b5033600060016101000a81548173ffffffffffffffffffffffffffffffffffffffff021916908373ffffffffffffffffffffffffffffffffffffffff16021790555060008060006101000a81548160ff021916908315150217905550612d5f8061007b6000396000f300608060405260043610610180576000357c0100000000000000000000000000000000000000000000000000000000900463ffffffff1680630126c60614610185578063134d7808146101b05780631d14384814610403578063204f83f91461045a578063250b2cfd14610485578063277b35a11461050c57806327e235e31461054d5780633133f2a7146105a45780634210a890146105cf578063490c6583146106595780635255642114610684578063609a4970146106db57806364c9ec6f146107205780636f28a5cc146107815780637a4ee555146107e65780638c89a0ad146108115780638d1343e01461083c578063a3046b9414610867578063a41785ce146108ac578063a843057f146109f0578063ac3066e014610a23578063ac98247214610a94578063b369f42314610ae0578063be57384b14610b25578063cdbd071114610b54578063d4fc7cd914610b95578063e0ded77614610bc0578063e16695b514610bf8578063e7cb6b1614610c23578063ecb0b86214610cee575b600080fd5b34801561019157600080fd5b5061019a610cf8565b6040518082815260200191505060405180910390f35b3480156101bc57600080fd5b506103e96004803603810190808035906020019082018035906020019080806020026020016040519081016040528093929190818152602001838360200280828437820191505050505050919291929080359060200190820180359060200190808060200260200160405190810160405280939291908181526020018383602002808284378201915050505050509192919290803590602001908201803590602001908080602002602001604051908101604052809392919081815260200183836020028082843782019150505050505091929192908035906020019082018035906020019080806020026020016040519081016040528093929190818152602001838360200280828437820191505050505050919291929080359060200190820180359060200190808060200260200160405190810160405280939291908181526020018383602002808284378201915050505050509192919290803590602001908201803590602001908080602002602001604051908101604052809392919081815260200183836020028082843782019150505050505091929192908035906020019082018035906020019080806020026020016040519081016040528093929190818152602001838360200280828437820191505050505050919291929080359060200190820180359060200190808060200260200160405190810160405280939291908181526020018383602002808284378201915050505050509192919290505050610e2e565b604051808215151515815260200191505060405180910390f35b34801561040f57600080fd5b50610418611276565b604051808273ffffffffffffffffffffffffffffffffffffffff1673ffffffffffffffffffffffffffffffffffffffff16815260200191505060405180910390f35b34801561046657600080fd5b5061046f61129c565b6040518082815260200191505060405180910390f35b34801561049157600080fd5b506104f2600480360381019080803560001916906020019092919080359060200190929190803590602001909291908035906020019092919080359060200190929190803590602001909291908035151590602001909291905050506112a2565b604051808215151515815260200191505060405180910390f35b34801561051857600080fd5b50610537600480360381019080803590602001909291905050506114ee565b6040518082815260200191505060405180910390f35b34801561055957600080fd5b5061058e600480360381019080803573ffffffffffffffffffffffffffffffffffffffff1690602001909291905050506117fc565b6040518082815260200191505060405180910390f35b3480156105b057600080fd5b506105b9611814565b6040518082815260200191505060405180910390f35b3480156105db57600080fd5b506105fa6004803603810190808035906020019092919050505061181a565b604051808960001916600019168152602001881515151581526020018760001916600019168152602001868152602001858152602001848152602001838152602001821515151581526020019850505050505050505060405180910390f35b34801561066557600080fd5b5061066e61188b565b6040518082815260200191505060405180910390f35b34801561069057600080fd5b506106996118d2565b604051808273ffffffffffffffffffffffffffffffffffffffff1673ffffffffffffffffffffffffffffffffffffffff16815260200191505060405180910390f35b3480156106e757600080fd5b50610706600480360381019080803590602001909291905050506118fb565b604051808215151515815260200191505060405180910390f35b34801561072c57600080fd5b50610735611bc9565b6040518088600019166000191681526020018781526020018681526020018581526020018481526020018381526020018215151515815260200197505050505050505060405180910390f35b34801561078d57600080fd5b506107cc600480360381019080803573ffffffffffffffffffffffffffffffffffffffff16906020019092919080359060200190929190505050611c06565b604051808215151515815260200191505060405180910390f35b3480156107f257600080fd5b506107fb611e5d565b6040518082815260200191505060405180910390f35b34801561081d57600080fd5b50610826611e67565b6040518082815260200191505060405180910390f35b34801561084857600080fd5b50610851611e86565b6040518082815260200191505060405180910390f35b34801561087357600080fd5b5061089260048036038101908080359060200190929190505050611e8c565b604051808215151515815260200191505060405180910390f35b3480156108b857600080fd5b506108c16121bd565b6040518080602001806020018060200180602001858103855289818151815260200191508051906020019060200280838360005b838110156109105780820151818401526020810190506108f5565b50505050905001858103845288818151815260200191508051906020019060200280838360005b83811015610952578082015181840152602081019050610937565b50505050905001858103835287818151815260200191508051906020019060200280838360005b83811015610994578082015181840152602081019050610979565b50505050905001858103825286818151815260200191508051906020019060200280838360005b838110156109d65780820151818401526020810190506109bb565b505050509050019850505050505050505060405180910390f35b3480156109fc57600080fd5b50610a056123e3565b60405180826000191660001916815260200191505060405180910390f35b348015610a2f57600080fd5b50610a7a6004803603810190808035600019169060200190929190803590602001909291908035906020019092919080359060200190929190803590602001909291905050506123ed565b604051808215151515815260200191505060405180910390f35b348015610aa057600080fd5b50610aa961264b565b6040518085600019166000191681526020018481526020018315151515815260200182815260200194505050505060405180910390f35b348015610aec57600080fd5b50610b0b60048036038101908080359060200190929190505050612684565b604051808215151515815260200191505060405180910390f35b348015610b3157600080fd5b50610b3a6127d1565b604051808215151515815260200191505060405180910390f35b348015610b6057600080fd5b50610b7f600480360381019080803590602001909291905050506127e7565b6040518082815260200191505060405180910390f35b348015610ba157600080fd5b50610baa612a15565b6040518082815260200191505060405180910390f35b610bde60048036038101908080359060200190929190505050612a1f565b604051808215151515815260200191505060405180910390f35b348015610c0457600080fd5b50610c0d612b63565b6040518082815260200191505060405180910390f35b348015610c2f57600080fd5b50610cd4600480360381019080803590602001909291908035906020019082018035906020019080806020026020016040519081016040528093929190818152602001838360200280828437820191505050505050919291929080359060200190820180359060200190808060200260200160405190810160405280939291908181526020018383602002808284378201915050505050509192919290505050612b6d565b604051808215151515815260200191505060405180910390f35b610cf6612d31565b005b6000806000809150600760060160009054906101000a900460ff1615610d2e576007600501546007600401540282019150610d40565b60076005015460076004015402820391505b600090505b600e80549050811015610e2657600e81815481101515610d6157fe5b906000526020600020906008020160070160009054906101000a900460ff1615610dd157600e81815481101515610d9457fe5b906000526020600020906008020160060154600e82815481101515610db557fe5b9060005260206000209060080201600501540282019150610e19565b600e81815481101515610de057fe5b906000526020600020906008020160060154600e82815481101515610e0157fe5b90600052602060002090600802016005015402820391505b8080600101915050610d45565b819250505090565b600080600060019054906101000a900473ffffffffffffffffffffffffffffffffffffffff1673ffffffffffffffffffffffffffffffffffffffff163373ffffffffffffffffffffffffffffffffffffffff16141515610f1c576040517f08c379a000000000000000000000000000000000000000000000000000000000815260040180806020018281038252602c8152602001807f4f6e6c7920746865206973737565722063616e2063616c6c206e65772069737381526020017f75652066756e6374696f6e2e000000000000000000000000000000000000000081525060400191505060405180910390fd5b600015156000809054906101000a900460ff161515141515610fcc576040517f08c379a00000000000000000000000000000000000000000000000000000000081526004018080602001828103825260308152602001807f4e6f746520686173206265656e2069737375656420616c72656164792c20636881526020017f65636b20697373756564206e6f74652e0000000000000000000000000000000081525060400191505060405180910390fd5b88518a51148015610fde575087518a51145b8015610feb575086518a51145b8015610ff8575085518a51145b8015611005575084518a51145b8015611012575083518a51145b801561101f575082518a51145b1515611093576040517f08c379a000000000000000000000000000000000000000000000000000000000815260040180806020018281038252601b8152602001807f4172726179206c656e677468206e65656420746f206d617463682e000000000081525060200191505060405180910390fd5b600090505b895181101561126557600e610100604051908101604052808c848151811015156110be57fe5b906020019060200201516000191681526020018b848151811015156110df57fe5b90602001906020020151151581526020018a848151811015156110fe57fe5b90602001906020020151600019168152602001898481518110151561111f57fe5b906020019060200201518152602001888481518110151561113c57fe5b906020019060200201518152602001878481518110151561115957fe5b906020019060200201518152602001868481518110151561117657fe5b906020019060200201518152602001858481518110151561119357fe5b906020019060200201511515815250908060018154018082558091505090600182039060005260206000209060080201600090919290919091506000820151816000019060001916905560208201518160010160006101000a81548160ff02191690831515021790555060408201518160020190600019169055606082015181600301556080820151816004015560a0820151816005015560c0820151816006015560e08201518160070160006101000a81548160ff0219169083151502179055505050508080600101915050611098565b600191505098975050505050505050565b600060019054906101000a900473ffffffffffffffffffffffffffffffffffffffff1681565b60035481565b60008060019054906101000a900473ffffffffffffffffffffffffffffffffffffffff1673ffffffffffffffffffffffffffffffffffffffff163373ffffffffffffffffffffffffffffffffffffffff1614151561138e576040517f08c379a000000000000000000000000000000000000000000000000000000000815260040180806020018281038252602c8152602001807f4f6e6c7920746865206973737565722063616e2063616c6c206e65772069737381526020017f75652066756e6374696f6e2e000000000000000000000000000000000000000081525060400191505060405180910390fd5b600015156000809054906101000a900460ff16151514151561143e576040517f08c379a00000000000000000000000000000000000000000000000000000000081526004018080602001828103825260308152602001807f4e6f746520686173206265656e2069737375656420616c72656164792c20636881526020017f65636b20697373756564206e6f74652e0000000000000000000000000000000081525060400191505060405180910390fd5b60e060405190810160405280896000191681526020018881526020018781526020018681526020018581526020018481526020018315158152506007600082015181600001906000191690556020820151816001015560408201518160020155606082015181600301556080820151816004015560a0820151816005015560c08201518160060160006101000a81548160ff02191690831515021790555090505060019050979650505050505050565b60008060008060008060009450600760060160009054906101000a900460ff161561152957600760050154600760040154028501945061153b565b60076005015460076004015402850394505b600093505b600e8054905084101561162157600e8481548110151561155c57fe5b906000526020600020906008020160070160009054906101000a900460ff16156115cc57600e8481548110151561158f57fe5b906000526020600020906008020160060154600e858154811015156115b057fe5b9060005260206000209060080201600501540285019450611614565b600e848154811015156115db57fe5b906000526020600020906008020160060154600e858154811015156115fc57fe5b90600052602060002090600802016005015402850394505b8380600101945050611540565b866064600654870181151561163257fe5b040292503373ffffffffffffffffffffffffffffffffffffffff163191508282101515156116ee576040517f08c379a00000000000000000000000000000000000000000000000000000000081526004018080602001828103825260218152602001807f596f7520646f6e2774206861766520656e6f756768204554482062616c616e6381526020017f650000000000000000000000000000000000000000000000000000000000000081525060400191505060405180910390fd5b600560008060019054906101000a900473ffffffffffffffffffffffffffffffffffffffff1673ffffffffffffffffffffffffffffffffffffffff1673ffffffffffffffffffffffffffffffffffffffff1681526020019081526020016000205490508681101515156117ef576040517f08c379a00000000000000000000000000000000000000000000000000000000081526004018080602001828103825260308152602001807f49737375657220646f65736e2774206861766520656e6f75676820475350206e81526020017f6f746573206f75747374616e64696e670000000000000000000000000000000081525060400191505060405180910390fd5b8295505050505050919050565b60056020528060005260406000206000915090505481565b60045481565b600e8181548110151561182957fe5b90600052602060002090600802016000915090508060000154908060010160009054906101000a900460ff16908060020154908060030154908060040154908060050154908060060154908060070160009054906101000a900460ff16905088565b6000600560003373ffffffffffffffffffffffffffffffffffffffff1673ffffffffffffffffffffffffffffffffffffffff16815260200190815260200160002054905090565b60008060019054906101000a900473ffffffffffffffffffffffffffffffffffffffff16905090565b600080600060019054906101000a900473ffffffffffffffffffffffffffffffffffffffff1673ffffffffffffffffffffffffffffffffffffffff163373ffffffffffffffffffffffffffffffffffffffff161415156119e9576040517f08c379a00000000000000000000000000000000000000000000000000000000081526004018080602001828103825260218152602001807f4f6e6c7920746865206973737565722063616e2075706461746520707269636581526020017f2e0000000000000000000000000000000000000000000000000000000000000081525060400191505060405180910390fd5b6003548310151515611a63576040517f08c379a00000000000000000000000000000000000000000000000000000000081526004018080602001828103825260198152602001807f4d61747572697479206e6f742072656163686564207965742e0000000000000081525060200191505060405180910390fd5b600454600560008060019054906101000a900473ffffffffffffffffffffffffffffffffffffffff1673ffffffffffffffffffffffffffffffffffffffff1673ffffffffffffffffffffffffffffffffffffffff16815260200190815260200160002054141515611b3c576040517f08c379a000000000000000000000000000000000000000000000000000000000815260040180806020018281038252601d8152602001807f50617274206f662066756e64206973206e6f742072656465656d65642e00000081525060200191505060405180910390fd5b3073ffffffffffffffffffffffffffffffffffffffff16319050600060019054906101000a900473ffffffffffffffffffffffffffffffffffffffff1673ffffffffffffffffffffffffffffffffffffffff166108fc829081150290604051600060405180830381858888f19350505050158015611bbe573d6000803e3d6000fd5b506001915050919050565b60078060000154908060010154908060020154908060030154908060040154908060050154908060060160009054906101000a900460ff16905087565b60008060019054906101000a900473ffffffffffffffffffffffffffffffffffffffff1673ffffffffffffffffffffffffffffffffffffffff163373ffffffffffffffffffffffffffffffffffffffff1614151515611ccd576040517f08c379a000000000000000000000000000000000000000000000000000000000815260040180806020018281038252601d8152602001807f4973737565722063616e6e6f742073656e6420475350206e6f7465732e00000081525060200191505060405180910390fd5b81600560003373ffffffffffffffffffffffffffffffffffffffff1673ffffffffffffffffffffffffffffffffffffffff168152602001908152602001600020541015611d1957611e57565b81600560003373ffffffffffffffffffffffffffffffffffffffff1673ffffffffffffffffffffffffffffffffffffffff1681526020019081526020016000206000828254039250508190555081600560008573ffffffffffffffffffffffffffffffffffffffff1673ffffffffffffffffffffffffffffffffffffffff168152602001908152602001600020600082825401925050819055507f3990db2d31862302a685e8086b5755072a6e2b5b780af1ee81ece35ee3cd3345338484604051808473ffffffffffffffffffffffffffffffffffffffff1673ffffffffffffffffffffffffffffffffffffffff1681526020018373ffffffffffffffffffffffffffffffffffffffff1673ffffffffffffffffffffffffffffffffffffffff168152602001828152602001935050505060405180910390a1600190505b92915050565b6000600454905090565b60003073ffffffffffffffffffffffffffffffffffffffff1631905090565b60025481565b6000806000806000809350600760060160009054906101000a900460ff1615611ec5576007600501546007600401540284019350611ed7565b60076005015460076004015402840393505b600092505b600e80549050831015611fbd57600e83815481101515611ef857fe5b906000526020600020906008020160070160009054906101000a900460ff1615611f6857600e83815481101515611f2b57fe5b906000526020600020906008020160060154600e84815481101515611f4c57fe5b9060005260206000209060080201600501540284019350611fb0565b600e83815481101515611f7757fe5b906000526020600020906008020160060154600e84815481101515611f9857fe5b90600052602060002090600802016005015402840393505b8280600101935050611edc565b6064868502811515611fcb57fe5b049150600560003373ffffffffffffffffffffffffffffffffffffffff1673ffffffffffffffffffffffffffffffffffffffff1681526020019081526020016000205490508581101515156120ae576040517f08c379a00000000000000000000000000000000000000000000000000000000081526004018080602001828103825260298152602001807f596f7520646f6e2774206861766520656e6f75676820475350206e6f7465732081526020017f746f2072656465656d000000000000000000000000000000000000000000000081525060400191505060405180910390fd5b3373ffffffffffffffffffffffffffffffffffffffff166108fc839081150290604051600060405180830381858888f193505050501580156120f4573d6000803e3d6000fd5b5085600560008060019054906101000a900473ffffffffffffffffffffffffffffffffffffffff1673ffffffffffffffffffffffffffffffffffffffff1673ffffffffffffffffffffffffffffffffffffffff1681526020019081526020016000206000828254019250508190555085600560003373ffffffffffffffffffffffffffffffffffffffff1673ffffffffffffffffffffffffffffffffffffffff168152602001908152602001600020600082825403925050819055506001945050505050919050565b60608060608060006060806060806000600e805490509550856040519080825280602002602001820160405280156122045781602001602082028038833980820191505090505b509450856040519080825280602002602001820160405280156122365781602001602082028038833980820191505090505b509350856040519080825280602002602001820160405280156122685781602001602082028038833980820191505090505b5092508560405190808252806020026020018201604052801561229a5781602001602082028038833980820191505090505b509150600090505b600e805490508110156123cb57600e818154811015156122be57fe5b90600052602060002090600802016000015485828151811015156122de57fe5b906020019060200201906000191690816000191681525050600e8181548110151561230557fe5b906000526020600020906008020160060154848281518110151561232557fe5b9060200190602002018181525050600e8181548110151561234257fe5b906000526020600020906008020160070160009054906101000a900460ff16838281518110151561236f57fe5b9060200190602002019015159081151581525050600e8181548110151561239257fe5b90600052602060002090600802016005015482828151811015156123b257fe5b90602001906020020151505080806001019150506122a2565b84848484995099509950995050505050505090919293565b6000600154905090565b60008060019054906101000a900473ffffffffffffffffffffffffffffffffffffffff1673ffffffffffffffffffffffffffffffffffffffff163373ffffffffffffffffffffffffffffffffffffffff161415156124d9576040517f08c379a000000000000000000000000000000000000000000000000000000000815260040180806020018281038252602c8152602001807f4f6e6c7920746865206973737565722063616e2063616c6c206e65772069737381526020017f75652066756e6374696f6e2e000000000000000000000000000000000000000081525060400191505060405180910390fd5b600015156000809054906101000a900460ff161515141515612589576040517f08c379a00000000000000000000000000000000000000000000000000000000081526004018080602001828103825260308152602001807f4e6f746520686173206265656e2069737375656420616c72656164792c20636881526020017f65636b20697373756564206e6f74652e0000000000000000000000000000000081525060400191505060405180910390fd5b60006001026007600001546000191614156125a357612642565b60016000806101000a81548160ff02191690831515021790555060006004819055508560018160001916905550846002819055508360038190555082600681905550816004540160048190555081600560003373ffffffffffffffffffffffffffffffffffffffff1673ffffffffffffffffffffffffffffffffffffffff16815260200190815260200160002060008282540192505081905550600190505b95945050505050565b600080600080600760000154600760050154600760060160009054906101000a900460ff16600760040154935093509350935090919293565b60008060019054906101000a900473ffffffffffffffffffffffffffffffffffffffff1673ffffffffffffffffffffffffffffffffffffffff163373ffffffffffffffffffffffffffffffffffffffff16141515612770576040517f08c379a000000000000000000000000000000000000000000000000000000000815260040180806020018281038252602c8152602001807f4f6e6c7920746865206973737565722063616e2063616c6c206e65772069737381526020017f75652066756e6374696f6e2e000000000000000000000000000000000000000081525060400191505060405180910390fd5b816004540160048190555081600560003373ffffffffffffffffffffffffffffffffffffffff1673ffffffffffffffffffffffffffffffffffffffff1681526020019081526020016000206000828254019250508190555060019050919050565b60008060009054906101000a900460ff16905090565b6000806000806000809350600760060160009054906101000a900460ff1615612820576007600501546007600401540284019350612832565b60076005015460076004015402840393505b600092505b600e8054905083101561291857600e8381548110151561285357fe5b906000526020600020906008020160070160009054906101000a900460ff16156128c357600e8381548110151561288657fe5b906000526020600020906008020160060154600e848154811015156128a757fe5b906000526020600020906008020160050154028401935061290b565b600e838154811015156128d257fe5b906000526020600020906008020160060154600e848154811015156128f357fe5b90600052602060002090600802016005015402840393505b8280600101935050612837565b606486850281151561292657fe5b049150600560003373ffffffffffffffffffffffffffffffffffffffff1673ffffffffffffffffffffffffffffffffffffffff168152602001908152602001600020549050858110151515612a09576040517f08c379a00000000000000000000000000000000000000000000000000000000081526004018080602001828103825260298152602001807f596f7520646f6e2774206861766520656e6f75676820475350206e6f7465732081526020017f746f2072656465656d000000000000000000000000000000000000000000000081525060400191505060405180910390fd5b81945050505050919050565b6000600254905090565b600080826064600654811515612a3157fe5b04029050600060019054906101000a900473ffffffffffffffffffffffffffffffffffffffff1673ffffffffffffffffffffffffffffffffffffffff166108fc829081150290604051600060405180830381858888f19350505050158015612a9d573d6000803e3d6000fd5b5082600560003373ffffffffffffffffffffffffffffffffffffffff1673ffffffffffffffffffffffffffffffffffffffff1681526020019081526020016000206000828254019250508190555082600560008060019054906101000a900473ffffffffffffffffffffffffffffffffffffffff1673ffffffffffffffffffffffffffffffffffffffff1673ffffffffffffffffffffffffffffffffffffffff168152602001908152602001600020600082825403925050819055506001915050919050565b6000600354905090565b60008060008060019054906101000a900473ffffffffffffffffffffffffffffffffffffffff1673ffffffffffffffffffffffffffffffffffffffff163373ffffffffffffffffffffffffffffffffffffffff16141515612c5c576040517f08c379a000000000000000000000000000000000000000000000000000000000815260040180806020018281038252602c8152602001807f4f6e6c7920746865206973737565722063616e2063616c6c206e65772069737381526020017f75652066756e6374696f6e2e000000000000000000000000000000000000000081525060400191505060405180910390fd5b85600760040181905550600091505b8451821015612d2457600090505b600e80549050811015612d1757600e81815481101515612c9557fe5b906000526020600020906008020160000154600019168583815181101515612cb957fe5b90602001906020020151600019161415612d0a578382815181101515612cdb57fe5b90602001906020020151600e82815481101515612cf457fe5b9060005260206000209060080201600501819055505b8080600101915050612c79565b8180600101925050612c6b565b6001925050509392505050565b5600a165627a7a72305820ea6e45476ba2726b91c71f2915d1545f6ff3aa7b2514c6a701dd98b12162a6ca0029",
  "source": "pragma solidity ^0.4.24;\r\n\r\n// Global Structured Product\r\ncontract GSP {\r\n\r\n    // type for a bond\r\n    struct ZeroCouponBond {\r\n        bytes32 name;\r\n        uint issueDate; // date if issuance\r\n        uint maturity; // date of maturity\r\n        uint yld;\r\n        uint price; // in terms of par=100\r\n        uint contractSize; // one contract means par=100\r\n        bool isLong; // Long or short the bond\r\n    }\r\n\r\n    // type for a european option\r\n    struct EuropeanOption {\r\n        bytes32 name;\r\n        bool isCall; //call or put\r\n        bytes32 underlying;\r\n        uint strike;\r\n        uint expiration; //date of expiration\r\n        uint price; // price of 1 contract\r\n        uint contractSize; // one contract means 100 shares\r\n        bool isLong; // Long or short the option\r\n    }\r\n\r\n    // type for a digital option (to add later)\r\n    struct DigitalOption {\r\n        bytes32 name;\r\n        bool isCall; //call or put\r\n        bytes32 underlying;\r\n        uint strike;\r\n        uint payoff;\r\n        uint expiration; //date of expiration\r\n        uint price;\r\n        uint contractSize; // one contract means 100 shares\r\n        bool isLong; // Long or short the option\r\n    }\r\n\r\n    // discription fields for the GSP note\r\n    bool isIssued; // flag for whether the note is issued\r\n    address public issuer; // address of the issuer\r\n    bytes32 name; //note name\r\n    uint public issueDate; // date of issuance of the gsp note\r\n    uint public maturity; // date of maturity of the gsp note\r\n    uint public outstandingBalance;  // total oustanding unit issued\r\n    mapping (address => uint) public balances;\r\n\r\n    // A GSP note is composed of the following:\r\n    uint commission;\r\n    // A 'ZeroCouponBond' struct\r\n    ZeroCouponBond public bond;\r\n    // A dynamically-sized array of 'EuropeanOption' structs.\r\n    EuropeanOption[] public europeanOptions;\r\n    // A dynamically-sized array of 'DigitalOption' structs.\r\n    //DigitalOption[] public digitalOption;\r\n\r\n    // Events allow light clients to react on\r\n    // changes efficiently.\r\n    event Sent(address from, address to, uint amount);\r\n\r\n    // This is the constructor whose code is\r\n    // run only when the contract is created.\r\n    constructor() public {\r\n        issuer = msg.sender;\r\n        isIssued = false;\r\n    }\r\n\r\n// ----------------------------------------------------------------------------------\r\n    // Issuer functions\r\n\r\n    // This is the new issuance part 1 - add bond\r\n    function newIssue1AddBond(\r\n                bytes32 bondName,\r\n                uint bondIssueDate,\r\n                uint bondMaturity,\r\n                uint bondYld,\r\n                uint bondPrice,\r\n                uint bondPrincipal,\r\n                bool bondLong\r\n                ) public returns(bool success){\r\n\r\n        // make sure the issuer is the one performing issuance\r\n        require(msg.sender == issuer,\r\n                \"Only the issuer can call new issue function.\"\r\n        );\r\n\r\n        // make sure the note has not been issued before\r\n        require(isIssued == false,\r\n                \"Note has been issued already, check issued note.\"\r\n        );\r\n\r\n        // Bond\r\n        bond=ZeroCouponBond({\r\n                name:           bondName,\r\n                issueDate:      bondIssueDate,\r\n                maturity:       bondMaturity,\r\n                yld:            bondYld,\r\n                price:          bondPrice,\r\n                contractSize:   bondPrincipal,\r\n                isLong:         bondLong\r\n        });\r\n\r\n        return true;\r\n    }\r\n\r\n    // This is the new issuance part 2 - add EuropeanOptions\r\n    function newIssue2AddEuropeanOptions(\r\n                bytes32[] eoName,\r\n                bool[] eoIsCall,\r\n                bytes32[] eoUnderlying,\r\n                uint[] eoStrike,\r\n                uint[] eoExpiration,\r\n                uint[] eoPrice,\r\n                uint[] eoContractSize,\r\n                bool[] eoLong\r\n                ) public returns(bool success) {\r\n\r\n        // make sure the issuer is the one performing issuance\r\n        require(msg.sender == issuer,\r\n                \"Only the issuer can call new issue function.\"\r\n        );\r\n\r\n        // make sure the note has not been issued before\r\n        require(isIssued == false,\r\n                \"Note has been issued already, check issued note.\"\r\n        );\r\n\r\n        // Need eo arrays to to have the same length\r\n        require(\r\n            eoName.length == eoIsCall.length\r\n            && eoName.length == eoUnderlying.length\r\n            && eoName.length == eoStrike.length\r\n            && eoName.length == eoExpiration.length\r\n            && eoName.length == eoPrice.length\r\n            && eoName.length == eoContractSize.length\r\n            && eoName.length == eoLong.length,\r\n            \"Array length need to match.\"\r\n        );\r\n        // EuropeanOption\r\n        // create a new EuropeanOption object and add it\r\n        // to the end of the array.\r\n        for (uint n = 0; n < eoName.length; n++) {\r\n            europeanOptions.push(EuropeanOption({\r\n                name:           eoName[n],\r\n                isCall:         eoIsCall[n],\r\n                underlying:     eoUnderlying[n],\r\n                strike:         eoStrike[n],\r\n                expiration:     eoExpiration[n],\r\n                price:          eoPrice[n],\r\n                contractSize:   eoContractSize[n],\r\n                isLong:         eoLong[n]\r\n            }));\r\n        }\r\n\r\n        return true;\r\n    }\r\n\r\n    // This is the new issuance part 3 - issue notes\r\n    function newIssue3(bytes32 notename,\r\n                uint noteIssueDate,\r\n                uint noteMaturity,\r\n                uint commissionFee,\r\n                uint amount) public returns(bool success) {\r\n\r\n        // make sure the issuer is the one performing issuance\r\n        require(msg.sender == issuer,\r\n                \"Only the issuer can call new issue function.\"\r\n        );\r\n\r\n        // make sure the note has not been issued before\r\n        require(isIssued == false,\r\n                \"Note has been issued already, check issued note.\"\r\n        );\r\n\r\n        // make sure bond is not empty\r\n        if (bond.name == 0) return;\r\n\r\n        isIssued = true;\r\n        //issuer = msg.sender;\r\n        outstandingBalance = 0;\r\n        name = notename;\r\n        issueDate = noteIssueDate;\r\n        maturity = noteMaturity;\r\n        commission = commissionFee;\r\n\r\n        // Add amount to outstanding\r\n        // Issued amount initially belongs to issuer\r\n        outstandingBalance = outstandingBalance + amount;\r\n        balances[msg.sender] += amount;\r\n\r\n        return true;\r\n    }\r\n\r\n    function additionalIssue(uint amount) public returns(bool success){\r\n        // make sure the issuer is the one performing issuance\r\n        require(msg.sender == issuer,\r\n                \"Only the issuer can call new issue function.\"\r\n        );\r\n        outstandingBalance = outstandingBalance + amount;\r\n        balances[msg.sender] += amount;\r\n        return true;\r\n    }\r\n\r\n    function updatePrice(uint newBondPrice, bytes32[] newEOName, uint[] newEOPrice) public returns(bool success){\r\n        // make sure the issuer is the one performing issuance\r\n        require(msg.sender == issuer,\r\n                \"Only the issuer can call new issue function.\"\r\n        );\r\n\r\n        // update bond price\r\n        bond.price=newBondPrice;\r\n\r\n        // update EO price\r\n        for (uint n = 0; n < newEOName.length; n++) {\r\n            for (uint i = 0; i < europeanOptions.length; i++) {\r\n                if (newEOName[n] == europeanOptions[i].name) {\r\n                    europeanOptions[i].price = newEOPrice[n];\r\n                }\r\n            }\r\n        }\r\n\r\n\r\n        return true;\r\n    }\r\n\r\n    function payContract() public payable {\r\n    }\r\n\r\n    function closeFund(uint closeDate) public returns(bool success){\r\n        // make sure the issuer is the one performing issuance\r\n        require(msg.sender == issuer,\r\n            \"Only the issuer can update price.\"\r\n        );\r\n\r\n        // Require either reach maturity or liquidated\r\n        require(closeDate >= maturity,\r\n            \"Maturity not reached yet.\"\r\n        );\r\n\r\n        // Check all units as been redeemed/send back to issuer\r\n        require(balances[issuer] == outstandingBalance,\r\n            \"Part of fund is not redeemed.\"\r\n        );\r\n\r\n        // Send remaining balance(if any) to the Issuer\r\n        uint remainingBal = address(this).balance;\r\n        issuer.transfer(remainingBal); // exclude gas?\r\n\r\n        // Set issued to false and delete all the structs\r\n        // ...\r\n\r\n        return true;\r\n    }\r\n\r\n// ----------------------------------------------------------------------------------\r\n    // user function\r\n    function sendNote(address receiver, uint amount) public returns(bool sufficient) {\r\n        // Don't allow issuer to send\r\n        // since issue's notes are not sold\r\n        // no ether to back up\r\n        // make sure the issuer is the one performing issuance\r\n        require(msg.sender != issuer,\r\n                \"Issuer cannot send GSP notes.\"\r\n        );\r\n        if (balances[msg.sender] < amount) return;\r\n        balances[msg.sender] -= amount;\r\n        balances[receiver] += amount;\r\n        emit Sent(msg.sender, receiver, amount);\r\n        return true;\r\n    }\r\n\r\n    function userGetSubscribePayable(uint amount) public view returns (uint) {\r\n        // Check note value to subscribe\r\n\r\n        // from getNav\r\n        uint nav = 0;\r\n        // Adding Bond price\r\n        if (bond.isLong) {\r\n            nav  = nav + bond.price * bond.contractSize;\r\n        }\r\n        else {\r\n            nav  = nav - bond.price * bond.contractSize;\r\n        }\r\n        //Adding EO price\r\n        for (uint i = 0; i < europeanOptions.length; i++) {\r\n            if (europeanOptions[i].isLong) {\r\n                nav  = nav + europeanOptions[i].price * europeanOptions[i].contractSize;\r\n            }\r\n            else {\r\n                nav  = nav - europeanOptions[i].price * europeanOptions[i].contractSize;\r\n            }\r\n        }\r\n\r\n        // Converstion between ETH and NAV\r\n        uint ETHpayable = (nav+commission)/100*amount;\r\n\r\n        // Check ETH balance from user\r\n        uint ETHbalance;\r\n        ETHbalance = (msg.sender).balance;\r\n        // User has to have enough ETH for subscription\r\n        require(ETHbalance >= ETHpayable,\r\n                 \"You don't have enough ETH balance\"\r\n        );\r\n\r\n        // Check GSP balance from issuer\r\n        uint GSPbalance;\r\n        GSPbalance = balances[issuer];\r\n        // Issuer has to have enough GSP note for subscription\r\n        require(GSPbalance >= amount,\r\n                \"Issuer doesn't have enough GSP notes outstanding\"\r\n        );\r\n\r\n        return (ETHpayable);\r\n    }\r\n\r\n    function userSubscribe(uint amount) public payable returns (bool) {\r\n        // Check note value to subscribe\r\n        //uint ETHpayable = userGetSubscribePayable(amount);\r\n        // require(msg.value == ETHpayable,\r\n        //         \"Send eth is not equal to payable\"\r\n        // );\r\n\r\n        // // Check ETH balance from user\r\n        // uint ETHbalance;\r\n        // ETHbalance = (msg.sender).balance;\r\n\r\n        // // User has to have enough ETH for subscription\r\n        // require(ETHbalance >= msg.value,\r\n        //          \"You don't have enough ETH balance\"\r\n        // );\r\n\r\n        // // Check GSP balance from issuer\r\n        // uint GSPbalance;\r\n        // GSPbalance = balances[issuer];\r\n\r\n        // // Issuer has to have enough GSP note for subscription\r\n        // require(GSPbalance >= amount,\r\n        //         \"Issuer doesn't have enough GSP notes outstanding\"\r\n        // );\r\n\r\n        // Method 1: issuer address hold ether -> not good\r\n        // Send equalvilent ether to the issue\r\n        //issuer.transfer(msg.value);\r\n\r\n        // Method 2: contract address hold ether\r\n        // Send equalvilent ether to the contract\r\n        // Send equalvilent commision to the issuer\r\n        uint commisionPayable = (commission)/100*amount;\r\n        issuer.transfer(commisionPayable);\r\n\r\n        // Add note units to user\r\n        balances[msg.sender] += amount;\r\n        balances[issuer] -= amount;\r\n\r\n        return true;\r\n    }\r\n\r\n    function userGetRedeemReceivable(uint amount) public view returns(uint) {\r\n        // from getNav\r\n        uint nav = 0;\r\n        // Adding Bond price\r\n        if (bond.isLong) {\r\n            nav = nav + bond.price * bond.contractSize;\r\n        }\r\n        else {\r\n            nav = nav - bond.price * bond.contractSize;\r\n        }\r\n        //Adding EO price\r\n        for (uint i = 0; i < europeanOptions.length; i++) {\r\n            if (europeanOptions[i].isLong) {\r\n                nav  = nav + europeanOptions[i].price * europeanOptions[i].contractSize;\r\n            }\r\n            else {\r\n                nav  = nav - europeanOptions[i].price * europeanOptions[i].contractSize;\r\n            }\r\n        }\r\n\r\n        // Converstion between ETH and NAV\r\n        uint ETHreceivable = nav*amount/100;\r\n\r\n        // Check GSP balance from user\r\n        uint GSPbalance;\r\n        GSPbalance = balances[msg.sender];\r\n        // Issuer has to have enough GSP note for subscription\r\n        require(GSPbalance >= amount,\r\n                \"You don't have enough GSP notes to redeem\"\r\n        );\r\n\r\n        // view redeemed value\r\n        return(ETHreceivable);\r\n    }\r\n\r\n     function userRedeem(uint amount) public returns(bool) {\r\n     // Only allow user to redeem at maturity\r\n     // Add code here ....\r\n     // Maybe allow early redemption for a penalty\r\n     // Add code here ...\r\n\r\n     // from getNav\r\n        uint nav = 0;\r\n        // Adding Bond price\r\n        if (bond.isLong) {\r\n            nav = nav + bond.price * bond.contractSize;\r\n        }\r\n        else {\r\n            nav = nav - bond.price * bond.contractSize;\r\n        }\r\n        //Adding EO price\r\n        for (uint i = 0; i < europeanOptions.length; i++) {\r\n            if (europeanOptions[i].isLong) {\r\n                nav  = nav + europeanOptions[i].price * europeanOptions[i].contractSize;\r\n            }\r\n            else {\r\n                nav  = nav - europeanOptions[i].price * europeanOptions[i].contractSize;\r\n            }\r\n        }\r\n\r\n        // Converstion between ETH and NAV\r\n        uint ETHreceivable = nav*amount/100;\r\n\r\n        // Check GSP balance from user\r\n        uint GSPbalance;\r\n        GSPbalance = balances[msg.sender];\r\n        // Issuer has to have enough GSP note for subscription\r\n        require(GSPbalance >= amount,\r\n                \"You don't have enough GSP notes to redeem\"\r\n        );\r\n\r\n        // Send equalvilent ether to issuer\r\n        (msg.sender).transfer(ETHreceivable);\r\n\r\n        // Add note units to issuer\r\n        balances[issuer] += amount;\r\n        balances[msg.sender] -= amount;\r\n\r\n        return true;\r\n     }\r\n// ----------------------------------------------------------------------------------\r\n    // For display information\r\n    function getIfIssued() public view returns (bool) {\r\n        return isIssued;\r\n    }\r\n\r\n    function getOutstanding() public view returns (uint) {\r\n        return outstandingBalance;\r\n    }\r\n\r\n    function getContractETHBalance() public view returns (uint) {\r\n        return (address(this).balance);\r\n    }\r\n\r\n    function getIssuer() public view returns (address) {\r\n        return issuer;\r\n    }\r\n\r\n    function getNoteName() public view returns (bytes32) {\r\n        return name;\r\n    }\r\n\r\n    function getIssueDate() public view returns (uint) {\r\n        return issueDate;\r\n    }\r\n\r\n    function getMaturity() public view returns (uint) {\r\n        return maturity;\r\n    }\r\n\r\n    function getNoteBalance() public view returns (uint) {\r\n        return balances[msg.sender];\r\n    }\r\n\r\n    function getBond() public view returns (bytes32 bondName,uint bondContractSize,bool bondIsLong,uint bondPrice) {\r\n        return (bond.name,bond.contractSize,bond.isLong,bond.price);\r\n    }\r\n\r\n    function getEuropeanOption() public view\r\n    returns (bytes32[] memory _eoName,uint[] _eoContractSize,bool[] _eoIsLong,uint[] _eoPrice) {\r\n        uint length = europeanOptions.length;\r\n        bytes32[] memory eoName = new bytes32[](length);\r\n        uint[] memory eoContractSize = new uint[](length);\r\n        bool[] memory eoIsLong = new bool[](length);\r\n        uint[] memory eoPrice = new uint[](length);\r\n        for (uint i = 0; i < europeanOptions.length; i++) {\r\n            eoName[i]=europeanOptions[i].name;\r\n            eoContractSize[i]=europeanOptions[i].contractSize;\r\n            eoIsLong[i]=europeanOptions[i].isLong;\r\n            eoPrice[i]==europeanOptions[i].price;\r\n        }\r\n        return (eoName,eoContractSize,eoIsLong,eoPrice);\r\n    }\r\n\r\n    function getNAV() public view returns (uint) {\r\n        uint nav = 0;\r\n        // Adding Bond price\r\n        if (bond.isLong) {\r\n            nav  = nav + bond.price * bond.contractSize;\r\n        }\r\n        else {\r\n            nav  = nav - bond.price * bond.contractSize;\r\n        }\r\n\r\n        //Adding EO price\r\n        for (uint i = 0; i < europeanOptions.length; i++) {\r\n            if (europeanOptions[i].isLong) {\r\n                nav  = nav + europeanOptions[i].price * europeanOptions[i].contractSize;\r\n            }\r\n            else {\r\n                nav  = nav - europeanOptions[i].price * europeanOptions[i].contractSize;\r\n            }\r\n        }\r\n        return nav;\r\n    }\r\n\r\n}\r\n",
  "sourcePath": "C:\\Users\\jzqav\\CoinCapitalMarkets\\contracts\\GSP.sol",
  "compiler": {
    "name": "solc",
    "version": "0.4.24+commit.e67f0147.Emscripten.clang"
  },
  "schemaVersion": "2.0.1",
  "updatedAt": "2018-09-17T23:10:14.568Z"
}