{
  "contractName": "IDX",
  "abi": [
    {
      "constant": true,
      "inputs": [],
      "name": "getNAV",
      "outputs": [
        {
          "name": "",
          "type": "uint256"
        }
      ],
      "payable": false,
      "stateMutability": "view",
      "type": "function"
    },
    {
      "constant": true,
      "inputs": [],
      "name": "issuer",
      "outputs": [
        {
          "name": "",
          "type": "address"
        }
      ],
      "payable": false,
      "stateMutability": "view",
      "type": "function"
    },
    {
      "constant": true,
      "inputs": [
        {
          "name": "amount",
          "type": "uint256"
        }
      ],
      "name": "userGetSubscribePayable",
      "outputs": [
        {
          "name": "",
          "type": "uint256"
        }
      ],
      "payable": false,
      "stateMutability": "view",
      "type": "function"
    },
    {
      "constant": true,
      "inputs": [
        {
          "name": "",
          "type": "address"
        }
      ],
      "name": "balances",
      "outputs": [
        {
          "name": "",
          "type": "uint256"
        }
      ],
      "payable": false,
      "stateMutability": "view",
      "type": "function"
    },
    {
      "constant": true,
      "inputs": [],
      "name": "outstandingBalance",
      "outputs": [
        {
          "name": "",
          "type": "uint256"
        }
      ],
      "payable": false,
      "stateMutability": "view",
      "type": "function"
    },
    {
      "constant": true,
      "inputs": [],
      "name": "decimals",
      "outputs": [
        {
          "name": "",
          "type": "uint8"
        }
      ],
      "payable": false,
      "stateMutability": "view",
      "type": "function"
    },
    {
      "constant": false,
      "inputs": [
        {
          "name": "receiver",
          "type": "address"
        },
        {
          "name": "amount",
          "type": "uint256"
        }
      ],
      "name": "sendFund",
      "outputs": [
        {
          "name": "sufficient",
          "type": "bool"
        }
      ],
      "payable": false,
      "stateMutability": "nonpayable",
      "type": "function"
    },
    {
      "constant": true,
      "inputs": [],
      "name": "getIssuer",
      "outputs": [
        {
          "name": "",
          "type": "address"
        }
      ],
      "payable": false,
      "stateMutability": "view",
      "type": "function"
    },
    {
      "constant": false,
      "inputs": [],
      "name": "acceptOwnership",
      "outputs": [],
      "payable": false,
      "stateMutability": "nonpayable",
      "type": "function"
    },
    {
      "constant": true,
      "inputs": [],
      "name": "getOutstanding",
      "outputs": [
        {
          "name": "",
          "type": "uint256"
        }
      ],
      "payable": false,
      "stateMutability": "view",
      "type": "function"
    },
    {
      "constant": true,
      "inputs": [
        {
          "name": "",
          "type": "uint256"
        }
      ],
      "name": "basket",
      "outputs": [
        {
          "name": "name",
          "type": "bytes32"
        },
        {
          "name": "amount",
          "type": "uint256"
        },
        {
          "name": "price",
          "type": "uint256"
        }
      ],
      "payable": false,
      "stateMutability": "view",
      "type": "function"
    },
    {
      "constant": true,
      "inputs": [],
      "name": "getContractETHBalance",
      "outputs": [
        {
          "name": "",
          "type": "uint256"
        }
      ],
      "payable": false,
      "stateMutability": "view",
      "type": "function"
    },
    {
      "constant": true,
      "inputs": [],
      "name": "owner",
      "outputs": [
        {
          "name": "",
          "type": "address"
        }
      ],
      "payable": false,
      "stateMutability": "view",
      "type": "function"
    },
    {
      "constant": true,
      "inputs": [],
      "name": "getNAVwithFeeDeducted",
      "outputs": [
        {
          "name": "",
          "type": "uint256"
        }
      ],
      "payable": false,
      "stateMutability": "view",
      "type": "function"
    },
    {
      "constant": false,
      "inputs": [
        {
          "name": "amount",
          "type": "uint256"
        }
      ],
      "name": "userRedeem",
      "outputs": [
        {
          "name": "",
          "type": "bool"
        }
      ],
      "payable": false,
      "stateMutability": "nonpayable",
      "type": "function"
    },
    {
      "constant": true,
      "inputs": [],
      "name": "getFundName",
      "outputs": [
        {
          "name": "",
          "type": "bytes32"
        }
      ],
      "payable": false,
      "stateMutability": "view",
      "type": "function"
    },
    {
      "constant": true,
      "inputs": [],
      "name": "symbol_",
      "outputs": [
        {
          "name": "",
          "type": "string"
        }
      ],
      "payable": false,
      "stateMutability": "view",
      "type": "function"
    },
    {
      "constant": false,
      "inputs": [
        {
          "name": "underlyingName",
          "type": "bytes32[]"
        },
        {
          "name": "newPrice",
          "type": "uint256[]"
        }
      ],
      "name": "updatePrice",
      "outputs": [
        {
          "name": "success",
          "type": "bool"
        }
      ],
      "payable": false,
      "stateMutability": "nonpayable",
      "type": "function"
    },
    {
      "constant": false,
      "inputs": [
        {
          "name": "amount",
          "type": "uint256"
        }
      ],
      "name": "additionalIssue",
      "outputs": [
        {
          "name": "success",
          "type": "bool"
        }
      ],
      "payable": false,
      "stateMutability": "nonpayable",
      "type": "function"
    },
    {
      "constant": true,
      "inputs": [],
      "name": "getIfIssued",
      "outputs": [
        {
          "name": "",
          "type": "bool"
        }
      ],
      "payable": false,
      "stateMutability": "view",
      "type": "function"
    },
    {
      "constant": true,
      "inputs": [],
      "name": "getBasket",
      "outputs": [
        {
          "name": "_name",
          "type": "bytes32[]"
        },
        {
          "name": "_amount",
          "type": "uint256[]"
        },
        {
          "name": "_price",
          "type": "uint256[]"
        }
      ],
      "payable": false,
      "stateMutability": "view",
      "type": "function"
    },
    {
      "constant": true,
      "inputs": [
        {
          "name": "amount",
          "type": "uint256"
        }
      ],
      "name": "userGetRedeemReceivable",
      "outputs": [
        {
          "name": "",
          "type": "uint256"
        }
      ],
      "payable": false,
      "stateMutability": "view",
      "type": "function"
    },
    {
      "constant": true,
      "inputs": [],
      "name": "newOwner",
      "outputs": [
        {
          "name": "",
          "type": "address"
        }
      ],
      "payable": false,
      "stateMutability": "view",
      "type": "function"
    },
    {
      "constant": true,
      "inputs": [],
      "name": "getFundBalance",
      "outputs": [
        {
          "name": "",
          "type": "uint256"
        }
      ],
      "payable": false,
      "stateMutability": "view",
      "type": "function"
    },
    {
      "constant": false,
      "inputs": [
        {
          "name": "underlyingName",
          "type": "bytes32[]"
        },
        {
          "name": "underlyingWeight",
          "type": "uint256[]"
        },
        {
          "name": "underlyingPrice",
          "type": "uint256[]"
        },
        {
          "name": "basePrice",
          "type": "uint256"
        }
      ],
      "name": "rebalance",
      "outputs": [],
      "payable": false,
      "stateMutability": "nonpayable",
      "type": "function"
    },
    {
      "constant": false,
      "inputs": [
        {
          "name": "amount",
          "type": "uint256"
        }
      ],
      "name": "userSubscribe",
      "outputs": [
        {
          "name": "",
          "type": "bool"
        }
      ],
      "payable": true,
      "stateMutability": "payable",
      "type": "function"
    },
    {
      "constant": true,
      "inputs": [],
      "name": "name_",
      "outputs": [
        {
          "name": "",
          "type": "string"
        }
      ],
      "payable": false,
      "stateMutability": "view",
      "type": "function"
    },
    {
      "constant": false,
      "inputs": [],
      "name": "closeFund",
      "outputs": [
        {
          "name": "success",
          "type": "bool"
        }
      ],
      "payable": false,
      "stateMutability": "nonpayable",
      "type": "function"
    },
    {
      "constant": false,
      "inputs": [
        {
          "name": "underlyingName",
          "type": "bytes32[]"
        },
        {
          "name": "underlyingWeight",
          "type": "uint256[]"
        },
        {
          "name": "underlyingPrice",
          "type": "uint256[]"
        },
        {
          "name": "basePrice",
          "type": "uint256"
        },
        {
          "name": "name",
          "type": "bytes32"
        },
        {
          "name": "issuingDate",
          "type": "bytes32"
        },
        {
          "name": "managementFee",
          "type": "uint256"
        },
        {
          "name": "amount",
          "type": "uint256"
        }
      ],
      "name": "newIssue",
      "outputs": [
        {
          "name": "success",
          "type": "bool"
        }
      ],
      "payable": false,
      "stateMutability": "nonpayable",
      "type": "function"
    },
    {
      "constant": false,
      "inputs": [],
      "name": "payContract",
      "outputs": [],
      "payable": true,
      "stateMutability": "payable",
      "type": "function"
    },
    {
      "constant": false,
      "inputs": [
        {
          "name": "_newOwner",
          "type": "address"
        }
      ],
      "name": "transferOwnership",
      "outputs": [],
      "payable": false,
      "stateMutability": "nonpayable",
      "type": "function"
    },
    {
      "inputs": [],
      "payable": false,
      "stateMutability": "nonpayable",
      "type": "constructor"
    },
    {
      "anonymous": false,
      "inputs": [
        {
          "indexed": true,
          "name": "_from",
          "type": "address"
        },
        {
          "indexed": true,
          "name": "_to",
          "type": "address"
        }
      ],
      "name": "OwnershipTransferred",
      "type": "event"
    },
    {
      "anonymous": false,
      "inputs": [
        {
          "indexed": true,
          "name": "from",
          "type": "address"
        },
        {
          "indexed": true,
          "name": "to",
          "type": "address"
        },
        {
          "indexed": false,
          "name": "tokens",
          "type": "uint256"
        }
      ],
      "name": "Transfer",
      "type": "event"
    },
    {
      "anonymous": false,
      "inputs": [
        {
          "indexed": true,
          "name": "tokenOwner",
          "type": "address"
        },
        {
          "indexed": true,
          "name": "spender",
          "type": "address"
        },
        {
          "indexed": false,
          "name": "tokens",
          "type": "uint256"
        }
      ],
      "name": "Approval",
      "type": "event"
    },
    {
      "anonymous": false,
      "inputs": [
        {
          "indexed": false,
          "name": "from",
          "type": "address"
        },
        {
          "indexed": false,
          "name": "to",
          "type": "address"
        },
        {
          "indexed": false,
          "name": "amount",
          "type": "uint256"
        }
      ],
      "name": "Sent",
      "type": "event"
    },
    {
      "constant": true,
      "inputs": [],
      "name": "name",
      "outputs": [
        {
          "name": "",
          "type": "string"
        }
      ],
      "payable": false,
      "stateMutability": "view",
      "type": "function"
    },
    {
      "constant": true,
      "inputs": [],
      "name": "symbol",
      "outputs": [
        {
          "name": "",
          "type": "string"
        }
      ],
      "payable": false,
      "stateMutability": "view",
      "type": "function"
    },
    {
      "constant": true,
      "inputs": [],
      "name": "totalSupply",
      "outputs": [
        {
          "name": "",
          "type": "uint256"
        }
      ],
      "payable": false,
      "stateMutability": "view",
      "type": "function"
    },
    {
      "constant": true,
      "inputs": [
        {
          "name": "_owner",
          "type": "address"
        }
      ],
      "name": "balanceOf",
      "outputs": [
        {
          "name": "_balance",
          "type": "uint256"
        }
      ],
      "payable": false,
      "stateMutability": "view",
      "type": "function"
    },
    {
      "constant": false,
      "inputs": [
        {
          "name": "to",
          "type": "address"
        },
        {
          "name": "tokens",
          "type": "uint256"
        }
      ],
      "name": "transfer",
      "outputs": [
        {
          "name": "success",
          "type": "bool"
        }
      ],
      "payable": false,
      "stateMutability": "nonpayable",
      "type": "function"
    },
    {
      "constant": false,
      "inputs": [
        {
          "name": "spender",
          "type": "address"
        },
        {
          "name": "tokens",
          "type": "uint256"
        }
      ],
      "name": "approve",
      "outputs": [
        {
          "name": "success",
          "type": "bool"
        }
      ],
      "payable": false,
      "stateMutability": "nonpayable",
      "type": "function"
    },
    {
      "constant": false,
      "inputs": [
        {
          "name": "from",
          "type": "address"
        },
        {
          "name": "to",
          "type": "address"
        },
        {
          "name": "tokens",
          "type": "uint256"
        }
      ],
      "name": "transferFrom",
      "outputs": [
        {
          "name": "success",
          "type": "bool"
        }
      ],
      "payable": false,
      "stateMutability": "nonpayable",
      "type": "function"
    },
    {
      "constant": true,
      "inputs": [
        {
          "name": "tokenOwner",
          "type": "address"
        },
        {
          "name": "spender",
          "type": "address"
        }
      ],
      "name": "allowance",
      "outputs": [
        {
          "name": "remaining",
          "type": "uint256"
        }
      ],
      "payable": false,
      "stateMutability": "view",
      "type": "function"
    },
    {
      "constant": false,
      "inputs": [
        {
          "name": "spender",
          "type": "address"
        },
        {
          "name": "tokens",
          "type": "uint256"
        },
        {
          "name": "data",
          "type": "bytes"
        }
      ],
      "name": "approveAndCall",
      "outputs": [
        {
          "name": "success",
          "type": "bool"
        }
      ],
      "payable": false,
      "stateMutability": "nonpayable",
      "type": "function"
    }
  ],
  "bytecode": "0x60806040523480156200001157600080fd5b50336001806101000a81548173ffffffffffffffffffffffffffffffffffffffff021916908373ffffffffffffffffffffffffffffffffffffffff1602179055506000600160006101000a81548160ff02191690831515021790555033600760006101000a81548173ffffffffffffffffffffffffffffffffffffffff021916908373ffffffffffffffffffffffffffffffffffffffff160217905550336001806101000a81548173ffffffffffffffffffffffffffffffffffffffff021916908373ffffffffffffffffffffffffffffffffffffffff1602179055506000600160006101000a81548160ff0219169083151502179055506040805190810160405280600781526020017f49445854657374000000000000000000000000000000000000000000000000008152506009908051906020019062000156929190620001c7565b506040805190810160405280601381526020017f43434d2049445820546f6b656e20546573743100000000000000000000000000815250600a9080519060200190620001a4929190620001c7565b506012600b60006101000a81548160ff021916908360ff16021790555062000276565b828054600181600116156101000203166002900490600052602060002090601f016020900481019282601f106200020a57805160ff19168380011785556200023b565b828001600101855582156200023b579182015b828111156200023a5782518255916020019190600101906200021d565b5b5090506200024a91906200024e565b5090565b6200027391905b808211156200026f57600081600090555060010162000255565b5090565b90565b6138e280620002866000396000f3006080604052600436106101ee576000357c0100000000000000000000000000000000000000000000000000000000900463ffffffff1680630126c606146101f357806306fdde031461021e578063095ea7b3146102ae57806318160ddd146103135780631d1438481461033e57806323b872dd14610395578063277b35a11461041a57806327e235e31461045b5780633133f2a7146104b2578063313ce567146104dd5780634b5694501461050e578063525564211461057357806370a08231146105ca57806379ba5097146106215780637a4ee555146106385780638c7e0875146106635780638c89a0ad146106ba5780638da5cb5b146106e5578063941af1e81461073c57806395d89b4114610767578063a3046b94146107f7578063a87fe87e1461083c578063a9059cbb1461086f578063af17dea6146108d4578063b2bffcc314610964578063b369f42314610a25578063be57384b14610a6a578063cae9ca5114610a99578063cd6ef2b014610b44578063cdbd071114610c40578063d4ee1d9014610c81578063dae9e37914610cd8578063dd62ed3e14610d03578063e0c8f52014610d7a578063e0ded77614610e70578063e2b9e18614610ea8578063e3a1c6fe14610f38578063eb28121a14610f67578063ecb0b862146110a5578063f2fde38b146110af575b600080fd5b3480156101ff57600080fd5b506102086110f2565b6040518082815260200191505060405180910390f35b34801561022a57600080fd5b50610233611184565b6040518080602001828103825283818151815260200191508051906020019080838360005b83811015610273578082015181840152602081019050610258565b50505050905090810190601f1680156102a05780820380516001836020036101000a031916815260200191505b509250505060405180910390f35b3480156102ba57600080fd5b506102f9600480360381019080803573ffffffffffffffffffffffffffffffffffffffff16906020019092919080359060200190929190505050611226565b604051808215151515815260200191505060405180910390f35b34801561031f57600080fd5b50610328611318565b6040518082815260200191505060405180910390f35b34801561034a57600080fd5b50610353611339565b604051808273ffffffffffffffffffffffffffffffffffffffff1673ffffffffffffffffffffffffffffffffffffffff16815260200191505060405180910390f35b3480156103a157600080fd5b50610400600480360381019080803573ffffffffffffffffffffffffffffffffffffffff169060200190929190803573ffffffffffffffffffffffffffffffffffffffff1690602001909291908035906020019092919050505061135e565b604051808215151515815260200191505060405180910390f35b34801561042657600080fd5b5061044560048036038101908080359060200190929190505050611609565b6040518082815260200191505060405180910390f35b34801561046757600080fd5b5061049c600480360381019080803573ffffffffffffffffffffffffffffffffffffffff1690602001909291905050506117e5565b6040518082815260200191505060405180910390f35b3480156104be57600080fd5b506104c76117fd565b6040518082815260200191505060405180910390f35b3480156104e957600080fd5b506104f2611803565b604051808260ff1660ff16815260200191505060405180910390f35b34801561051a57600080fd5b50610559600480360381019080803573ffffffffffffffffffffffffffffffffffffffff16906020019092919080359060200190929190505050611816565b604051808215151515815260200191505060405180910390f35b34801561057f57600080fd5b50610588611a6d565b604051808273ffffffffffffffffffffffffffffffffffffffff1673ffffffffffffffffffffffffffffffffffffffff16815260200191505060405180910390f35b3480156105d657600080fd5b5061060b600480360381019080803573ffffffffffffffffffffffffffffffffffffffff169060200190929190505050611a96565b6040518082815260200191505060405180910390f35b34801561062d57600080fd5b50610636611adf565b005b34801561064457600080fd5b5061064d611c80565b6040518082815260200191505060405180910390f35b34801561066f57600080fd5b5061068e60048036038101908080359060200190929190505050611c8a565b604051808460001916600019168152602001838152602001828152602001935050505060405180910390f35b3480156106c657600080fd5b506106cf611cc3565b6040518082815260200191505060405180910390f35b3480156106f157600080fd5b506106fa611ce2565b604051808273ffffffffffffffffffffffffffffffffffffffff1673ffffffffffffffffffffffffffffffffffffffff16815260200191505060405180910390f35b34801561074857600080fd5b50610751611d08565b6040518082815260200191505060405180910390f35b34801561077357600080fd5b5061077c611db0565b6040518080602001828103825283818151815260200191508051906020019080838360005b838110156107bc5780820151818401526020810190506107a1565b50505050905090810190601f1680156107e95780820380516001836020036101000a031916815260200191505b509250505060405180910390f35b34801561080357600080fd5b5061082260048036038101908080359060200190929190505050611e52565b604051808215151515815260200191505060405180910390f35b34801561084857600080fd5b50610851612055565b60405180826000191660001916815260200191505060405180910390f35b34801561087b57600080fd5b506108ba600480360381019080803573ffffffffffffffffffffffffffffffffffffffff1690602001909291908035906020019092919050505061205f565b604051808215151515815260200191505060405180910390f35b3480156108e057600080fd5b506108e96121fa565b6040518080602001828103825283818151815260200191508051906020019080838360005b8381101561092957808201518184015260208101905061090e565b50505050905090810190601f1680156109565780820380516001836020036101000a031916815260200191505b509250505060405180910390f35b34801561097057600080fd5b50610a0b6004803603810190808035906020019082018035906020019080806020026020016040519081016040528093929190818152602001838360200280828437820191505050505050919291929080359060200190820180359060200190808060200260200160405190810160405280939291908181526020018383602002808284378201915050505050509192919290505050612298565b604051808215151515815260200191505060405180910390f35b348015610a3157600080fd5b50610a5060048036038101908080359060200190929190505050612451565b604051808215151515815260200191505060405180910390f35b348015610a7657600080fd5b50610a7f61259e565b604051808215151515815260200191505060405180910390f35b348015610aa557600080fd5b50610b2a600480360381019080803573ffffffffffffffffffffffffffffffffffffffff16906020019092919080359060200190929190803590602001908201803590602001908080601f01602080910402602001604051908101604052809392919081815260200183838082843782019150505050505091929192905050506125b5565b604051808215151515815260200191505060405180910390f35b348015610b5057600080fd5b50610b59612804565b60405180806020018060200180602001848103845287818151815260200191508051906020019060200280838360005b83811015610ba4578082015181840152602081019050610b89565b50505050905001848103835286818151815260200191508051906020019060200280838360005b83811015610be6578082015181840152602081019050610bcb565b50505050905001848103825285818151815260200191508051906020019060200280838360005b83811015610c28578082015181840152602081019050610c0d565b50505050905001965050505050505060405180910390f35b348015610c4c57600080fd5b50610c6b600480360381019080803590602001909291905050506129a2565b6040518082815260200191505060405180910390f35b348015610c8d57600080fd5b50610c96612aa2565b604051808273ffffffffffffffffffffffffffffffffffffffff1673ffffffffffffffffffffffffffffffffffffffff16815260200191505060405180910390f35b348015610ce457600080fd5b50610ced612ac8565b6040518082815260200191505060405180910390f35b348015610d0f57600080fd5b50610d64600480360381019080803573ffffffffffffffffffffffffffffffffffffffff169060200190929190803573ffffffffffffffffffffffffffffffffffffffff169060200190929190505050612b0f565b6040518082815260200191505060405180910390f35b348015610d8657600080fd5b50610e6e60048036038101908080359060200190820180359060200190808060200260200160405190810160405280939291908181526020018383602002808284378201915050505050509192919290803590602001908201803590602001908080602002602001604051908101604052809392919081815260200183836020028082843782019150505050505091929192908035906020019082018035906020019080806020026020016040519081016040528093929190818152602001838360200280828437820191505050505050919291929080359060200190929190505050612b96565b005b610e8e60048036038101908080359060200190929190505050612eda565b604051808215151515815260200191505060405180910390f35b348015610eb457600080fd5b50610ebd61305a565b6040518080602001828103825283818151815260200191508051906020019080838360005b83811015610efd578082015181840152602081019050610ee2565b50505050905090810190601f168015610f2a5780820380516001836020036101000a031916815260200191505b509250505060405180910390f35b348015610f4457600080fd5b50610f4d6130f8565b604051808215151515815260200191505060405180910390f35b348015610f7357600080fd5b5061108b60048036038101908080359060200190820180359060200190808060200260200160405190810160405280939291908181526020018383602002808284378201915050505050509192919290803590602001908201803590602001908080602002602001604051908101604052809392919081815260200183836020028082843782019150505050505091929192908035906020019082018035906020019080806020026020016040519081016040528093929190818152602001838360200280828437820191505050505050919291929080359060200190929190803560001916906020019092919080356000191690602001909291908035906020019092919080359060200190929190505050613363565b604051808215151515815260200191505060405180910390f35b6110ad613773565b005b3480156110bb57600080fd5b506110f0600480360381019080803573ffffffffffffffffffffffffffffffffffffffff169060200190929190505050613775565b005b60008060008060009250670de0b6b3a76400009150600090505b60008054905081101561116d5760008181548110151561112857fe5b90600052602060002090600302016001015460008281548110151561114957fe5b9060005260206000209060030201600201540283019250808060010191505061110c565b818381151561117857fe5b04925082935050505090565b6060600a8054600181600116156101000203166002900480601f01602080910402602001604051908101604052809291908181526020018280546001816001161561010002031660029004801561121c5780601f106111f15761010080835404028352916020019161121c565b820191906000526020600020905b8154815290600101906020018083116111ff57829003601f168201915b5050505050905090565b600081600c60003373ffffffffffffffffffffffffffffffffffffffff1673ffffffffffffffffffffffffffffffffffffffff16815260200190815260200160002060008573ffffffffffffffffffffffffffffffffffffffff1673ffffffffffffffffffffffffffffffffffffffff168152602001908152602001600020819055508273ffffffffffffffffffffffffffffffffffffffff163373ffffffffffffffffffffffffffffffffffffffff167f8c5be1e5ebec7d5bd14f71427d1e84f3dd0314c0f7b2291e5b200ac8c7c3b925846040518082815260200191505060405180910390a36001905092915050565b6000600b60009054906101000a900460ff1660ff16600a0a60055402905090565b6001809054906101000a900473ffffffffffffffffffffffffffffffffffffffff1681565b60006113b282600660008773ffffffffffffffffffffffffffffffffffffffff1673ffffffffffffffffffffffffffffffffffffffff1681526020019081526020016000205461381590919063ffffffff16565b600660008673ffffffffffffffffffffffffffffffffffffffff1673ffffffffffffffffffffffffffffffffffffffff1681526020019081526020016000208190555061148482600c60008773ffffffffffffffffffffffffffffffffffffffff1673ffffffffffffffffffffffffffffffffffffffff16815260200190815260200160002060003373ffffffffffffffffffffffffffffffffffffffff1673ffffffffffffffffffffffffffffffffffffffff1681526020019081526020016000205461381590919063ffffffff16565b600c60008673ffffffffffffffffffffffffffffffffffffffff1673ffffffffffffffffffffffffffffffffffffffff16815260200190815260200160002060003373ffffffffffffffffffffffffffffffffffffffff1673ffffffffffffffffffffffffffffffffffffffff1681526020019081526020016000208190555061155682600660008673ffffffffffffffffffffffffffffffffffffffff1673ffffffffffffffffffffffffffffffffffffffff1681526020019081526020016000205461383190919063ffffffff16565b600660008573ffffffffffffffffffffffffffffffffffffffff1673ffffffffffffffffffffffffffffffffffffffff168152602001908152602001600020819055508273ffffffffffffffffffffffffffffffffffffffff168473ffffffffffffffffffffffffffffffffffffffff167fddf252ad1be2c89b69c2b068fc378daa952ba7f163c4a11628f55a4df523b3ef846040518082815260200191505060405180910390a3600190509392505050565b60008060008060006116196110f2565b935085840292503373ffffffffffffffffffffffffffffffffffffffff163191508282101515156116d8576040517f08c379a00000000000000000000000000000000000000000000000000000000081526004018080602001828103825260218152602001807f596f7520646f6e2774206861766520656e6f756768204554482062616c616e6381526020017f650000000000000000000000000000000000000000000000000000000000000081525060400191505060405180910390fd5b600660006001809054906101000a900473ffffffffffffffffffffffffffffffffffffffff1673ffffffffffffffffffffffffffffffffffffffff1673ffffffffffffffffffffffffffffffffffffffff1681526020019081526020016000205490508581101515156117d9576040517f08c379a00000000000000000000000000000000000000000000000000000000081526004018080602001828103825260308152602001807f49737375657220646f65736e2774206861766520656e6f75676820475350206e81526020017f6f746573206f75747374616e64696e670000000000000000000000000000000081525060400191505060405180910390fd5b82945050505050919050565b60066020528060005260406000206000915090505481565b60055481565b600b60009054906101000a900460ff1681565b60006001809054906101000a900473ffffffffffffffffffffffffffffffffffffffff1673ffffffffffffffffffffffffffffffffffffffff163373ffffffffffffffffffffffffffffffffffffffff16141515156118dd576040517f08c379a00000000000000000000000000000000000000000000000000000000081526004018080602001828103825260188152602001807f4973737565722063616e6e6f742073656e642066756e642e000000000000000081525060200191505060405180910390fd5b81600660003373ffffffffffffffffffffffffffffffffffffffff1673ffffffffffffffffffffffffffffffffffffffff16815260200190815260200160002054101561192957611a67565b81600660003373ffffffffffffffffffffffffffffffffffffffff1673ffffffffffffffffffffffffffffffffffffffff1681526020019081526020016000206000828254039250508190555081600660008573ffffffffffffffffffffffffffffffffffffffff1673ffffffffffffffffffffffffffffffffffffffff168152602001908152602001600020600082825401925050819055507f3990db2d31862302a685e8086b5755072a6e2b5b780af1ee81ece35ee3cd3345338484604051808473ffffffffffffffffffffffffffffffffffffffff1673ffffffffffffffffffffffffffffffffffffffff1681526020018373ffffffffffffffffffffffffffffffffffffffff1673ffffffffffffffffffffffffffffffffffffffff168152602001828152602001935050505060405180910390a1600190505b92915050565b60006001809054906101000a900473ffffffffffffffffffffffffffffffffffffffff16905090565b6000600660008373ffffffffffffffffffffffffffffffffffffffff1673ffffffffffffffffffffffffffffffffffffffff168152602001908152602001600020549050919050565b600860009054906101000a900473ffffffffffffffffffffffffffffffffffffffff1673ffffffffffffffffffffffffffffffffffffffff163373ffffffffffffffffffffffffffffffffffffffff16141515611b3b57600080fd5b600860009054906101000a900473ffffffffffffffffffffffffffffffffffffffff1673ffffffffffffffffffffffffffffffffffffffff16600760009054906101000a900473ffffffffffffffffffffffffffffffffffffffff1673ffffffffffffffffffffffffffffffffffffffff167f8be0079c531659141344cd1fd0a4f28419497f9722a3daafe3b4186f6b6457e060405160405180910390a3600860009054906101000a900473ffffffffffffffffffffffffffffffffffffffff16600760006101000a81548173ffffffffffffffffffffffffffffffffffffffff021916908373ffffffffffffffffffffffffffffffffffffffff1602179055506000600860006101000a81548173ffffffffffffffffffffffffffffffffffffffff021916908373ffffffffffffffffffffffffffffffffffffffff160217905550565b6000600554905090565b600081815481101515611c9957fe5b90600052602060002090600302016000915090508060000154908060010154908060020154905083565b60003073ffffffffffffffffffffffffffffffffffffffff1631905090565b600760009054906101000a900473ffffffffffffffffffffffffffffffffffffffff1681565b6000806000806000809350670de0b6b3a76400009250600091505b600080549050821015611d8457600082815481101515611d3f57fe5b906000526020600020906003020160010154600083815481101515611d6057fe5b90600052602060002090600302016002015402840193508180600101925050611d23565b8284811515611d8f57fe5b049350826004548502811515611da157fe5b04905080840394505050505090565b606060098054600181600116156101000203166002900480601f016020809104026020016040519081016040528092919081815260200182805460018160011615610100020316600290048015611e485780601f10611e1d57610100808354040283529160200191611e48565b820191906000526020600020905b815481529060010190602001808311611e2b57829003601f168201915b5050505050905090565b600080600080611e60611d08565b92508483029150600660003373ffffffffffffffffffffffffffffffffffffffff1673ffffffffffffffffffffffffffffffffffffffff168152602001908152602001600020549050848110151515611f47576040517f08c379a00000000000000000000000000000000000000000000000000000000081526004018080602001828103825260258152602001807f5573657220646f6e2774206861766520656e6f7567682066756e6420746f207281526020017f656465656d00000000000000000000000000000000000000000000000000000081525060400191505060405180910390fd5b3373ffffffffffffffffffffffffffffffffffffffff166108fc839081150290604051600060405180830381858888f19350505050158015611f8d573d6000803e3d6000fd5b5084600660006001809054906101000a900473ffffffffffffffffffffffffffffffffffffffff1673ffffffffffffffffffffffffffffffffffffffff1673ffffffffffffffffffffffffffffffffffffffff1681526020019081526020016000206000828254019250508190555084600660003373ffffffffffffffffffffffffffffffffffffffff1673ffffffffffffffffffffffffffffffffffffffff1681526020019081526020016000206000828254039250508190555060019350505050919050565b6000600254905090565b60006120b382600660003373ffffffffffffffffffffffffffffffffffffffff1673ffffffffffffffffffffffffffffffffffffffff1681526020019081526020016000205461381590919063ffffffff16565b600660003373ffffffffffffffffffffffffffffffffffffffff1673ffffffffffffffffffffffffffffffffffffffff1681526020019081526020016000208190555061214882600660008673ffffffffffffffffffffffffffffffffffffffff1673ffffffffffffffffffffffffffffffffffffffff1681526020019081526020016000205461383190919063ffffffff16565b600660008573ffffffffffffffffffffffffffffffffffffffff1673ffffffffffffffffffffffffffffffffffffffff168152602001908152602001600020819055508273ffffffffffffffffffffffffffffffffffffffff163373ffffffffffffffffffffffffffffffffffffffff167fddf252ad1be2c89b69c2b068fc378daa952ba7f163c4a11628f55a4df523b3ef846040518082815260200191505060405180910390a36001905092915050565b60098054600181600116156101000203166002900480601f0160208091040260200160405190810160405280929190818152602001828054600181600116156101000203166002900480156122905780601f1061226557610100808354040283529160200191612290565b820191906000526020600020905b81548152906001019060200180831161227357829003601f168201915b505050505081565b60008060006001809054906101000a900473ffffffffffffffffffffffffffffffffffffffff1673ffffffffffffffffffffffffffffffffffffffff163373ffffffffffffffffffffffffffffffffffffffff16141515612387576040517f08c379a000000000000000000000000000000000000000000000000000000000815260040180806020018281038252602c8152602001807f4f6e6c7920746865206973737565722063616e2063616c6c206e65772069737381526020017f75652066756e6374696f6e2e000000000000000000000000000000000000000081525060400191505060405180910390fd5b600091505b845182101561244557600090505b600080549050811015612438576000818154811015156123b657fe5b9060005260206000209060030201600001546000191685838151811015156123da57fe5b9060200190602002015160001916141561242b5783828151811015156123fc57fe5b9060200190602002015160008281548110151561241557fe5b9060005260206000209060030201600201819055505b808060010191505061239a565b818060010192505061238c565b60019250505092915050565b60006001809054906101000a900473ffffffffffffffffffffffffffffffffffffffff1673ffffffffffffffffffffffffffffffffffffffff163373ffffffffffffffffffffffffffffffffffffffff1614151561253d576040517f08c379a000000000000000000000000000000000000000000000000000000000815260040180806020018281038252602c8152602001807f4f6e6c7920746865206973737565722063616e2063616c6c206e65772069737381526020017f75652066756e6374696f6e2e000000000000000000000000000000000000000081525060400191505060405180910390fd5b816005540160058190555081600660003373ffffffffffffffffffffffffffffffffffffffff1673ffffffffffffffffffffffffffffffffffffffff1681526020019081526020016000206000828254019250508190555060019050919050565b6000600160009054906101000a900460ff16905090565b600082600c60003373ffffffffffffffffffffffffffffffffffffffff1673ffffffffffffffffffffffffffffffffffffffff16815260200190815260200160002060008673ffffffffffffffffffffffffffffffffffffffff1673ffffffffffffffffffffffffffffffffffffffff168152602001908152602001600020819055508373ffffffffffffffffffffffffffffffffffffffff163373ffffffffffffffffffffffffffffffffffffffff167f8c5be1e5ebec7d5bd14f71427d1e84f3dd0314c0f7b2291e5b200ac8c7c3b925856040518082815260200191505060405180910390a38373ffffffffffffffffffffffffffffffffffffffff16638f4ffcb1338530866040518563ffffffff167c0100000000000000000000000000000000000000000000000000000000028152600401808573ffffffffffffffffffffffffffffffffffffffff1673ffffffffffffffffffffffffffffffffffffffff1681526020018481526020018373ffffffffffffffffffffffffffffffffffffffff1673ffffffffffffffffffffffffffffffffffffffff16815260200180602001828103825283818151815260200191508051906020019080838360005b83811015612792578082015181840152602081019050612777565b50505050905090810190601f1680156127bf5780820380516001836020036101000a031916815260200191505b5095505050505050600060405180830381600087803b1580156127e157600080fd5b505af11580156127f5573d6000803e3d6000fd5b50505050600190509392505050565b606080606060006060806060600080805490509450846040519080825280602002602001820160405280156128485781602001602082028038833980820191505090505b5093508460405190808252806020026020018201604052801561287a5781602001602082028038833980820191505090505b509250846040519080825280602002602001820160405280156128ac5781602001602082028038833980820191505090505b509150600090505b60008054905081101561298f576000818154811015156128d057fe5b90600052602060002090600302016000015484828151811015156128f057fe5b90602001906020020190600019169081600019168152505060008181548110151561291757fe5b906000526020600020906003020160010154838281518110151561293757fe5b906020019060200201818152505060008181548110151561295457fe5b906000526020600020906003020160020154828281518110151561297457fe5b906020019060200201818152505080806001019150506128b4565b8383839750975097505050505050909192565b6000806000806129b0611d08565b92508483029150600660003373ffffffffffffffffffffffffffffffffffffffff1673ffffffffffffffffffffffffffffffffffffffff168152602001908152602001600020549050848110151515612a97576040517f08c379a00000000000000000000000000000000000000000000000000000000081526004018080602001828103825260248152602001807f596f7520646f6e2774206861766520656e6f7567682066756e6420746f20726581526020017f6465656d0000000000000000000000000000000000000000000000000000000081525060400191505060405180910390fd5b819350505050919050565b600860009054906101000a900473ffffffffffffffffffffffffffffffffffffffff1681565b6000600660003373ffffffffffffffffffffffffffffffffffffffff1673ffffffffffffffffffffffffffffffffffffffff16815260200190815260200160002054905090565b6000600c60008473ffffffffffffffffffffffffffffffffffffffff1673ffffffffffffffffffffffffffffffffffffffff16815260200190815260200160002060008373ffffffffffffffffffffffffffffffffffffffff1673ffffffffffffffffffffffffffffffffffffffff16815260200190815260200160002054905092915050565b6000806001809054906101000a900473ffffffffffffffffffffffffffffffffffffffff1673ffffffffffffffffffffffffffffffffffffffff163373ffffffffffffffffffffffffffffffffffffffff16141515612bf457612ed2565b84518651148015612c06575083518651145b1515612cc6576040517f08c379a00000000000000000000000000000000000000000000000000000000081526004018080602001828103825260548152602001807f4e756d626572206f6620536861726573204e616d657320616e64204e756d626581526020017f72206f662053686172652077656967687420616e64204e756d626572206f662081526020017f7072696365206e65656420746f206d617463682e00000000000000000000000081525060600191505060405180910390fd5b60008054905091505b6000821115612d3757600060018303815481101515612cea57fe5b90600052602060002090600302016000808201600090556001820160009055600282016000905550506000805480919060019003612d28919061384d565b50818060019003925050612ccf565b60008080549050141515612dd9576040517f08c379a000000000000000000000000000000000000000000000000000000000815260040180806020018281038252602a8152602001807f4e65656420746f20636c656172206261736b6574206265666f7265206164642081526020017f6e6577206261736b65740000000000000000000000000000000000000000000081525060400191505060405180910390fd5b600090505b8551811015612ed15760006060604051908101604052808884815181101515612e0357fe5b906020019060200201516000191681526020018684815181101515612e2457fe5b906020019060200201518885815181101515612e3c57fe5b906020019060200201518702811515612e5157fe5b0481526020018684815181101515612e6557fe5b90602001906020020151815250908060018154018082558091505090600182039060005260206000209060030201600090919290919091506000820151816000019060001916905560208201518160010155604082015181600201555050508080600101915050612dde565b5b505050505050565b6000803373ffffffffffffffffffffffffffffffffffffffff16319050348110151515612f95576040517f08c379a000000000000000000000000000000000000000000000000000000000815260040180806020018281038252602f8152602001807f596f7520646f6e2774206861766520656e6f756768204554482062616c616e6381526020017f6520746f207375627363726962652e000000000000000000000000000000000081525060400191505060405180910390fd5b82600660003373ffffffffffffffffffffffffffffffffffffffff1673ffffffffffffffffffffffffffffffffffffffff1681526020019081526020016000206000828254019250508190555082600660006001809054906101000a900473ffffffffffffffffffffffffffffffffffffffff1673ffffffffffffffffffffffffffffffffffffffff1673ffffffffffffffffffffffffffffffffffffffff168152602001908152602001600020600082825403925050819055506001915050919050565b600a8054600181600116156101000203166002900480601f0160208091040260200160405190810160405280929190818152602001828054600181600116156101000203166002900480156130f05780601f106130c5576101008083540402835291602001916130f0565b820191906000526020600020905b8154815290600101906020018083116130d357829003601f168201915b505050505081565b6000806001809054906101000a900473ffffffffffffffffffffffffffffffffffffffff1673ffffffffffffffffffffffffffffffffffffffff163373ffffffffffffffffffffffffffffffffffffffff161415156131e5576040517f08c379a00000000000000000000000000000000000000000000000000000000081526004018080602001828103825260218152602001807f4f6e6c7920746865206973737565722063616e2075706461746520707269636581526020017f2e0000000000000000000000000000000000000000000000000000000000000081525060400191505060405180910390fd5b600554600660006001809054906101000a900473ffffffffffffffffffffffffffffffffffffffff1673ffffffffffffffffffffffffffffffffffffffff1673ffffffffffffffffffffffffffffffffffffffff168152602001908152602001600020541415156132be576040517f08c379a000000000000000000000000000000000000000000000000000000000815260040180806020018281038252601d8152602001807f50617274206f662066756e64206973206e6f742072656465656d65642e00000081525060200191505060405180910390fd5b3073ffffffffffffffffffffffffffffffffffffffff163190506001809054906101000a900473ffffffffffffffffffffffffffffffffffffffff1673ffffffffffffffffffffffffffffffffffffffff166108fc829081150290604051600060405180830381858888f1935050505015801561333f573d6000803e3d6000fd5b506000600160006101000a81548160ff021916908315150217905550600191505090565b6000806001809054906101000a900473ffffffffffffffffffffffffffffffffffffffff1673ffffffffffffffffffffffffffffffffffffffff163373ffffffffffffffffffffffffffffffffffffffff16141515613450576040517f08c379a000000000000000000000000000000000000000000000000000000000815260040180806020018281038252602c8152602001807f4f6e6c7920746865206973737565722063616e2063616c6c206e65772069737381526020017f75652066756e6374696f6e2e000000000000000000000000000000000000000081525060400191505060405180910390fd5b60001515600160009054906101000a900460ff161515141515613501576040517f08c379a00000000000000000000000000000000000000000000000000000000081526004018080602001828103825260308152602001807f4e6f746520686173206265656e2069737375656420616c72656164792c20636881526020017f65636b20697373756564206e6f74652e0000000000000000000000000000000081525060400191505060405180910390fd5b88518a51148015613513575087518a51145b15156135d3576040517f08c379a00000000000000000000000000000000000000000000000000000000081526004018080602001828103825260548152602001807f4e756d626572206f6620536861726573204e616d657320616e64204e756d626581526020017f72206f662053686172652077656967687420616e64204e756d626572206f662081526020017f7072696365206e65656420746f206d617463682e00000000000000000000000081525060600191505060405180910390fd5b600090505b89518110156136cb5760006060604051908101604052808c848151811015156135fd57fe5b906020019060200201516000191681526020018a8481518110151561361e57fe5b906020019060200201518c8581518110151561363657fe5b906020019060200201518b0281151561364b57fe5b0481526020018a8481518110151561365f57fe5b906020019060200201518152509080600181540180825580915050906001820390600052602060002090600302016000909192909190915060008201518160000190600019169055602082015181600101556040820151816002015550505080806001019150506135d8565b60018060006101000a81548160ff02191690831515021790555060006005819055508560028160001916905550846003816000191690555083600481905550826005540160058190555082600660003373ffffffffffffffffffffffffffffffffffffffff1673ffffffffffffffffffffffffffffffffffffffff16815260200190815260200160002060008282540192505081905550600191505098975050505050505050565b565b600760009054906101000a900473ffffffffffffffffffffffffffffffffffffffff1673ffffffffffffffffffffffffffffffffffffffff163373ffffffffffffffffffffffffffffffffffffffff161415156137d157600080fd5b80600860006101000a81548173ffffffffffffffffffffffffffffffffffffffff021916908373ffffffffffffffffffffffffffffffffffffffff16021790555050565b600082821115151561382657600080fd5b818303905092915050565b6000818301905082811015151561384757600080fd5b92915050565b81548183558181111561387a57600302816003028360005260206000209182019101613879919061387f565b5b505050565b6138b391905b808211156138af576000808201600090556001820160009055600282016000905550600301613885565b5090565b905600a165627a7a72305820c2aec4e1f1d32bb88d19b30af449acc5ac871b2cc5928827e23ee1b6bfbefc3d0029",
  "source": "pragma solidity ^0.4.24;\r\n\r\n//import \"../node_modules/zeppelin-solidity/contracts/token/ERC721/ERC721Token.sol\";\r\n//import '../node_modules/zeppelin-solidity/contracts/ownership/Ownable.sol';\r\n//import \"../node_modules/zeppelin-solidity/contracts/introspection/SupportsInterfaceWithLookup.sol\";\r\nimport './IDXBase.sol';\r\n\r\n// ----------------------------------------------------------------------------\r\n// Safe maths\r\n// ----------------------------------------------------------------------------\r\nlibrary SafeMath {\r\n    function add(uint a, uint b) internal pure returns (uint c) {\r\n        c = a + b;\r\n        require(c >= a);\r\n    }\r\n    function sub(uint a, uint b) internal pure returns (uint c) {\r\n        require(b <= a);\r\n        c = a - b;\r\n    }\r\n    function mul(uint a, uint b) internal pure returns (uint c) {\r\n        c = a * b;\r\n        require(a == 0 || c / a == b);\r\n    }\r\n    function div(uint a, uint b) internal pure returns (uint c) {\r\n        require(b > 0);\r\n        c = a / b;\r\n    }\r\n}\r\n\r\n\r\n// ----------------------------------------------------------------------------\r\n// ERC Token Standard #20 Interface\r\n// https://github.com/ethereum/EIPs/blob/master/EIPS/eip-20.md\r\n// ----------------------------------------------------------------------------\r\ncontract ERC20Interface {\r\n    function totalSupply() public constant returns (uint);\r\n    function balanceOf(address tokenOwner) public constant returns (uint balance);\r\n    function allowance(address tokenOwner, address spender) public constant returns (uint remaining);\r\n    function transfer(address to, uint tokens) public returns (bool success);\r\n    function approve(address spender, uint tokens) public returns (bool success);\r\n    function transferFrom(address from, address to, uint tokens) public returns (bool success);\r\n\r\n    event Transfer(address indexed from, address indexed to, uint tokens);\r\n    event Approval(address indexed tokenOwner, address indexed spender, uint tokens);\r\n}\r\n\r\n\r\n// ----------------------------------------------------------------------------\r\n// Contract function to receive approval and execute function in one call\r\n//\r\n// Borrowed from MiniMeToken\r\n// ----------------------------------------------------------------------------\r\ncontract ApproveAndCallFallBack {\r\n    function receiveApproval(address from, uint256 tokens, address token, bytes data) public;\r\n}\r\n\r\n\r\n// ----------------------------------------------------------------------------\r\n// Owned contract\r\n// ----------------------------------------------------------------------------\r\ncontract Owned {\r\n    address public owner;\r\n    address public newOwner;\r\n\r\n    event OwnershipTransferred(address indexed _from, address indexed _to);\r\n\r\n    constructor() public {\r\n        owner = msg.sender;\r\n    }\r\n\r\n    modifier onlyOwner {\r\n        require(msg.sender == owner);\r\n        _;\r\n    }\r\n\r\n    function transferOwnership(address _newOwner) public onlyOwner {\r\n        newOwner = _newOwner;\r\n    }\r\n    function acceptOwnership() public {\r\n        require(msg.sender == newOwner);\r\n        emit OwnershipTransferred(owner, newOwner);\r\n        owner = newOwner;\r\n        newOwner = address(0);\r\n    }\r\n}\r\n\r\n// Structured Leverage Fund\r\ncontract IDX is IDXBase, ERC20Interface, Owned {\r\n    /*** Constants ***/\r\n    // Configure these for your own deployment\r\n    /// @notice Name and symbol of the non fungible token, as defined in ERC721.\r\n\r\n    using SafeMath for uint;\r\n\r\n    string public symbol_;\r\n    string public name_;\r\n    uint8 public decimals;\r\n    //uint totalTokens_;\r\n\r\n    //mapping(address => uint) balances;\r\n    mapping(address => mapping(address => uint)) allowed;\r\n\r\n\r\n    /*** Constructor function ***/\r\n    // ------------------------------------------------------------------------\r\n    // Constructor\r\n    // ------------------------------------------------------------------------\r\n    constructor() public {\r\n        issuer = msg.sender;\r\n        isIssued = false;\r\n\r\n        symbol_ = \"IDXTest\";\r\n        name_ = \"CCM IDX Token Test1\";\r\n        decimals = 18;\r\n        //totalTokens_ = 1000000 * 10**uint(decimals);\r\n        //balances[owner] = totalTokens_;\r\n        //emit Transfer(address(0), owner, totalTokens_);\r\n    }\r\n\r\n    /**\r\n     * get token's name\r\n     */\r\n    function name() external view returns (string) {\r\n      return name_;\r\n    }\r\n\r\n    /**\r\n     * get symbols's name\r\n     */\r\n    function symbol() external view returns (string) {\r\n      return symbol_;\r\n    }\r\n\r\n    /**\r\n    * @notice Gets the total amount of tokens stored by the contract\r\n    * @return uint256 representing the total amount of tokens\r\n    */\r\n    /// @dev Required for ERC-20 compliance\r\n    function totalSupply() public view returns (uint256) {\r\n      //return totalTokens_;\r\n      return outstandingBalance*10**uint(decimals);\r\n    }\r\n\r\n    /// @dev Required for ERC-20 compliance.\r\n    function balanceOf(address _owner) public view returns (uint256 _balance){\r\n      return balances[_owner];\r\n    }\r\n\r\n    /// @dev Required for ERC-20 compliance.\r\n    function transfer(address to, uint tokens) public returns (bool success) {\r\n        balances[msg.sender] = balances[msg.sender].sub(tokens);\r\n        balances[to] = balances[to].add(tokens);\r\n        emit Transfer(msg.sender, to, tokens);\r\n        return true;\r\n    }\r\n\r\n\r\n    /// @dev Required for ERC-20 compliance.\r\n    function approve(address spender, uint tokens) public returns (bool success) {\r\n        allowed[msg.sender][spender] = tokens;\r\n        emit Approval(msg.sender, spender, tokens);\r\n        return true;\r\n    }\r\n\r\n    /// @dev Required for ERC-20 compliance.\r\n    // ------------------------------------------------------------------------\r\n    // Transfer `tokens` from the `from` account to the `to` account\r\n    //\r\n    // The calling account must already have sufficient tokens approve(...)-d\r\n    // for spending from the `from` account and\r\n    // - From account must have sufficient balance to transfer\r\n    // - Spender must have sufficient allowance to transfer\r\n    // - 0 value transfers are allowed\r\n    // ------------------------------------------------------------------------\r\n    function transferFrom(address from, address to, uint tokens) public returns (bool success) {\r\n        balances[from] = balances[from].sub(tokens);\r\n        allowed[from][msg.sender] = allowed[from][msg.sender].sub(tokens);\r\n        balances[to] = balances[to].add(tokens);\r\n        emit Transfer(from, to, tokens);\r\n        return true;\r\n    }\r\n\r\n    /// @dev Required for ERC-20 compliance.\r\n    // ------------------------------------------------------------------------\r\n    // Returns the amount of tokens approved by the owner that can be\r\n    // transferred to the spender's account\r\n    // ------------------------------------------------------------------------\r\n    function allowance(address tokenOwner, address spender) public view returns (uint remaining) {\r\n        return allowed[tokenOwner][spender];\r\n    }\r\n\r\n    // ------------------------------------------------------------------------\r\n    // Token owner can approve for `spender` to transferFrom(...) `tokens`\r\n    // from the token owner's account. The `spender` contract function\r\n    // `receiveApproval(...)` is then executed\r\n    // ------------------------------------------------------------------------\r\n    function approveAndCall(address spender, uint tokens, bytes data) public returns (bool success) {\r\n        allowed[msg.sender][spender] = tokens;\r\n        emit Approval(msg.sender, spender, tokens);\r\n        ApproveAndCallFallBack(spender).receiveApproval(msg.sender, tokens, this, data);\r\n        return true;\r\n    }\r\n}\r\n",
  "sourcePath": "C:\\Users\\jzqav\\CoinCapitalMarkets\\contracts\\IDX-ERC20.sol",
  "compiler": {
    "name": "solc",
    "version": "0.4.24+commit.e67f0147.Emscripten.clang"
  },
  "schemaVersion": "2.0.1",
  "updatedAt": "2018-09-17T23:10:14.554Z"
}