{
  "contractName": "IDXBase",
  "abi": [
    {
      "constant": true,
      "inputs": [],
      "name": "issuer",
      "outputs": [
        {
          "name": "",
          "type": "address"
        }
      ],
      "payable": false,
      "stateMutability": "view",
      "type": "function"
    },
    {
      "constant": true,
      "inputs": [
        {
          "name": "",
          "type": "address"
        }
      ],
      "name": "balances",
      "outputs": [
        {
          "name": "",
          "type": "uint256"
        }
      ],
      "payable": false,
      "stateMutability": "view",
      "type": "function"
    },
    {
      "constant": true,
      "inputs": [],
      "name": "outstandingBalance",
      "outputs": [
        {
          "name": "",
          "type": "uint256"
        }
      ],
      "payable": false,
      "stateMutability": "view",
      "type": "function"
    },
    {
      "constant": true,
      "inputs": [
        {
          "name": "",
          "type": "uint256"
        }
      ],
      "name": "basket",
      "outputs": [
        {
          "name": "name",
          "type": "bytes32"
        },
        {
          "name": "amount",
          "type": "uint256"
        },
        {
          "name": "price",
          "type": "uint256"
        }
      ],
      "payable": false,
      "stateMutability": "view",
      "type": "function"
    },
    {
      "inputs": [],
      "payable": false,
      "stateMutability": "nonpayable",
      "type": "constructor"
    },
    {
      "anonymous": false,
      "inputs": [
        {
          "indexed": false,
          "name": "from",
          "type": "address"
        },
        {
          "indexed": false,
          "name": "to",
          "type": "address"
        },
        {
          "indexed": false,
          "name": "amount",
          "type": "uint256"
        }
      ],
      "name": "Sent",
      "type": "event"
    },
    {
      "constant": false,
      "inputs": [
        {
          "name": "underlyingName",
          "type": "bytes32[]"
        },
        {
          "name": "underlyingWeight",
          "type": "uint256[]"
        },
        {
          "name": "underlyingPrice",
          "type": "uint256[]"
        },
        {
          "name": "basePrice",
          "type": "uint256"
        },
        {
          "name": "name",
          "type": "bytes32"
        },
        {
          "name": "issuingDate",
          "type": "bytes32"
        },
        {
          "name": "managementFee",
          "type": "uint256"
        },
        {
          "name": "amount",
          "type": "uint256"
        }
      ],
      "name": "newIssue",
      "outputs": [
        {
          "name": "success",
          "type": "bool"
        }
      ],
      "payable": false,
      "stateMutability": "nonpayable",
      "type": "function"
    },
    {
      "constant": false,
      "inputs": [
        {
          "name": "amount",
          "type": "uint256"
        }
      ],
      "name": "additionalIssue",
      "outputs": [
        {
          "name": "success",
          "type": "bool"
        }
      ],
      "payable": false,
      "stateMutability": "nonpayable",
      "type": "function"
    },
    {
      "constant": false,
      "inputs": [
        {
          "name": "underlyingName",
          "type": "bytes32[]"
        },
        {
          "name": "newPrice",
          "type": "uint256[]"
        }
      ],
      "name": "updatePrice",
      "outputs": [
        {
          "name": "success",
          "type": "bool"
        }
      ],
      "payable": false,
      "stateMutability": "nonpayable",
      "type": "function"
    },
    {
      "constant": false,
      "inputs": [
        {
          "name": "underlyingName",
          "type": "bytes32[]"
        },
        {
          "name": "underlyingWeight",
          "type": "uint256[]"
        },
        {
          "name": "underlyingPrice",
          "type": "uint256[]"
        },
        {
          "name": "basePrice",
          "type": "uint256"
        }
      ],
      "name": "rebalance",
      "outputs": [],
      "payable": false,
      "stateMutability": "nonpayable",
      "type": "function"
    },
    {
      "constant": false,
      "inputs": [],
      "name": "payContract",
      "outputs": [],
      "payable": true,
      "stateMutability": "payable",
      "type": "function"
    },
    {
      "constant": false,
      "inputs": [],
      "name": "closeFund",
      "outputs": [
        {
          "name": "success",
          "type": "bool"
        }
      ],
      "payable": false,
      "stateMutability": "nonpayable",
      "type": "function"
    },
    {
      "constant": false,
      "inputs": [
        {
          "name": "receiver",
          "type": "address"
        },
        {
          "name": "amount",
          "type": "uint256"
        }
      ],
      "name": "sendFund",
      "outputs": [
        {
          "name": "sufficient",
          "type": "bool"
        }
      ],
      "payable": false,
      "stateMutability": "nonpayable",
      "type": "function"
    },
    {
      "constant": true,
      "inputs": [
        {
          "name": "amount",
          "type": "uint256"
        }
      ],
      "name": "userGetSubscribePayable",
      "outputs": [
        {
          "name": "",
          "type": "uint256"
        }
      ],
      "payable": false,
      "stateMutability": "view",
      "type": "function"
    },
    {
      "constant": false,
      "inputs": [
        {
          "name": "amount",
          "type": "uint256"
        }
      ],
      "name": "userSubscribe",
      "outputs": [
        {
          "name": "",
          "type": "bool"
        }
      ],
      "payable": true,
      "stateMutability": "payable",
      "type": "function"
    },
    {
      "constant": true,
      "inputs": [
        {
          "name": "amount",
          "type": "uint256"
        }
      ],
      "name": "userGetRedeemReceivable",
      "outputs": [
        {
          "name": "",
          "type": "uint256"
        }
      ],
      "payable": false,
      "stateMutability": "view",
      "type": "function"
    },
    {
      "constant": false,
      "inputs": [
        {
          "name": "amount",
          "type": "uint256"
        }
      ],
      "name": "userRedeem",
      "outputs": [
        {
          "name": "",
          "type": "bool"
        }
      ],
      "payable": false,
      "stateMutability": "nonpayable",
      "type": "function"
    },
    {
      "constant": true,
      "inputs": [],
      "name": "getIfIssued",
      "outputs": [
        {
          "name": "",
          "type": "bool"
        }
      ],
      "payable": false,
      "stateMutability": "view",
      "type": "function"
    },
    {
      "constant": true,
      "inputs": [],
      "name": "getOutstanding",
      "outputs": [
        {
          "name": "",
          "type": "uint256"
        }
      ],
      "payable": false,
      "stateMutability": "view",
      "type": "function"
    },
    {
      "constant": true,
      "inputs": [],
      "name": "getContractETHBalance",
      "outputs": [
        {
          "name": "",
          "type": "uint256"
        }
      ],
      "payable": false,
      "stateMutability": "view",
      "type": "function"
    },
    {
      "constant": true,
      "inputs": [],
      "name": "getIssuer",
      "outputs": [
        {
          "name": "",
          "type": "address"
        }
      ],
      "payable": false,
      "stateMutability": "view",
      "type": "function"
    },
    {
      "constant": true,
      "inputs": [],
      "name": "getFundName",
      "outputs": [
        {
          "name": "",
          "type": "bytes32"
        }
      ],
      "payable": false,
      "stateMutability": "view",
      "type": "function"
    },
    {
      "constant": true,
      "inputs": [],
      "name": "getFundBalance",
      "outputs": [
        {
          "name": "",
          "type": "uint256"
        }
      ],
      "payable": false,
      "stateMutability": "view",
      "type": "function"
    },
    {
      "constant": true,
      "inputs": [],
      "name": "getBasket",
      "outputs": [
        {
          "name": "_name",
          "type": "bytes32[]"
        },
        {
          "name": "_amount",
          "type": "uint256[]"
        },
        {
          "name": "_price",
          "type": "uint256[]"
        }
      ],
      "payable": false,
      "stateMutability": "view",
      "type": "function"
    },
    {
      "constant": true,
      "inputs": [],
      "name": "getNAV",
      "outputs": [
        {
          "name": "",
          "type": "uint256"
        }
      ],
      "payable": false,
      "stateMutability": "view",
      "type": "function"
    },
    {
      "constant": true,
      "inputs": [],
      "name": "getNAVwithFeeDeducted",
      "outputs": [
        {
          "name": "",
          "type": "uint256"
        }
      ],
      "payable": false,
      "stateMutability": "view",
      "type": "function"
    }
  ],
  "bytecode": "0x608060405234801561001057600080fd5b50336001806101000a81548173ffffffffffffffffffffffffffffffffffffffff021916908373ffffffffffffffffffffffffffffffffffffffff1602179055506000600160006101000a81548160ff0219169083151502179055506123f68061007b6000396000f30060806040526004361061013e576000357c0100000000000000000000000000000000000000000000000000000000900463ffffffff1680630126c606146101435780631d1438481461016e578063277b35a1146101c557806327e235e3146102065780633133f2a71461025d5780634b5694501461028857806352556421146102ed5780637a4ee555146103445780638c7e08751461036f5780638c89a0ad146103c6578063941af1e8146103f1578063a3046b941461041c578063a87fe87e14610461578063b2bffcc314610494578063b369f42314610555578063be57384b1461059a578063cd6ef2b0146105c9578063cdbd0711146106c5578063dae9e37914610706578063e0c8f52014610731578063e0ded77614610827578063e3a1c6fe1461085f578063eb28121a1461088e578063ecb0b862146109cc575b600080fd5b34801561014f57600080fd5b506101586109d6565b6040518082815260200191505060405180910390f35b34801561017a57600080fd5b50610183610a68565b604051808273ffffffffffffffffffffffffffffffffffffffff1673ffffffffffffffffffffffffffffffffffffffff16815260200191505060405180910390f35b3480156101d157600080fd5b506101f060048036038101908080359060200190929190505050610a8d565b6040518082815260200191505060405180910390f35b34801561021257600080fd5b50610247600480360381019080803573ffffffffffffffffffffffffffffffffffffffff169060200190929190505050610c69565b6040518082815260200191505060405180910390f35b34801561026957600080fd5b50610272610c81565b6040518082815260200191505060405180910390f35b34801561029457600080fd5b506102d3600480360381019080803573ffffffffffffffffffffffffffffffffffffffff16906020019092919080359060200190929190505050610c87565b604051808215151515815260200191505060405180910390f35b3480156102f957600080fd5b50610302610ede565b604051808273ffffffffffffffffffffffffffffffffffffffff1673ffffffffffffffffffffffffffffffffffffffff16815260200191505060405180910390f35b34801561035057600080fd5b50610359610f07565b6040518082815260200191505060405180910390f35b34801561037b57600080fd5b5061039a60048036038101908080359060200190929190505050610f11565b604051808460001916600019168152602001838152602001828152602001935050505060405180910390f35b3480156103d257600080fd5b506103db610f4a565b6040518082815260200191505060405180910390f35b3480156103fd57600080fd5b50610406610f69565b6040518082815260200191505060405180910390f35b34801561042857600080fd5b5061044760048036038101908080359060200190929190505050611011565b604051808215151515815260200191505060405180910390f35b34801561046d57600080fd5b50610476611214565b60405180826000191660001916815260200191505060405180910390f35b3480156104a057600080fd5b5061053b600480360381019080803590602001908201803590602001908080602002602001604051908101604052809392919081815260200183836020028082843782019150505050505091929192908035906020019082018035906020019080806020026020016040519081016040528093929190818152602001838360200280828437820191505050505050919291929050505061121e565b604051808215151515815260200191505060405180910390f35b34801561056157600080fd5b50610580600480360381019080803590602001909291905050506113d7565b604051808215151515815260200191505060405180910390f35b3480156105a657600080fd5b506105af611524565b604051808215151515815260200191505060405180910390f35b3480156105d557600080fd5b506105de61153b565b60405180806020018060200180602001848103845287818151815260200191508051906020019060200280838360005b8381101561062957808201518184015260208101905061060e565b50505050905001848103835286818151815260200191508051906020019060200280838360005b8381101561066b578082015181840152602081019050610650565b50505050905001848103825285818151815260200191508051906020019060200280838360005b838110156106ad578082015181840152602081019050610692565b50505050905001965050505050505060405180910390f35b3480156106d157600080fd5b506106f0600480360381019080803590602001909291905050506116d9565b6040518082815260200191505060405180910390f35b34801561071257600080fd5b5061071b6117d9565b6040518082815260200191505060405180910390f35b34801561073d57600080fd5b5061082560048036038101908080359060200190820180359060200190808060200260200160405190810160405280939291908181526020018383602002808284378201915050505050509192919290803590602001908201803590602001908080602002602001604051908101604052809392919081815260200183836020028082843782019150505050505091929192908035906020019082018035906020019080806020026020016040519081016040528093929190818152602001838360200280828437820191505050505050919291929080359060200190929190505050611820565b005b61084560048036038101908080359060200190929190505050611b64565b604051808215151515815260200191505060405180910390f35b34801561086b57600080fd5b50610874611ce4565b604051808215151515815260200191505060405180910390f35b34801561089a57600080fd5b506109b260048036038101908080359060200190820180359060200190808060200260200160405190810160405280939291908181526020018383602002808284378201915050505050509192919290803590602001908201803590602001908080602002602001604051908101604052809392919081815260200183836020028082843782019150505050505091929192908035906020019082018035906020019080806020026020016040519081016040528093929190818152602001838360200280828437820191505050505050919291929080359060200190929190803560001916906020019092919080356000191690602001909291908035906020019092919080359060200190929190505050611f4f565b604051808215151515815260200191505060405180910390f35b6109d461235f565b005b60008060008060009250670de0b6b3a76400009150600090505b600080549050811015610a5157600081815481101515610a0c57fe5b906000526020600020906003020160010154600082815481101515610a2d57fe5b906000526020600020906003020160020154028301925080806001019150506109f0565b8183811515610a5c57fe5b04925082935050505090565b6001809054906101000a900473ffffffffffffffffffffffffffffffffffffffff1681565b6000806000806000610a9d6109d6565b935085840292503373ffffffffffffffffffffffffffffffffffffffff16319150828210151515610b5c576040517f08c379a00000000000000000000000000000000000000000000000000000000081526004018080602001828103825260218152602001807f596f7520646f6e2774206861766520656e6f756768204554482062616c616e6381526020017f650000000000000000000000000000000000000000000000000000000000000081525060400191505060405180910390fd5b600660006001809054906101000a900473ffffffffffffffffffffffffffffffffffffffff1673ffffffffffffffffffffffffffffffffffffffff1673ffffffffffffffffffffffffffffffffffffffff168152602001908152602001600020549050858110151515610c5d576040517f08c379a00000000000000000000000000000000000000000000000000000000081526004018080602001828103825260308152602001807f49737375657220646f65736e2774206861766520656e6f75676820475350206e81526020017f6f746573206f75747374616e64696e670000000000000000000000000000000081525060400191505060405180910390fd5b82945050505050919050565b60066020528060005260406000206000915090505481565b60055481565b60006001809054906101000a900473ffffffffffffffffffffffffffffffffffffffff1673ffffffffffffffffffffffffffffffffffffffff163373ffffffffffffffffffffffffffffffffffffffff1614151515610d4e576040517f08c379a00000000000000000000000000000000000000000000000000000000081526004018080602001828103825260188152602001807f4973737565722063616e6e6f742073656e642066756e642e000000000000000081525060200191505060405180910390fd5b81600660003373ffffffffffffffffffffffffffffffffffffffff1673ffffffffffffffffffffffffffffffffffffffff168152602001908152602001600020541015610d9a57610ed8565b81600660003373ffffffffffffffffffffffffffffffffffffffff1673ffffffffffffffffffffffffffffffffffffffff1681526020019081526020016000206000828254039250508190555081600660008573ffffffffffffffffffffffffffffffffffffffff1673ffffffffffffffffffffffffffffffffffffffff168152602001908152602001600020600082825401925050819055507f3990db2d31862302a685e8086b5755072a6e2b5b780af1ee81ece35ee3cd3345338484604051808473ffffffffffffffffffffffffffffffffffffffff1673ffffffffffffffffffffffffffffffffffffffff1681526020018373ffffffffffffffffffffffffffffffffffffffff1673ffffffffffffffffffffffffffffffffffffffff168152602001828152602001935050505060405180910390a1600190505b92915050565b60006001809054906101000a900473ffffffffffffffffffffffffffffffffffffffff16905090565b6000600554905090565b600081815481101515610f2057fe5b90600052602060002090600302016000915090508060000154908060010154908060020154905083565b60003073ffffffffffffffffffffffffffffffffffffffff1631905090565b6000806000806000809350670de0b6b3a76400009250600091505b600080549050821015610fe557600082815481101515610fa057fe5b906000526020600020906003020160010154600083815481101515610fc157fe5b90600052602060002090600302016002015402840193508180600101925050610f84565b8284811515610ff057fe5b04935082600454850281151561100257fe5b04905080840394505050505090565b60008060008061101f610f69565b92508483029150600660003373ffffffffffffffffffffffffffffffffffffffff1673ffffffffffffffffffffffffffffffffffffffff168152602001908152602001600020549050848110151515611106576040517f08c379a00000000000000000000000000000000000000000000000000000000081526004018080602001828103825260258152602001807f5573657220646f6e2774206861766520656e6f7567682066756e6420746f207281526020017f656465656d00000000000000000000000000000000000000000000000000000081525060400191505060405180910390fd5b3373ffffffffffffffffffffffffffffffffffffffff166108fc839081150290604051600060405180830381858888f1935050505015801561114c573d6000803e3d6000fd5b5084600660006001809054906101000a900473ffffffffffffffffffffffffffffffffffffffff1673ffffffffffffffffffffffffffffffffffffffff1673ffffffffffffffffffffffffffffffffffffffff1681526020019081526020016000206000828254019250508190555084600660003373ffffffffffffffffffffffffffffffffffffffff1673ffffffffffffffffffffffffffffffffffffffff1681526020019081526020016000206000828254039250508190555060019350505050919050565b6000600254905090565b60008060006001809054906101000a900473ffffffffffffffffffffffffffffffffffffffff1673ffffffffffffffffffffffffffffffffffffffff163373ffffffffffffffffffffffffffffffffffffffff1614151561130d576040517f08c379a000000000000000000000000000000000000000000000000000000000815260040180806020018281038252602c8152602001807f4f6e6c7920746865206973737565722063616e2063616c6c206e65772069737381526020017f75652066756e6374696f6e2e000000000000000000000000000000000000000081525060400191505060405180910390fd5b600091505b84518210156113cb57600090505b6000805490508110156113be5760008181548110151561133c57fe5b90600052602060002090600302016000015460001916858381518110151561136057fe5b906020019060200201516000191614156113b157838281518110151561138257fe5b9060200190602002015160008281548110151561139b57fe5b9060005260206000209060030201600201819055505b8080600101915050611320565b8180600101925050611312565b60019250505092915050565b60006001809054906101000a900473ffffffffffffffffffffffffffffffffffffffff1673ffffffffffffffffffffffffffffffffffffffff163373ffffffffffffffffffffffffffffffffffffffff161415156114c3576040517f08c379a000000000000000000000000000000000000000000000000000000000815260040180806020018281038252602c8152602001807f4f6e6c7920746865206973737565722063616e2063616c6c206e65772069737381526020017f75652066756e6374696f6e2e000000000000000000000000000000000000000081525060400191505060405180910390fd5b816005540160058190555081600660003373ffffffffffffffffffffffffffffffffffffffff1673ffffffffffffffffffffffffffffffffffffffff1681526020019081526020016000206000828254019250508190555060019050919050565b6000600160009054906101000a900460ff16905090565b6060806060600060608060606000808054905094508460405190808252806020026020018201604052801561157f5781602001602082028038833980820191505090505b509350846040519080825280602002602001820160405280156115b15781602001602082028038833980820191505090505b509250846040519080825280602002602001820160405280156115e35781602001602082028038833980820191505090505b509150600090505b6000805490508110156116c65760008181548110151561160757fe5b906000526020600020906003020160000154848281518110151561162757fe5b90602001906020020190600019169081600019168152505060008181548110151561164e57fe5b906000526020600020906003020160010154838281518110151561166e57fe5b906020019060200201818152505060008181548110151561168b57fe5b90600052602060002090600302016002015482828151811015156116ab57fe5b906020019060200201818152505080806001019150506115eb565b8383839750975097505050505050909192565b6000806000806116e7610f69565b92508483029150600660003373ffffffffffffffffffffffffffffffffffffffff1673ffffffffffffffffffffffffffffffffffffffff1681526020019081526020016000205490508481101515156117ce576040517f08c379a00000000000000000000000000000000000000000000000000000000081526004018080602001828103825260248152602001807f596f7520646f6e2774206861766520656e6f7567682066756e6420746f20726581526020017f6465656d0000000000000000000000000000000000000000000000000000000081525060400191505060405180910390fd5b819350505050919050565b6000600660003373ffffffffffffffffffffffffffffffffffffffff1673ffffffffffffffffffffffffffffffffffffffff16815260200190815260200160002054905090565b6000806001809054906101000a900473ffffffffffffffffffffffffffffffffffffffff1673ffffffffffffffffffffffffffffffffffffffff163373ffffffffffffffffffffffffffffffffffffffff1614151561187e57611b5c565b84518651148015611890575083518651145b1515611950576040517f08c379a00000000000000000000000000000000000000000000000000000000081526004018080602001828103825260548152602001807f4e756d626572206f6620536861726573204e616d657320616e64204e756d626581526020017f72206f662053686172652077656967687420616e64204e756d626572206f662081526020017f7072696365206e65656420746f206d617463682e00000000000000000000000081525060600191505060405180910390fd5b60008054905091505b60008211156119c15760006001830381548110151561197457fe5b906000526020600020906003020160008082016000905560018201600090556002820160009055505060008054809190600190036119b29190612361565b50818060019003925050611959565b60008080549050141515611a63576040517f08c379a000000000000000000000000000000000000000000000000000000000815260040180806020018281038252602a8152602001807f4e65656420746f20636c656172206261736b6574206265666f7265206164642081526020017f6e6577206261736b65740000000000000000000000000000000000000000000081525060400191505060405180910390fd5b600090505b8551811015611b5b5760006060604051908101604052808884815181101515611a8d57fe5b906020019060200201516000191681526020018684815181101515611aae57fe5b906020019060200201518885815181101515611ac657fe5b906020019060200201518702811515611adb57fe5b0481526020018684815181101515611aef57fe5b90602001906020020151815250908060018154018082558091505090600182039060005260206000209060030201600090919290919091506000820151816000019060001916905560208201518160010155604082015181600201555050508080600101915050611a68565b5b505050505050565b6000803373ffffffffffffffffffffffffffffffffffffffff16319050348110151515611c1f576040517f08c379a000000000000000000000000000000000000000000000000000000000815260040180806020018281038252602f8152602001807f596f7520646f6e2774206861766520656e6f756768204554482062616c616e6381526020017f6520746f207375627363726962652e000000000000000000000000000000000081525060400191505060405180910390fd5b82600660003373ffffffffffffffffffffffffffffffffffffffff1673ffffffffffffffffffffffffffffffffffffffff1681526020019081526020016000206000828254019250508190555082600660006001809054906101000a900473ffffffffffffffffffffffffffffffffffffffff1673ffffffffffffffffffffffffffffffffffffffff1673ffffffffffffffffffffffffffffffffffffffff168152602001908152602001600020600082825403925050819055506001915050919050565b6000806001809054906101000a900473ffffffffffffffffffffffffffffffffffffffff1673ffffffffffffffffffffffffffffffffffffffff163373ffffffffffffffffffffffffffffffffffffffff16141515611dd1576040517f08c379a00000000000000000000000000000000000000000000000000000000081526004018080602001828103825260218152602001807f4f6e6c7920746865206973737565722063616e2075706461746520707269636581526020017f2e0000000000000000000000000000000000000000000000000000000000000081525060400191505060405180910390fd5b600554600660006001809054906101000a900473ffffffffffffffffffffffffffffffffffffffff1673ffffffffffffffffffffffffffffffffffffffff1673ffffffffffffffffffffffffffffffffffffffff16815260200190815260200160002054141515611eaa576040517f08c379a000000000000000000000000000000000000000000000000000000000815260040180806020018281038252601d8152602001807f50617274206f662066756e64206973206e6f742072656465656d65642e00000081525060200191505060405180910390fd5b3073ffffffffffffffffffffffffffffffffffffffff163190506001809054906101000a900473ffffffffffffffffffffffffffffffffffffffff1673ffffffffffffffffffffffffffffffffffffffff166108fc829081150290604051600060405180830381858888f19350505050158015611f2b573d6000803e3d6000fd5b506000600160006101000a81548160ff021916908315150217905550600191505090565b6000806001809054906101000a900473ffffffffffffffffffffffffffffffffffffffff1673ffffffffffffffffffffffffffffffffffffffff163373ffffffffffffffffffffffffffffffffffffffff1614151561203c576040517f08c379a000000000000000000000000000000000000000000000000000000000815260040180806020018281038252602c8152602001807f4f6e6c7920746865206973737565722063616e2063616c6c206e65772069737381526020017f75652066756e6374696f6e2e000000000000000000000000000000000000000081525060400191505060405180910390fd5b60001515600160009054906101000a900460ff1615151415156120ed576040517f08c379a00000000000000000000000000000000000000000000000000000000081526004018080602001828103825260308152602001807f4e6f746520686173206265656e2069737375656420616c72656164792c20636881526020017f65636b20697373756564206e6f74652e0000000000000000000000000000000081525060400191505060405180910390fd5b88518a511480156120ff575087518a51145b15156121bf576040517f08c379a00000000000000000000000000000000000000000000000000000000081526004018080602001828103825260548152602001807f4e756d626572206f6620536861726573204e616d657320616e64204e756d626581526020017f72206f662053686172652077656967687420616e64204e756d626572206f662081526020017f7072696365206e65656420746f206d617463682e00000000000000000000000081525060600191505060405180910390fd5b600090505b89518110156122b75760006060604051908101604052808c848151811015156121e957fe5b906020019060200201516000191681526020018a8481518110151561220a57fe5b906020019060200201518c8581518110151561222257fe5b906020019060200201518b0281151561223757fe5b0481526020018a8481518110151561224b57fe5b906020019060200201518152509080600181540180825580915050906001820390600052602060002090600302016000909192909190915060008201518160000190600019169055602082015181600101556040820151816002015550505080806001019150506121c4565b60018060006101000a81548160ff02191690831515021790555060006005819055508560028160001916905550846003816000191690555083600481905550826005540160058190555082600660003373ffffffffffffffffffffffffffffffffffffffff1673ffffffffffffffffffffffffffffffffffffffff16815260200190815260200160002060008282540192505081905550600191505098975050505050505050565b565b81548183558181111561238e5760030281600302836000526020600020918201910161238d9190612393565b5b505050565b6123c791905b808211156123c3576000808201600090556001820160009055600282016000905550600301612399565b5090565b905600a165627a7a72305820ae20065d64f20b557ccc88985d6b3470f4ca179d40494a73f26121f7b2826c3a0029",
  "source": "pragma solidity ^0.4.24;\r\n\r\n// Exchange Traded Fund/Index Fund\r\ncontract IDXBase {\r\n\r\n    /*** DATA TYPES ***/\r\n    // This is a type for a single share.\r\n    struct Underlying {\r\n        bytes32 name; // short name (up to 32 bytes)\r\n        uint amount; // weight in percentage\r\n        uint price;  // price of the Share\r\n    }\r\n\r\n    /*** STORAGE ***/\r\n    // A dynamically-sized array of 'Underlying' structs.\r\n    Underlying[] public basket;\r\n    // discription fields for the ETF\r\n    bool isIssued; //flag for whether the note is issued\r\n    address public issuer;\r\n    bytes32 fundName; //note name\r\n    bytes32 issueDate;\r\n    //uint factor;\r\n    uint fee; // management fee in percentage\r\n    uint public outstandingBalance; //total oustanding ETF issued\r\n    mapping (address => uint) public balances;\r\n\r\n    /*** EVENTS ***/\r\n    // Events allow light clients to react on\r\n    // changes efficiently.\r\n    event Sent(address from, address to, uint amount);\r\n\r\n    /*** CONSTRUCTOR FUNCTION ***/\r\n    // This is the constructor whose code is\r\n    // run only when the contract is created.\r\n    constructor() public {\r\n        issuer = msg.sender;\r\n        isIssued = false;\r\n    }\r\n\r\n    /*** FUNCTIONS ***/\r\n    // ----------------------------------------------------------------------------------\r\n    // Issuer functions\r\n\r\n    // This is the new issuance part 1 - add FI and EQ\r\n    function newIssue(bytes32[] underlyingName,\r\n                      uint[] underlyingWeight,\r\n                      uint[] underlyingPrice,\r\n                      uint basePrice,\r\n                      bytes32 name,\r\n                      bytes32 issuingDate,\r\n                      uint managementFee,\r\n                      uint amount) public returns(bool success) {\r\n\r\n        // make sure the issuer is the one performing issuance\r\n        require(msg.sender == issuer,\r\n                \"Only the issuer can call new issue function.\"\r\n        );\r\n\r\n        // make sure the note has not been issued before\r\n        require(isIssued == false,\r\n                \"Note has been issued already, check issued note.\"\r\n        );\r\n\r\n        // Need name and weight to have the same length\r\n        require(\r\n            underlyingName.length == underlyingWeight.length && underlyingName.length == underlyingPrice.length,\r\n            \"Number of Shares Names and Number of Share weight and Number of price need to match.\"\r\n        );\r\n\r\n        // Need weight totals to 1 eth\r\n        //for (uint k = 0; k < underlyingName.length; k++) {\r\n        //    uint total = 0;\r\n        //    total = total + underlyingWeight[k];\r\n        //}\r\n        //require(\r\n        //    total == 1 ether,\r\n        //    \"Total of weight need to be 10000 %00\"\r\n        //);\r\n\r\n\r\n        // For each of the provided share name and share weight\r\n        // create a new Underlying object and add it\r\n        // to the end of the array.\r\n        //uint eth = 1 ether;\r\n        for (uint n = 0; n < underlyingName.length; n++) {\r\n            // 'Underlying({...})' creates a temporary\r\n            // Underlying object and 'basket.push(...)'\r\n            // appends it to the end of `basket`.\r\n            basket.push(Underlying({\r\n                name: underlyingName[n],\r\n                amount: basePrice*underlyingWeight[n]/underlyingPrice[n],\r\n                price: underlyingPrice[n]\r\n            }));\r\n        }\r\n\r\n        isIssued = true;\r\n        outstandingBalance = 0;\r\n        fundName = name;\r\n        issueDate=issuingDate;\r\n        fee = managementFee;\r\n\r\n        // Add amount to outstanding\r\n        // Issued amount initially belongs to issuer\r\n        outstandingBalance = outstandingBalance + amount;\r\n        balances[msg.sender] += amount;\r\n\r\n        return true;\r\n    }\r\n\r\n\r\n    function additionalIssue(uint amount) public returns(bool success){\r\n        // make sure the issuer is the one performing issuance\r\n        require(msg.sender == issuer,\r\n                \"Only the issuer can call new issue function.\"\r\n        );\r\n        outstandingBalance = outstandingBalance + amount;\r\n        balances[msg.sender] += amount;\r\n        return true;\r\n    }\r\n\r\n    function updatePrice(bytes32[] underlyingName, uint[] newPrice) public returns(bool success){\r\n        // make sure the issuer is the one performing issuance\r\n        require(msg.sender == issuer,\r\n                \"Only the issuer can call new issue function.\"\r\n        );\r\n\r\n        // update price\r\n        for (uint n = 0; n < underlyingName.length; n++) {\r\n            for (uint i = 0; i < basket.length; i++) {\r\n                if (underlyingName[n] == basket[i].name) {\r\n                    basket[i].price = newPrice[n];\r\n                }\r\n            }\r\n        }\r\n\r\n        return true;\r\n    }\r\n\r\n    // This is the rebalancer\r\n    function rebalance(bytes32[] underlyingName,\r\n                        uint[] underlyingWeight,\r\n                        uint[] underlyingPrice,\r\n                        uint basePrice) public {\r\n        // make sure the issuer is the one performing rebalancing\r\n        if (msg.sender != issuer) return;\r\n\r\n        // Need name and weight and price to have the same length\r\n        require(\r\n            underlyingName.length == underlyingWeight.length && underlyingName.length == underlyingPrice.length,\r\n            \"Number of Shares Names and Number of Share weight and Number of price need to match.\"\r\n        );\r\n\r\n        // Need weight totals to 1 ether\r\n        //for (uint k = 0; k < underlyingName.length; k++) {\r\n        //    uint total = 0;\r\n        //    total = total + underlyingWeight[k];\r\n        //}\r\n        //require(\r\n        //    total == 1 ether,\r\n        //    \"Total of weight need to be 10000 %00\"\r\n        //);\r\n\r\n        // Delete all the old basket\r\n        for (uint o = basket.length; o > 0; o--) {\r\n            // There is no 'basket.pop(...)'\r\n            // need to delete one by one\r\n            delete basket[o-1];\r\n            basket.length--;\r\n        }\r\n        require(\r\n            basket.length == 0,\r\n            \"Need to clear basket before add new basket\"\r\n        );\r\n\r\n        // For each of the provided share name and share weight\r\n        // create a new Underlying object and add it\r\n        // to the end of the array.\r\n        for (uint n = 0; n < underlyingName.length; n++) {\r\n            // 'Underlying({...})' creates a temporary\r\n            // Underlying object and 'basket.push(...)'\r\n            // appends it to the end of `basket`.\r\n            basket.push(Underlying({\r\n                name: underlyingName[n],\r\n                amount: basePrice*underlyingWeight[n]/underlyingPrice[n],\r\n                price: underlyingPrice[n]\r\n            }));\r\n        }\r\n\r\n        //factor = basketFactor;\r\n\r\n        // Add check to check NAV is the same before and after rebalancing\r\n    }\r\n\r\n    function payContract() public payable {\r\n    }\r\n\r\n    function closeFund() public returns(bool success){\r\n        // make sure the issuer is the one performing issuance\r\n        require(msg.sender == issuer,\r\n            \"Only the issuer can update price.\"\r\n        );\r\n\r\n        // Check all units as been redeemed/send back to issuer\r\n        require(balances[issuer] == outstandingBalance,\r\n            \"Part of fund is not redeemed.\"\r\n        );\r\n\r\n        // Send remaining balance(if any) to the Issuer\r\n        uint remainingBal = address(this).balance;\r\n        issuer.transfer(remainingBal); // exclude gas?\r\n\r\n        // Set issued to false and delete all the structs\r\n        isIssued = false;\r\n        // ...\r\n\r\n        return true;\r\n    }\r\n\r\n// ----------------------------------------------------------------------------------\r\n    // user function\r\n\r\n    function sendFund(address receiver, uint amount) public returns(bool sufficient){\r\n        require(msg.sender != issuer,\r\n                \"Issuer cannot send fund.\"\r\n        );\r\n        if (balances[msg.sender] < amount) return;\r\n        balances[msg.sender] -= amount;\r\n        balances[receiver] += amount;\r\n        emit Sent(msg.sender, receiver, amount);\r\n        return true;\r\n    }\r\n\r\n    function userGetSubscribePayable(uint amount) public view returns (uint) {\r\n\r\n        // from getNav\r\n        uint nav = getNAV();\r\n\r\n        // Converstion between ETH and NAV?\r\n        //uint ETHpayable = nav/100*amount;\r\n        uint ETHpayable = nav*amount;\r\n\r\n        // Check ETH balance from user\r\n        uint ETHbalance;\r\n        ETHbalance = (msg.sender).balance;\r\n        // User has to have enough ETH for subscription\r\n        require(ETHbalance >= ETHpayable,\r\n                 \"You don't have enough ETH balance\"\r\n        );\r\n\r\n        // Check GSP balance from issuer\r\n        uint ETFbalance;\r\n        ETFbalance = balances[issuer];\r\n        // Issuer has to have enough GSP note for subscription\r\n        require(ETFbalance >= amount,\r\n                \"Issuer doesn't have enough GSP notes outstanding\"\r\n        );\r\n\r\n        return (ETHpayable);\r\n    }\r\n\r\n    function userSubscribe(uint amount) public payable returns (bool) {\r\n\r\n        // commission stays in the contract, pays at the end\r\n\r\n        // Check ETH balance from user\r\n        uint ETHbalance = (msg.sender).balance;\r\n        // User has to have enough ETH for subscription\r\n        require(ETHbalance >= msg.value,\r\n            \"You don't have enough ETH balance to subscribe.\"\r\n        );\r\n\r\n        // Add note units to user\r\n        balances[msg.sender] += amount;\r\n        balances[issuer] -= amount;\r\n\r\n        return true;\r\n    }\r\n\r\n    function userGetRedeemReceivable(uint amount) public view returns(uint) {\r\n        // from getNav\r\n        uint nav = getNAVwithFeeDeducted();\r\n\r\n        // Converstion between ETH and NAV\r\n        //uint ETHreceivable = nav*amount/100;\r\n        uint ETHreceivable = nav*amount;\r\n\r\n        // Check GSP balance from user\r\n        uint GSPbalance;\r\n        GSPbalance = balances[msg.sender];\r\n        // Issuer has to have enough fund for subscription\r\n        require(GSPbalance >= amount,\r\n                \"You don't have enough fund to redeem\"\r\n        );\r\n\r\n        // view redeemed value\r\n        return(ETHreceivable);\r\n    }\r\n\r\n     function userRedeem(uint amount) public returns(bool) {\r\n        // Allow user to redeem at anytime\r\n\r\n        // from getNav\r\n        uint nav = getNAVwithFeeDeducted();\r\n        //uint ETHreceivable = nav*amount/100;\r\n        uint ETHreceivable = nav*amount;\r\n\r\n        // Check fund balance from user\r\n        uint balance;\r\n        balance = balances[msg.sender];\r\n        // Issuer has to have enough fund for subscription\r\n        require(balance >= amount,\r\n            \"User don't have enough fund to redeem\"\r\n        );\r\n\r\n        // Send equalvilent ether to issuer\r\n        (msg.sender).transfer(ETHreceivable);\r\n\r\n        // Add note units to issuer\r\n        balances[issuer] += amount;\r\n        balances[msg.sender] -= amount;\r\n\r\n        return true;\r\n     }\r\n\r\n\r\n// ----------------------------------------------------------------------------------\r\n    // For display information\r\n    function getIfIssued() public view returns (bool) {\r\n        return isIssued;\r\n    }\r\n\r\n    function getOutstanding() public view returns (uint) {\r\n        return outstandingBalance;\r\n    }\r\n\r\n    function getContractETHBalance() public view returns (uint) {\r\n        return (address(this).balance);\r\n    }\r\n\r\n    function getIssuer() public view returns (address) {\r\n        return issuer;\r\n    }\r\n\r\n    function getFundName() public view returns (bytes32) {\r\n        return fundName;\r\n    }\r\n\r\n    function getFundBalance() public view returns (uint) {\r\n        return balances[msg.sender];\r\n    }\r\n\r\n    function getBasket() public view\r\n        returns (bytes32[] memory _name,uint[] _amount,uint[] _price) {\r\n        uint length = basket.length;\r\n        bytes32[] memory underlyingname = new bytes32[](length);\r\n        uint[] memory amount = new uint[](length);\r\n        uint[] memory price = new uint[](length);\r\n        for (uint i = 0; i < basket.length; i++) {\r\n            underlyingname[i]=basket[i].name;\r\n            amount[i]=basket[i].amount;\r\n            price[i]=basket[i].price;\r\n        }\r\n        return (underlyingname,amount,price);\r\n    }\r\n\r\n    function getNAV() public view returns (uint) {\r\n        uint nav = 0;\r\n        uint eth = 1 ether;\r\n\r\n        //Adding Underlying price\r\n        for (uint i = 0; i < basket.length; i++) {\r\n            nav = nav + basket[i].price * basket[i].amount;\r\n        }\r\n\r\n        // Adjust\r\n        nav = nav/eth;\r\n\r\n        return nav;\r\n    }\r\n\r\n    function getNAVwithFeeDeducted() public view returns (uint) {\r\n        uint nav = 0;\r\n        uint eth = 1 ether;\r\n\r\n        //Adding Underlying price\r\n        for (uint i = 0; i < basket.length; i++) {\r\n            nav  = nav + basket[i].price * basket[i].amount;\r\n        }\r\n\r\n        // Adjust\r\n        nav = nav/eth;\r\n\r\n        // minus fee\r\n        uint managementFee = nav*fee/eth;\r\n\r\n        return nav-managementFee;\r\n    }\r\n\r\n}\r\n",
  "sourcePath": "C:\\Users\\jzqav\\CoinCapitalMarkets\\contracts\\IDXBase.sol",
  "compiler": {
    "name": "solc",
    "version": "0.4.24+commit.e67f0147.Emscripten.clang"
  },
  "schemaVersion": "2.0.1",
  "updatedAt": "2018-09-17T23:10:12.982Z"
}