{
  "contractName": "IDXERC721",
  "abi": [
    {
      "constant": true,
      "inputs": [],
      "name": "getNAV",
      "outputs": [
        {
          "name": "",
          "type": "uint256"
        }
      ],
      "payable": false,
      "stateMutability": "view",
      "type": "function"
    },
    {
      "constant": true,
      "inputs": [
        {
          "name": "_interfaceId",
          "type": "bytes4"
        }
      ],
      "name": "supportsInterface",
      "outputs": [
        {
          "name": "",
          "type": "bool"
        }
      ],
      "payable": false,
      "stateMutability": "view",
      "type": "function"
    },
    {
      "constant": true,
      "inputs": [],
      "name": "InterfaceId_ERC165",
      "outputs": [
        {
          "name": "",
          "type": "bytes4"
        }
      ],
      "payable": false,
      "stateMutability": "view",
      "type": "function"
    },
    {
      "constant": true,
      "inputs": [],
      "name": "issuer",
      "outputs": [
        {
          "name": "",
          "type": "address"
        }
      ],
      "payable": false,
      "stateMutability": "view",
      "type": "function"
    },
    {
      "constant": true,
      "inputs": [
        {
          "name": "amount",
          "type": "uint256"
        }
      ],
      "name": "userGetSubscribePayable",
      "outputs": [
        {
          "name": "",
          "type": "uint256"
        }
      ],
      "payable": false,
      "stateMutability": "view",
      "type": "function"
    },
    {
      "constant": true,
      "inputs": [
        {
          "name": "",
          "type": "address"
        }
      ],
      "name": "balances",
      "outputs": [
        {
          "name": "",
          "type": "uint256"
        }
      ],
      "payable": false,
      "stateMutability": "view",
      "type": "function"
    },
    {
      "constant": true,
      "inputs": [
        {
          "name": "_owner",
          "type": "address"
        },
        {
          "name": "_index",
          "type": "uint256"
        }
      ],
      "name": "tokenOfOwnerByIndex",
      "outputs": [
        {
          "name": "",
          "type": "uint256"
        }
      ],
      "payable": false,
      "stateMutability": "view",
      "type": "function"
    },
    {
      "constant": true,
      "inputs": [],
      "name": "outstandingBalance",
      "outputs": [
        {
          "name": "",
          "type": "uint256"
        }
      ],
      "payable": false,
      "stateMutability": "view",
      "type": "function"
    },
    {
      "constant": false,
      "inputs": [
        {
          "name": "receiver",
          "type": "address"
        },
        {
          "name": "amount",
          "type": "uint256"
        }
      ],
      "name": "sendFund",
      "outputs": [
        {
          "name": "sufficient",
          "type": "bool"
        }
      ],
      "payable": false,
      "stateMutability": "nonpayable",
      "type": "function"
    },
    {
      "constant": true,
      "inputs": [
        {
          "name": "_index",
          "type": "uint256"
        }
      ],
      "name": "tokenByIndex",
      "outputs": [
        {
          "name": "",
          "type": "uint256"
        }
      ],
      "payable": false,
      "stateMutability": "view",
      "type": "function"
    },
    {
      "constant": true,
      "inputs": [],
      "name": "getIssuer",
      "outputs": [
        {
          "name": "",
          "type": "address"
        }
      ],
      "payable": false,
      "stateMutability": "view",
      "type": "function"
    },
    {
      "constant": true,
      "inputs": [],
      "name": "getOutstanding",
      "outputs": [
        {
          "name": "",
          "type": "uint256"
        }
      ],
      "payable": false,
      "stateMutability": "view",
      "type": "function"
    },
    {
      "constant": true,
      "inputs": [
        {
          "name": "",
          "type": "uint256"
        }
      ],
      "name": "basket",
      "outputs": [
        {
          "name": "name",
          "type": "bytes32"
        },
        {
          "name": "amount",
          "type": "uint256"
        },
        {
          "name": "price",
          "type": "uint256"
        }
      ],
      "payable": false,
      "stateMutability": "view",
      "type": "function"
    },
    {
      "constant": true,
      "inputs": [],
      "name": "getContractETHBalance",
      "outputs": [
        {
          "name": "",
          "type": "uint256"
        }
      ],
      "payable": false,
      "stateMutability": "view",
      "type": "function"
    },
    {
      "constant": true,
      "inputs": [],
      "name": "getNAVwithFeeDeducted",
      "outputs": [
        {
          "name": "",
          "type": "uint256"
        }
      ],
      "payable": false,
      "stateMutability": "view",
      "type": "function"
    },
    {
      "constant": false,
      "inputs": [
        {
          "name": "amount",
          "type": "uint256"
        }
      ],
      "name": "userRedeem",
      "outputs": [
        {
          "name": "",
          "type": "bool"
        }
      ],
      "payable": false,
      "stateMutability": "nonpayable",
      "type": "function"
    },
    {
      "constant": true,
      "inputs": [],
      "name": "getFundName",
      "outputs": [
        {
          "name": "",
          "type": "bytes32"
        }
      ],
      "payable": false,
      "stateMutability": "view",
      "type": "function"
    },
    {
      "constant": true,
      "inputs": [],
      "name": "symbol_",
      "outputs": [
        {
          "name": "",
          "type": "string"
        }
      ],
      "payable": false,
      "stateMutability": "view",
      "type": "function"
    },
    {
      "constant": false,
      "inputs": [
        {
          "name": "underlyingName",
          "type": "bytes32[]"
        },
        {
          "name": "newPrice",
          "type": "uint256[]"
        }
      ],
      "name": "updatePrice",
      "outputs": [
        {
          "name": "success",
          "type": "bool"
        }
      ],
      "payable": false,
      "stateMutability": "nonpayable",
      "type": "function"
    },
    {
      "constant": false,
      "inputs": [
        {
          "name": "amount",
          "type": "uint256"
        }
      ],
      "name": "additionalIssue",
      "outputs": [
        {
          "name": "success",
          "type": "bool"
        }
      ],
      "payable": false,
      "stateMutability": "nonpayable",
      "type": "function"
    },
    {
      "constant": true,
      "inputs": [],
      "name": "getIfIssued",
      "outputs": [
        {
          "name": "",
          "type": "bool"
        }
      ],
      "payable": false,
      "stateMutability": "view",
      "type": "function"
    },
    {
      "constant": true,
      "inputs": [
        {
          "name": "_tokenId",
          "type": "uint256"
        }
      ],
      "name": "tokenURI",
      "outputs": [
        {
          "name": "",
          "type": "string"
        }
      ],
      "payable": false,
      "stateMutability": "view",
      "type": "function"
    },
    {
      "constant": true,
      "inputs": [],
      "name": "getBasket",
      "outputs": [
        {
          "name": "_name",
          "type": "bytes32[]"
        },
        {
          "name": "_amount",
          "type": "uint256[]"
        },
        {
          "name": "_price",
          "type": "uint256[]"
        }
      ],
      "payable": false,
      "stateMutability": "view",
      "type": "function"
    },
    {
      "constant": true,
      "inputs": [
        {
          "name": "amount",
          "type": "uint256"
        }
      ],
      "name": "userGetRedeemReceivable",
      "outputs": [
        {
          "name": "",
          "type": "uint256"
        }
      ],
      "payable": false,
      "stateMutability": "view",
      "type": "function"
    },
    {
      "constant": true,
      "inputs": [],
      "name": "getFundBalance",
      "outputs": [
        {
          "name": "",
          "type": "uint256"
        }
      ],
      "payable": false,
      "stateMutability": "view",
      "type": "function"
    },
    {
      "constant": false,
      "inputs": [
        {
          "name": "underlyingName",
          "type": "bytes32[]"
        },
        {
          "name": "underlyingWeight",
          "type": "uint256[]"
        },
        {
          "name": "underlyingPrice",
          "type": "uint256[]"
        },
        {
          "name": "basePrice",
          "type": "uint256"
        }
      ],
      "name": "rebalance",
      "outputs": [],
      "payable": false,
      "stateMutability": "nonpayable",
      "type": "function"
    },
    {
      "constant": false,
      "inputs": [
        {
          "name": "amount",
          "type": "uint256"
        }
      ],
      "name": "userSubscribe",
      "outputs": [
        {
          "name": "",
          "type": "bool"
        }
      ],
      "payable": true,
      "stateMutability": "payable",
      "type": "function"
    },
    {
      "constant": true,
      "inputs": [],
      "name": "name_",
      "outputs": [
        {
          "name": "",
          "type": "string"
        }
      ],
      "payable": false,
      "stateMutability": "view",
      "type": "function"
    },
    {
      "constant": false,
      "inputs": [],
      "name": "closeFund",
      "outputs": [
        {
          "name": "success",
          "type": "bool"
        }
      ],
      "payable": false,
      "stateMutability": "nonpayable",
      "type": "function"
    },
    {
      "constant": false,
      "inputs": [
        {
          "name": "underlyingName",
          "type": "bytes32[]"
        },
        {
          "name": "underlyingWeight",
          "type": "uint256[]"
        },
        {
          "name": "underlyingPrice",
          "type": "uint256[]"
        },
        {
          "name": "basePrice",
          "type": "uint256"
        },
        {
          "name": "name",
          "type": "bytes32"
        },
        {
          "name": "issuingDate",
          "type": "bytes32"
        },
        {
          "name": "managementFee",
          "type": "uint256"
        },
        {
          "name": "amount",
          "type": "uint256"
        }
      ],
      "name": "newIssue",
      "outputs": [
        {
          "name": "success",
          "type": "bool"
        }
      ],
      "payable": false,
      "stateMutability": "nonpayable",
      "type": "function"
    },
    {
      "constant": false,
      "inputs": [],
      "name": "payContract",
      "outputs": [],
      "payable": true,
      "stateMutability": "payable",
      "type": "function"
    },
    {
      "inputs": [
        {
          "name": "_name",
          "type": "string"
        },
        {
          "name": "_symbol",
          "type": "string"
        }
      ],
      "payable": false,
      "stateMutability": "nonpayable",
      "type": "constructor"
    },
    {
      "anonymous": false,
      "inputs": [
        {
          "indexed": true,
          "name": "_from",
          "type": "address"
        },
        {
          "indexed": true,
          "name": "_to",
          "type": "address"
        },
        {
          "indexed": true,
          "name": "_tokenId",
          "type": "uint256"
        }
      ],
      "name": "Transfer",
      "type": "event"
    },
    {
      "anonymous": false,
      "inputs": [
        {
          "indexed": true,
          "name": "_owner",
          "type": "address"
        },
        {
          "indexed": true,
          "name": "_approved",
          "type": "address"
        },
        {
          "indexed": true,
          "name": "_tokenId",
          "type": "uint256"
        }
      ],
      "name": "Approval",
      "type": "event"
    },
    {
      "anonymous": false,
      "inputs": [
        {
          "indexed": true,
          "name": "_owner",
          "type": "address"
        },
        {
          "indexed": true,
          "name": "_operator",
          "type": "address"
        },
        {
          "indexed": false,
          "name": "_approved",
          "type": "bool"
        }
      ],
      "name": "ApprovalForAll",
      "type": "event"
    },
    {
      "anonymous": false,
      "inputs": [
        {
          "indexed": false,
          "name": "from",
          "type": "address"
        },
        {
          "indexed": false,
          "name": "to",
          "type": "address"
        },
        {
          "indexed": false,
          "name": "amount",
          "type": "uint256"
        }
      ],
      "name": "Sent",
      "type": "event"
    },
    {
      "constant": true,
      "inputs": [],
      "name": "name",
      "outputs": [
        {
          "name": "",
          "type": "string"
        }
      ],
      "payable": false,
      "stateMutability": "view",
      "type": "function"
    },
    {
      "constant": true,
      "inputs": [],
      "name": "symbol",
      "outputs": [
        {
          "name": "",
          "type": "string"
        }
      ],
      "payable": false,
      "stateMutability": "view",
      "type": "function"
    },
    {
      "constant": true,
      "inputs": [],
      "name": "totalSupply",
      "outputs": [
        {
          "name": "",
          "type": "uint256"
        }
      ],
      "payable": false,
      "stateMutability": "view",
      "type": "function"
    },
    {
      "constant": true,
      "inputs": [
        {
          "name": "_owner",
          "type": "address"
        }
      ],
      "name": "balanceOf",
      "outputs": [
        {
          "name": "_balance",
          "type": "uint256"
        }
      ],
      "payable": false,
      "stateMutability": "view",
      "type": "function"
    },
    {
      "constant": true,
      "inputs": [
        {
          "name": "_tokenId",
          "type": "uint256"
        }
      ],
      "name": "ownerOf",
      "outputs": [
        {
          "name": "_owner",
          "type": "address"
        }
      ],
      "payable": false,
      "stateMutability": "view",
      "type": "function"
    },
    {
      "constant": true,
      "inputs": [
        {
          "name": "_tokenId",
          "type": "uint256"
        }
      ],
      "name": "exists",
      "outputs": [
        {
          "name": "_exists",
          "type": "bool"
        }
      ],
      "payable": false,
      "stateMutability": "view",
      "type": "function"
    },
    {
      "constant": false,
      "inputs": [
        {
          "name": "_to",
          "type": "address"
        },
        {
          "name": "_tokenId",
          "type": "uint256"
        }
      ],
      "name": "approve",
      "outputs": [],
      "payable": false,
      "stateMutability": "nonpayable",
      "type": "function"
    },
    {
      "constant": true,
      "inputs": [
        {
          "name": "_tokenId",
          "type": "uint256"
        }
      ],
      "name": "getApproved",
      "outputs": [
        {
          "name": "_operator",
          "type": "address"
        }
      ],
      "payable": false,
      "stateMutability": "view",
      "type": "function"
    },
    {
      "constant": false,
      "inputs": [
        {
          "name": "_operator",
          "type": "address"
        },
        {
          "name": "_approved",
          "type": "bool"
        }
      ],
      "name": "setApprovalForAll",
      "outputs": [],
      "payable": false,
      "stateMutability": "nonpayable",
      "type": "function"
    },
    {
      "constant": true,
      "inputs": [
        {
          "name": "_owner",
          "type": "address"
        },
        {
          "name": "_operator",
          "type": "address"
        }
      ],
      "name": "isApprovedForAll",
      "outputs": [
        {
          "name": "",
          "type": "bool"
        }
      ],
      "payable": false,
      "stateMutability": "view",
      "type": "function"
    },
    {
      "constant": false,
      "inputs": [
        {
          "name": "_from",
          "type": "address"
        },
        {
          "name": "_to",
          "type": "address"
        },
        {
          "name": "_tokenId",
          "type": "uint256"
        }
      ],
      "name": "transferFrom",
      "outputs": [],
      "payable": false,
      "stateMutability": "nonpayable",
      "type": "function"
    },
    {
      "constant": false,
      "inputs": [
        {
          "name": "_from",
          "type": "address"
        },
        {
          "name": "_to",
          "type": "address"
        },
        {
          "name": "_tokenId",
          "type": "uint256"
        }
      ],
      "name": "safeTransferFrom",
      "outputs": [],
      "payable": false,
      "stateMutability": "nonpayable",
      "type": "function"
    },
    {
      "constant": false,
      "inputs": [
        {
          "name": "_from",
          "type": "address"
        },
        {
          "name": "_to",
          "type": "address"
        },
        {
          "name": "_tokenId",
          "type": "uint256"
        },
        {
          "name": "_data",
          "type": "bytes"
        }
      ],
      "name": "safeTransferFrom",
      "outputs": [],
      "payable": false,
      "stateMutability": "nonpayable",
      "type": "function"
    }
  ],
  "bytecode": "0x60806040526040805190810160405280600f81526020017f43434d49445854657374546f6b656e0000000000000000000000000000000000815250601390805190602001906200005192919062000478565b506040805190810160405280600781526020017f4944585465737400000000000000000000000000000000000000000000000000815250601490805190602001906200009f92919062000478565b50348015620000ad57600080fd5b50604051620037c0380380620037c083398101806040528101908080518201929190602001805182019291905050508181336001806101000a81548173ffffffffffffffffffffffffffffffffffffffff021916908373ffffffffffffffffffffffffffffffffffffffff1602179055506000600160006101000a81548160ff021916908315150217905550620001766301ffc9a77c010000000000000000000000000000000000000000000000000000000002620003b9640100000000026401000000009004565b620001b36380ac58cd7c010000000000000000000000000000000000000000000000000000000002620003b9640100000000026401000000009004565b620001f0634f558e797c010000000000000000000000000000000000000000000000000000000002620003b9640100000000026401000000009004565b81600c90805190602001906200020892919062000478565b5080600d90805190602001906200022192919062000478565b506200025f63780e9d637c010000000000000000000000000000000000000000000000000000000002620003b9640100000000026401000000009004565b6200029c635b5e139f7c010000000000000000000000000000000000000000000000000000000002620003b9640100000000026401000000009004565b5050336001806101000a81548173ffffffffffffffffffffffffffffffffffffffff021916908373ffffffffffffffffffffffffffffffffffffffff1602179055506000600160006101000a81548160ff02191690831515021790555081601390805190602001906200031192919062000478565b5080601490805190602001906200032a92919062000478565b506402540be4006015819055506200037463780e9d637c010000000000000000000000000000000000000000000000000000000002620003b9640100000000026401000000009004565b620003b1635b5e139f7c010000000000000000000000000000000000000000000000000000000002620003b9640100000000026401000000009004565b505062000527565b63ffffffff7c010000000000000000000000000000000000000000000000000000000002817bffffffffffffffffffffffffffffffffffffffffffffffffffffffff1916141515156200040b57600080fd5b600160076000837bffffffffffffffffffffffffffffffffffffffffffffffffffffffff19167bffffffffffffffffffffffffffffffffffffffffffffffffffffffff1916815260200190815260200160002060006101000a81548160ff02191690831515021790555050565b828054600181600116156101000203166002900490600052602060002090601f016020900481019282601f10620004bb57805160ff1916838001178555620004ec565b82800160010185558215620004ec579182015b82811115620004eb578251825591602001919060010190620004ce565b5b509050620004fb9190620004ff565b5090565b6200052491905b808211156200052057600081600090555060010162000506565b5090565b90565b61328980620005376000396000f30060806040526004361061021a576000357c0100000000000000000000000000000000000000000000000000000000900463ffffffff1680630126c6061461021f57806301ffc9a71461024a57806306fdde03146102ae578063081812fc1461033e578063095ea7b3146103ab57806318160ddd146103f857806319fa8f50146104235780631d1438481461048c57806323b872dd146104e3578063277b35a11461055057806327e235e3146105915780632f745c59146105e85780633133f2a71461064957806342842e0e146106745780634b569450146106e15780634f558e79146107465780634f6ccce71461078b57806352556421146107cc5780636352211e1461082357806370a08231146108905780637a4ee555146108e75780638c7e0875146109125780638c89a0ad14610969578063941af1e81461099457806395d89b41146109bf578063a22cb46514610a4f578063a3046b9414610a9e578063a87fe87e14610ae3578063af17dea614610b16578063b2bffcc314610ba6578063b369f42314610c67578063b88d4fde14610cac578063be57384b14610d5f578063c87b56dd14610d8e578063cd6ef2b014610e34578063cdbd071114610f30578063dae9e37914610f71578063e0c8f52014610f9c578063e0ded77614611092578063e2b9e186146110ca578063e3a1c6fe1461115a578063e985e9c514611189578063eb28121a14611204578063ecb0b86214611342575b600080fd5b34801561022b57600080fd5b5061023461134c565b6040518082815260200191505060405180910390f35b34801561025657600080fd5b5061029460048036038101908080357bffffffffffffffffffffffffffffffffffffffffffffffffffffffff191690602001909291905050506113de565b604051808215151515815260200191505060405180910390f35b3480156102ba57600080fd5b506102c3611446565b6040518080602001828103825283818151815260200191508051906020019080838360005b838110156103035780820151818401526020810190506102e8565b50505050905090810190601f1680156103305780820380516001836020036101000a031916815260200191505b509250505060405180910390f35b34801561034a57600080fd5b50610369600480360381019080803590602001909291905050506114e8565b604051808273ffffffffffffffffffffffffffffffffffffffff1673ffffffffffffffffffffffffffffffffffffffff16815260200191505060405180910390f35b3480156103b757600080fd5b506103f6600480360381019080803573ffffffffffffffffffffffffffffffffffffffff169060200190929190803590602001909291905050506114f2565b005b34801561040457600080fd5b5061040d6114f6565b6040518082815260200191505060405180910390f35b34801561042f57600080fd5b50610438611500565b60405180827bffffffffffffffffffffffffffffffffffffffffffffffffffffffff19167bffffffffffffffffffffffffffffffffffffffffffffffffffffffff1916815260200191505060405180910390f35b34801561049857600080fd5b506104a1611527565b604051808273ffffffffffffffffffffffffffffffffffffffff1673ffffffffffffffffffffffffffffffffffffffff16815260200191505060405180910390f35b3480156104ef57600080fd5b5061054e600480360381019080803573ffffffffffffffffffffffffffffffffffffffff169060200190929190803573ffffffffffffffffffffffffffffffffffffffff1690602001909291908035906020019092919050505061154c565b005b34801561055c57600080fd5b5061057b60048036038101908080359060200190929190505050611551565b6040518082815260200191505060405180910390f35b34801561059d57600080fd5b506105d2600480360381019080803573ffffffffffffffffffffffffffffffffffffffff16906020019092919050505061172d565b6040518082815260200191505060405180910390f35b3480156105f457600080fd5b50610633600480360381019080803573ffffffffffffffffffffffffffffffffffffffff16906020019092919080359060200190929190505050611745565b6040518082815260200191505060405180910390f35b34801561065557600080fd5b5061065e6117bc565b6040518082815260200191505060405180910390f35b34801561068057600080fd5b506106df600480360381019080803573ffffffffffffffffffffffffffffffffffffffff169060200190929190803573ffffffffffffffffffffffffffffffffffffffff169060200190929190803590602001909291905050506117c2565b005b3480156106ed57600080fd5b5061072c600480360381019080803573ffffffffffffffffffffffffffffffffffffffff169060200190929190803590602001909291905050506117c7565b604051808215151515815260200191505060405180910390f35b34801561075257600080fd5b5061077160048036038101908080359060200190929190505050611a1e565b604051808215151515815260200191505060405180910390f35b34801561079757600080fd5b506107b660048036038101908080359060200190929190505050611a29565b6040518082815260200191505060405180910390f35b3480156107d857600080fd5b506107e1611a61565b604051808273ffffffffffffffffffffffffffffffffffffffff1673ffffffffffffffffffffffffffffffffffffffff16815260200191505060405180910390f35b34801561082f57600080fd5b5061084e60048036038101908080359060200190929190505050611a8a565b604051808273ffffffffffffffffffffffffffffffffffffffff1673ffffffffffffffffffffffffffffffffffffffff16815260200191505060405180910390f35b34801561089c57600080fd5b506108d1600480360381019080803573ffffffffffffffffffffffffffffffffffffffff169060200190929190505050611a94565b6040518082815260200191505060405180910390f35b3480156108f357600080fd5b506108fc611add565b6040518082815260200191505060405180910390f35b34801561091e57600080fd5b5061093d60048036038101908080359060200190929190505050611ae7565b604051808460001916600019168152602001838152602001828152602001935050505060405180910390f35b34801561097557600080fd5b5061097e611b20565b6040518082815260200191505060405180910390f35b3480156109a057600080fd5b506109a9611b3f565b6040518082815260200191505060405180910390f35b3480156109cb57600080fd5b506109d4611be7565b6040518080602001828103825283818151815260200191508051906020019080838360005b83811015610a145780820151818401526020810190506109f9565b50505050905090810190601f168015610a415780820380516001836020036101000a031916815260200191505b509250505060405180910390f35b348015610a5b57600080fd5b50610a9c600480360381019080803573ffffffffffffffffffffffffffffffffffffffff169060200190929190803515159060200190929190505050611c89565b005b348015610aaa57600080fd5b50610ac960048036038101908080359060200190929190505050611c8d565b604051808215151515815260200191505060405180910390f35b348015610aef57600080fd5b50610af8611e90565b60405180826000191660001916815260200191505060405180910390f35b348015610b2257600080fd5b50610b2b611e9a565b6040518080602001828103825283818151815260200191508051906020019080838360005b83811015610b6b578082015181840152602081019050610b50565b50505050905090810190601f168015610b985780820380516001836020036101000a031916815260200191505b509250505060405180910390f35b348015610bb257600080fd5b50610c4d6004803603810190808035906020019082018035906020019080806020026020016040519081016040528093929190818152602001838360200280828437820191505050505050919291929080359060200190820180359060200190808060200260200160405190810160405280939291908181526020018383602002808284378201915050505050509192919290505050611f38565b604051808215151515815260200191505060405180910390f35b348015610c7357600080fd5b50610c92600480360381019080803590602001909291905050506120f1565b604051808215151515815260200191505060405180910390f35b348015610cb857600080fd5b50610d5d600480360381019080803573ffffffffffffffffffffffffffffffffffffffff169060200190929190803573ffffffffffffffffffffffffffffffffffffffff16906020019092919080359060200190929190803590602001908201803590602001908080601f016020809104026020016040519081016040528093929190818152602001838380828437820191505050505050919291929050505061223e565b005b348015610d6b57600080fd5b50610d74612244565b604051808215151515815260200191505060405180910390f35b348015610d9a57600080fd5b50610db96004803603810190808035906020019092919050505061225b565b6040518080602001828103825283818151815260200191508051906020019080838360005b83811015610df9578082015181840152602081019050610dde565b50505050905090810190601f168015610e265780820380516001836020036101000a031916815260200191505b509250505060405180910390f35b348015610e4057600080fd5b50610e49612324565b60405180806020018060200180602001848103845287818151815260200191508051906020019060200280838360005b83811015610e94578082015181840152602081019050610e79565b50505050905001848103835286818151815260200191508051906020019060200280838360005b83811015610ed6578082015181840152602081019050610ebb565b50505050905001848103825285818151815260200191508051906020019060200280838360005b83811015610f18578082015181840152602081019050610efd565b50505050905001965050505050505060405180910390f35b348015610f3c57600080fd5b50610f5b600480360381019080803590602001909291905050506124c2565b6040518082815260200191505060405180910390f35b348015610f7d57600080fd5b50610f866125c2565b6040518082815260200191505060405180910390f35b348015610fa857600080fd5b5061109060048036038101908080359060200190820180359060200190808060200260200160405190810160405280939291908181526020018383602002808284378201915050505050509192919290803590602001908201803590602001908080602002602001604051908101604052809392919081815260200183836020028082843782019150505050505091929192908035906020019082018035906020019080806020026020016040519081016040528093929190818152602001838360200280828437820191505050505050919291929080359060200190929190505050612609565b005b6110b06004803603810190808035906020019092919050505061294d565b604051808215151515815260200191505060405180910390f35b3480156110d657600080fd5b506110df612acd565b6040518080602001828103825283818151815260200191508051906020019080838360005b8381101561111f578082015181840152602081019050611104565b50505050905090810190601f16801561114c5780820380516001836020036101000a031916815260200191505b509250505060405180910390f35b34801561116657600080fd5b5061116f612b6b565b604051808215151515815260200191505060405180910390f35b34801561119557600080fd5b506111ea600480360381019080803573ffffffffffffffffffffffffffffffffffffffff169060200190929190803573ffffffffffffffffffffffffffffffffffffffff169060200190929190505050612dd6565b604051808215151515815260200191505060405180910390f35b34801561121057600080fd5b5061132860048036038101908080359060200190820180359060200190808060200260200160405190810160405280939291908181526020018383602002808284378201915050505050509192919290803590602001908201803590602001908080602002602001604051908101604052809392919081815260200183836020028082843782019150505050505091929192908035906020019082018035906020019080806020026020016040519081016040528093929190818152602001838360200280828437820191505050505050919291929080359060200190929190803560001916906020019092919080356000191690602001909291908035906020019092919080359060200190929190505050612de2565b604051808215151515815260200191505060405180910390f35b61134a6131f2565b005b60008060008060009250670de0b6b3a76400009150600090505b6000805490508110156113c75760008181548110151561138257fe5b9060005260206000209060030201600101546000828154811015156113a357fe5b90600052602060002090600302016002015402830192508080600101915050611366565b81838115156113d257fe5b04925082935050505090565b600060076000837bffffffffffffffffffffffffffffffffffffffffffffffffffffffff19167bffffffffffffffffffffffffffffffffffffffffffffffffffffffff1916815260200190815260200160002060009054906101000a900460ff169050919050565b606060138054600181600116156101000203166002900480601f0160208091040260200160405190810160405280929190818152602001828054600181600116156101000203166002900480156114de5780601f106114b3576101008083540402835291602001916114de565b820191906000526020600020905b8154815290600101906020018083116114c157829003601f168201915b5050505050905090565b6000339050919050565b5050565b6000601554905090565b6301ffc9a77c01000000000000000000000000000000000000000000000000000000000281565b6001809054906101000a900473ffffffffffffffffffffffffffffffffffffffff1681565b505050565b600080600080600061156161134c565b935085840292503373ffffffffffffffffffffffffffffffffffffffff16319150828210151515611620576040517f08c379a00000000000000000000000000000000000000000000000000000000081526004018080602001828103825260218152602001807f596f7520646f6e2774206861766520656e6f756768204554482062616c616e6381526020017f650000000000000000000000000000000000000000000000000000000000000081525060400191505060405180910390fd5b600660006001809054906101000a900473ffffffffffffffffffffffffffffffffffffffff1673ffffffffffffffffffffffffffffffffffffffff1673ffffffffffffffffffffffffffffffffffffffff168152602001908152602001600020549050858110151515611721576040517f08c379a00000000000000000000000000000000000000000000000000000000081526004018080602001828103825260308152602001807f49737375657220646f65736e2774206861766520656e6f75676820475350206e81526020017f6f746573206f75747374616e64696e670000000000000000000000000000000081525060400191505060405180910390fd5b82945050505050919050565b60066020528060005260406000206000915090505481565b600061175083611a94565b8210151561175d57600080fd5b600e60008473ffffffffffffffffffffffffffffffffffffffff1673ffffffffffffffffffffffffffffffffffffffff168152602001908152602001600020828154811015156117a957fe5b9060005260206000200154905092915050565b60055481565b505050565b60006001809054906101000a900473ffffffffffffffffffffffffffffffffffffffff1673ffffffffffffffffffffffffffffffffffffffff163373ffffffffffffffffffffffffffffffffffffffff161415151561188e576040517f08c379a00000000000000000000000000000000000000000000000000000000081526004018080602001828103825260188152602001807f4973737565722063616e6e6f742073656e642066756e642e000000000000000081525060200191505060405180910390fd5b81600660003373ffffffffffffffffffffffffffffffffffffffff1673ffffffffffffffffffffffffffffffffffffffff1681526020019081526020016000205410156118da57611a18565b81600660003373ffffffffffffffffffffffffffffffffffffffff1673ffffffffffffffffffffffffffffffffffffffff1681526020019081526020016000206000828254039250508190555081600660008573ffffffffffffffffffffffffffffffffffffffff1673ffffffffffffffffffffffffffffffffffffffff168152602001908152602001600020600082825401925050819055507f3990db2d31862302a685e8086b5755072a6e2b5b780af1ee81ece35ee3cd3345338484604051808473ffffffffffffffffffffffffffffffffffffffff1673ffffffffffffffffffffffffffffffffffffffff1681526020018373ffffffffffffffffffffffffffffffffffffffff1673ffffffffffffffffffffffffffffffffffffffff168152602001828152602001935050505060405180910390a1600190505b92915050565b600060019050919050565b6000611a336114f6565b82101515611a4057600080fd5b601082815481101515611a4f57fe5b90600052602060002001549050919050565b60006001809054906101000a900473ffffffffffffffffffffffffffffffffffffffff16905090565b6000339050919050565b6000600660008373ffffffffffffffffffffffffffffffffffffffff1673ffffffffffffffffffffffffffffffffffffffff168152602001908152602001600020549050919050565b6000600554905090565b600081815481101515611af657fe5b90600052602060002090600302016000915090508060000154908060010154908060020154905083565b60003073ffffffffffffffffffffffffffffffffffffffff1631905090565b6000806000806000809350670de0b6b3a76400009250600091505b600080549050821015611bbb57600082815481101515611b7657fe5b906000526020600020906003020160010154600083815481101515611b9757fe5b90600052602060002090600302016002015402840193508180600101925050611b5a565b8284811515611bc657fe5b049350826004548502811515611bd857fe5b04905080840394505050505090565b606060148054600181600116156101000203166002900480601f016020809104026020016040519081016040528092919081815260200182805460018160011615610100020316600290048015611c7f5780601f10611c5457610100808354040283529160200191611c7f565b820191906000526020600020905b815481529060010190602001808311611c6257829003601f168201915b5050505050905090565b5050565b600080600080611c9b611b3f565b92508483029150600660003373ffffffffffffffffffffffffffffffffffffffff1673ffffffffffffffffffffffffffffffffffffffff168152602001908152602001600020549050848110151515611d82576040517f08c379a00000000000000000000000000000000000000000000000000000000081526004018080602001828103825260258152602001807f5573657220646f6e2774206861766520656e6f7567682066756e6420746f207281526020017f656465656d00000000000000000000000000000000000000000000000000000081525060400191505060405180910390fd5b3373ffffffffffffffffffffffffffffffffffffffff166108fc839081150290604051600060405180830381858888f19350505050158015611dc8573d6000803e3d6000fd5b5084600660006001809054906101000a900473ffffffffffffffffffffffffffffffffffffffff1673ffffffffffffffffffffffffffffffffffffffff1673ffffffffffffffffffffffffffffffffffffffff1681526020019081526020016000206000828254019250508190555084600660003373ffffffffffffffffffffffffffffffffffffffff1673ffffffffffffffffffffffffffffffffffffffff1681526020019081526020016000206000828254039250508190555060019350505050919050565b6000600254905090565b60148054600181600116156101000203166002900480601f016020809104026020016040519081016040528092919081815260200182805460018160011615610100020316600290048015611f305780601f10611f0557610100808354040283529160200191611f30565b820191906000526020600020905b815481529060010190602001808311611f1357829003601f168201915b505050505081565b60008060006001809054906101000a900473ffffffffffffffffffffffffffffffffffffffff1673ffffffffffffffffffffffffffffffffffffffff163373ffffffffffffffffffffffffffffffffffffffff16141515612027576040517f08c379a000000000000000000000000000000000000000000000000000000000815260040180806020018281038252602c8152602001807f4f6e6c7920746865206973737565722063616e2063616c6c206e65772069737381526020017f75652066756e6374696f6e2e000000000000000000000000000000000000000081525060400191505060405180910390fd5b600091505b84518210156120e557600090505b6000805490508110156120d85760008181548110151561205657fe5b90600052602060002090600302016000015460001916858381518110151561207a57fe5b906020019060200201516000191614156120cb57838281518110151561209c57fe5b906020019060200201516000828154811015156120b557fe5b9060005260206000209060030201600201819055505b808060010191505061203a565b818060010192505061202c565b60019250505092915050565b60006001809054906101000a900473ffffffffffffffffffffffffffffffffffffffff1673ffffffffffffffffffffffffffffffffffffffff163373ffffffffffffffffffffffffffffffffffffffff161415156121dd576040517f08c379a000000000000000000000000000000000000000000000000000000000815260040180806020018281038252602c8152602001807f4f6e6c7920746865206973737565722063616e2063616c6c206e65772069737381526020017f75652066756e6374696f6e2e000000000000000000000000000000000000000081525060400191505060405180910390fd5b816005540160058190555081600660003373ffffffffffffffffffffffffffffffffffffffff1673ffffffffffffffffffffffffffffffffffffffff1681526020019081526020016000206000828254019250508190555060019050919050565b50505050565b6000600160009054906101000a900460ff16905090565b606061226682611a1e565b151561227157600080fd5b601260008381526020019081526020016000208054600181600116156101000203166002900480601f0160208091040260200160405190810160405280929190818152602001828054600181600116156101000203166002900480156123185780601f106122ed57610100808354040283529160200191612318565b820191906000526020600020905b8154815290600101906020018083116122fb57829003601f168201915b50505050509050919050565b606080606060006060806060600080805490509450846040519080825280602002602001820160405280156123685781602001602082028038833980820191505090505b5093508460405190808252806020026020018201604052801561239a5781602001602082028038833980820191505090505b509250846040519080825280602002602001820160405280156123cc5781602001602082028038833980820191505090505b509150600090505b6000805490508110156124af576000818154811015156123f057fe5b906000526020600020906003020160000154848281518110151561241057fe5b90602001906020020190600019169081600019168152505060008181548110151561243757fe5b906000526020600020906003020160010154838281518110151561245757fe5b906020019060200201818152505060008181548110151561247457fe5b906000526020600020906003020160020154828281518110151561249457fe5b906020019060200201818152505080806001019150506123d4565b8383839750975097505050505050909192565b6000806000806124d0611b3f565b92508483029150600660003373ffffffffffffffffffffffffffffffffffffffff1673ffffffffffffffffffffffffffffffffffffffff1681526020019081526020016000205490508481101515156125b7576040517f08c379a00000000000000000000000000000000000000000000000000000000081526004018080602001828103825260248152602001807f596f7520646f6e2774206861766520656e6f7567682066756e6420746f20726581526020017f6465656d0000000000000000000000000000000000000000000000000000000081525060400191505060405180910390fd5b819350505050919050565b6000600660003373ffffffffffffffffffffffffffffffffffffffff1673ffffffffffffffffffffffffffffffffffffffff16815260200190815260200160002054905090565b6000806001809054906101000a900473ffffffffffffffffffffffffffffffffffffffff1673ffffffffffffffffffffffffffffffffffffffff163373ffffffffffffffffffffffffffffffffffffffff1614151561266757612945565b84518651148015612679575083518651145b1515612739576040517f08c379a00000000000000000000000000000000000000000000000000000000081526004018080602001828103825260548152602001807f4e756d626572206f6620536861726573204e616d657320616e64204e756d626581526020017f72206f662053686172652077656967687420616e64204e756d626572206f662081526020017f7072696365206e65656420746f206d617463682e00000000000000000000000081525060600191505060405180910390fd5b60008054905091505b60008211156127aa5760006001830381548110151561275d57fe5b9060005260206000209060030201600080820160009055600182016000905560028201600090555050600080548091906001900361279b91906131f4565b50818060019003925050612742565b6000808054905014151561284c576040517f08c379a000000000000000000000000000000000000000000000000000000000815260040180806020018281038252602a8152602001807f4e65656420746f20636c656172206261736b6574206265666f7265206164642081526020017f6e6577206261736b65740000000000000000000000000000000000000000000081525060400191505060405180910390fd5b600090505b8551811015612944576000606060405190810160405280888481518110151561287657fe5b90602001906020020151600019168152602001868481518110151561289757fe5b9060200190602002015188858151811015156128af57fe5b9060200190602002015187028115156128c457fe5b04815260200186848151811015156128d857fe5b90602001906020020151815250908060018154018082558091505090600182039060005260206000209060030201600090919290919091506000820151816000019060001916905560208201518160010155604082015181600201555050508080600101915050612851565b5b505050505050565b6000803373ffffffffffffffffffffffffffffffffffffffff16319050348110151515612a08576040517f08c379a000000000000000000000000000000000000000000000000000000000815260040180806020018281038252602f8152602001807f596f7520646f6e2774206861766520656e6f756768204554482062616c616e6381526020017f6520746f207375627363726962652e000000000000000000000000000000000081525060400191505060405180910390fd5b82600660003373ffffffffffffffffffffffffffffffffffffffff1673ffffffffffffffffffffffffffffffffffffffff1681526020019081526020016000206000828254019250508190555082600660006001809054906101000a900473ffffffffffffffffffffffffffffffffffffffff1673ffffffffffffffffffffffffffffffffffffffff1673ffffffffffffffffffffffffffffffffffffffff168152602001908152602001600020600082825403925050819055506001915050919050565b60138054600181600116156101000203166002900480601f016020809104026020016040519081016040528092919081815260200182805460018160011615610100020316600290048015612b635780601f10612b3857610100808354040283529160200191612b63565b820191906000526020600020905b815481529060010190602001808311612b4657829003601f168201915b505050505081565b6000806001809054906101000a900473ffffffffffffffffffffffffffffffffffffffff1673ffffffffffffffffffffffffffffffffffffffff163373ffffffffffffffffffffffffffffffffffffffff16141515612c58576040517f08c379a00000000000000000000000000000000000000000000000000000000081526004018080602001828103825260218152602001807f4f6e6c7920746865206973737565722063616e2075706461746520707269636581526020017f2e0000000000000000000000000000000000000000000000000000000000000081525060400191505060405180910390fd5b600554600660006001809054906101000a900473ffffffffffffffffffffffffffffffffffffffff1673ffffffffffffffffffffffffffffffffffffffff1673ffffffffffffffffffffffffffffffffffffffff16815260200190815260200160002054141515612d31576040517f08c379a000000000000000000000000000000000000000000000000000000000815260040180806020018281038252601d8152602001807f50617274206f662066756e64206973206e6f742072656465656d65642e00000081525060200191505060405180910390fd5b3073ffffffffffffffffffffffffffffffffffffffff163190506001809054906101000a900473ffffffffffffffffffffffffffffffffffffffff1673ffffffffffffffffffffffffffffffffffffffff166108fc829081150290604051600060405180830381858888f19350505050158015612db2573d6000803e3d6000fd5b506000600160006101000a81548160ff021916908315150217905550600191505090565b60006001905092915050565b6000806001809054906101000a900473ffffffffffffffffffffffffffffffffffffffff1673ffffffffffffffffffffffffffffffffffffffff163373ffffffffffffffffffffffffffffffffffffffff16141515612ecf576040517f08c379a000000000000000000000000000000000000000000000000000000000815260040180806020018281038252602c8152602001807f4f6e6c7920746865206973737565722063616e2063616c6c206e65772069737381526020017f75652066756e6374696f6e2e000000000000000000000000000000000000000081525060400191505060405180910390fd5b60001515600160009054906101000a900460ff161515141515612f80576040517f08c379a00000000000000000000000000000000000000000000000000000000081526004018080602001828103825260308152602001807f4e6f746520686173206265656e2069737375656420616c72656164792c20636881526020017f65636b20697373756564206e6f74652e0000000000000000000000000000000081525060400191505060405180910390fd5b88518a51148015612f92575087518a51145b1515613052576040517f08c379a00000000000000000000000000000000000000000000000000000000081526004018080602001828103825260548152602001807f4e756d626572206f6620536861726573204e616d657320616e64204e756d626581526020017f72206f662053686172652077656967687420616e64204e756d626572206f662081526020017f7072696365206e65656420746f206d617463682e00000000000000000000000081525060600191505060405180910390fd5b600090505b895181101561314a5760006060604051908101604052808c8481518110151561307c57fe5b906020019060200201516000191681526020018a8481518110151561309d57fe5b906020019060200201518c858151811015156130b557fe5b906020019060200201518b028115156130ca57fe5b0481526020018a848151811015156130de57fe5b90602001906020020151815250908060018154018082558091505090600182039060005260206000209060030201600090919290919091506000820151816000019060001916905560208201518160010155604082015181600201555050508080600101915050613057565b60018060006101000a81548160ff02191690831515021790555060006005819055508560028160001916905550846003816000191690555083600481905550826005540160058190555082600660003373ffffffffffffffffffffffffffffffffffffffff1673ffffffffffffffffffffffffffffffffffffffff16815260200190815260200160002060008282540192505081905550600191505098975050505050505050565b565b815481835581811115613221576003028160030283600052602060002091820191016132209190613226565b5b505050565b61325a91905b8082111561325657600080820160009055600182016000905560028201600090555060030161322c565b5090565b905600a165627a7a723058201eef55c487746c74390b3bda037d9c46439036ae5771dd3987ed78d667cf038e0029",
  "source": "pragma solidity ^0.4.24;\r\n\r\nimport \"../node_modules/zeppelin-solidity/contracts/token/ERC721/ERC721Token.sol\";\r\nimport '../node_modules/zeppelin-solidity/contracts/ownership/Ownable.sol';\r\nimport \"../node_modules/zeppelin-solidity/contracts/introspection/SupportsInterfaceWithLookup.sol\";\r\nimport './IDXBase.sol';\r\n\r\n\r\n// Structured Leverage Fund\r\ncontract IDXERC721 is IDXBase, ERC721Token {\r\n    /*** Constants ***/\r\n    // Configure these for your own deployment\r\n    /// @notice Name and symbol of the non fungible token, as defined in ERC721.\r\n\r\n    string public name_ = \"CCMIDXTestToken\";\r\n    string public symbol_ = \"IDXTest\";\r\n\r\n    // Total amount of tokens\r\n    uint256 private totalTokens_;\r\n\r\n\r\n    /*** Constructor function ***/\r\n    constructor (string _name, string _symbol) public\r\n        ERC721Token(_name, _symbol)\r\n    {\r\n      issuer = msg.sender;\r\n      isIssued = false;\r\n\r\n      name_ = _name;\r\n      symbol_ = _symbol;\r\n      totalTokens_ = 10000000000;\r\n\r\n      // register the supported interfaces to conform to ERC721 via ERC165\r\n      _registerInterface(InterfaceId_ERC721Enumerable);\r\n      _registerInterface(InterfaceId_ERC721Metadata);\r\n    }\r\n\r\n    /**\r\n     * get token's name\r\n     */\r\n    function name() external view returns (string) {\r\n      return name_;\r\n    }\r\n\r\n    /**\r\n     * get symbols's name\r\n     */\r\n    function symbol() external view returns (string) {\r\n      return symbol_;\r\n    }\r\n\r\n    /**\r\n    * @notice Gets the total amount of tokens stored by the contract\r\n    * @return uint256 representing the total amount of tokens\r\n    */\r\n    /// @dev Required for ERC-721 compliance\r\n    function totalSupply() public view returns (uint256) {\r\n      return totalTokens_;\r\n    }\r\n\r\n    /// @dev Required for ERC-721 compliance.\r\n    function balanceOf(address _owner) public view returns (uint256 _balance){\r\n      return balances[_owner];\r\n    }\r\n\r\n    /// @dev Required for ERC-721 compliance.\r\n    function ownerOf(uint256 _tokenId) public view returns (address _owner){\r\n      return msg.sender;\r\n    }\r\n\r\n    /// @dev Required for ERC-721 compliance.\r\n    function exists(uint256 _tokenId) public view returns (bool _exists){\r\n      return true;\r\n    }\r\n\r\n    /// @dev Required for ERC-721 compliance.\r\n    function approve(address _to, uint256 _tokenId) public{\r\n\r\n    }\r\n\r\n    /// @dev Required for ERC-721 compliance.\r\n    function getApproved(uint256 _tokenId)\r\n      public view returns (address _operator){\r\n        return msg.sender;\r\n    }\r\n\r\n    /// @dev Required for ERC-721 compliance.\r\n    function setApprovalForAll(address _operator, bool _approved) public{\r\n\r\n    }\r\n\r\n    /// @dev Required for ERC-721 compliance.\r\n    function isApprovedForAll(address _owner, address _operator)\r\n      public view returns (bool){\r\n        return true;\r\n    }\r\n\r\n    /// @dev Required for ERC-721 compliance.\r\n    function transferFrom(address _from, address _to, uint256 _tokenId) public {\r\n    }\r\n\r\n    /// @dev Required for ERC-721 compliance.\r\n    function safeTransferFrom(address _from, address _to, uint256 _tokenId) public {\r\n    }\r\n\r\n    /// @dev Required for ERC-721 compliance.\r\n    function safeTransferFrom(\r\n      address _from,\r\n      address _to,\r\n      uint256 _tokenId,\r\n      bytes _data\r\n    ) public {\r\n    }\r\n\r\n}\r\n",
  "sourcePath": "C:\\Users\\jzqav\\CoinCapitalMarkets\\contracts\\IDX-ERC721.sol",
  "compiler": {
    "name": "solc",
    "version": "0.4.24+commit.e67f0147.Emscripten.clang"
  },
  "schemaVersion": "2.0.1",
  "updatedAt": "2018-09-17T23:10:12.964Z"
}