{
  "contractName": "SLFBase",
  "abi": [
    {
      "constant": true,
      "inputs": [],
      "name": "tierEQ",
      "outputs": [
        {
          "name": "name",
          "type": "bytes32"
        },
        {
          "name": "weight",
          "type": "uint256"
        },
        {
          "name": "commission",
          "type": "uint256"
        }
      ],
      "payable": false,
      "stateMutability": "view",
      "type": "function"
    },
    {
      "constant": true,
      "inputs": [
        {
          "name": "",
          "type": "address"
        }
      ],
      "name": "balancesEQ",
      "outputs": [
        {
          "name": "",
          "type": "uint256"
        }
      ],
      "payable": false,
      "stateMutability": "view",
      "type": "function"
    },
    {
      "constant": true,
      "inputs": [],
      "name": "issuer",
      "outputs": [
        {
          "name": "",
          "type": "address"
        }
      ],
      "payable": false,
      "stateMutability": "view",
      "type": "function"
    },
    {
      "constant": true,
      "inputs": [],
      "name": "maturity",
      "outputs": [
        {
          "name": "",
          "type": "uint256"
        }
      ],
      "payable": false,
      "stateMutability": "view",
      "type": "function"
    },
    {
      "constant": true,
      "inputs": [],
      "name": "tierFI",
      "outputs": [
        {
          "name": "name",
          "type": "bytes32"
        },
        {
          "name": "weight",
          "type": "uint256"
        },
        {
          "name": "commission",
          "type": "uint256"
        },
        {
          "name": "interest",
          "type": "uint256"
        }
      ],
      "payable": false,
      "stateMutability": "view",
      "type": "function"
    },
    {
      "constant": true,
      "inputs": [],
      "name": "minParentLiqPct",
      "outputs": [
        {
          "name": "",
          "type": "uint256"
        }
      ],
      "payable": false,
      "stateMutability": "view",
      "type": "function"
    },
    {
      "constant": true,
      "inputs": [],
      "name": "maxParentLiqPct",
      "outputs": [
        {
          "name": "",
          "type": "uint256"
        }
      ],
      "payable": false,
      "stateMutability": "view",
      "type": "function"
    },
    {
      "constant": true,
      "inputs": [],
      "name": "outstandingBalance",
      "outputs": [
        {
          "name": "",
          "type": "uint256"
        }
      ],
      "payable": false,
      "stateMutability": "view",
      "type": "function"
    },
    {
      "constant": true,
      "inputs": [],
      "name": "currentPx",
      "outputs": [
        {
          "name": "",
          "type": "uint256"
        }
      ],
      "payable": false,
      "stateMutability": "view",
      "type": "function"
    },
    {
      "constant": true,
      "inputs": [],
      "name": "underlying",
      "outputs": [
        {
          "name": "",
          "type": "bytes32"
        }
      ],
      "payable": false,
      "stateMutability": "view",
      "type": "function"
    },
    {
      "constant": true,
      "inputs": [],
      "name": "initialPx",
      "outputs": [
        {
          "name": "",
          "type": "uint256"
        }
      ],
      "payable": false,
      "stateMutability": "view",
      "type": "function"
    },
    {
      "constant": true,
      "inputs": [],
      "name": "issueDate",
      "outputs": [
        {
          "name": "",
          "type": "uint256"
        }
      ],
      "payable": false,
      "stateMutability": "view",
      "type": "function"
    },
    {
      "constant": true,
      "inputs": [
        {
          "name": "",
          "type": "address"
        }
      ],
      "name": "balancesFI",
      "outputs": [
        {
          "name": "",
          "type": "uint256"
        }
      ],
      "payable": false,
      "stateMutability": "view",
      "type": "function"
    },
    {
      "inputs": [],
      "payable": false,
      "stateMutability": "nonpayable",
      "type": "constructor"
    },
    {
      "anonymous": false,
      "inputs": [
        {
          "indexed": false,
          "name": "from",
          "type": "address"
        },
        {
          "indexed": false,
          "name": "to",
          "type": "address"
        },
        {
          "indexed": false,
          "name": "amount",
          "type": "uint256"
        }
      ],
      "name": "Sent",
      "type": "event"
    },
    {
      "constant": false,
      "inputs": [
        {
          "name": "FIName",
          "type": "bytes32"
        },
        {
          "name": "FIWeight",
          "type": "uint256"
        },
        {
          "name": "FICommission",
          "type": "uint256"
        },
        {
          "name": "FIInterest",
          "type": "uint256"
        },
        {
          "name": "EQName",
          "type": "bytes32"
        },
        {
          "name": "EQWeight",
          "type": "uint256"
        },
        {
          "name": "EQCommission",
          "type": "uint256"
        }
      ],
      "name": "newIssue1",
      "outputs": [
        {
          "name": "success",
          "type": "bool"
        }
      ],
      "payable": false,
      "stateMutability": "nonpayable",
      "type": "function"
    },
    {
      "constant": false,
      "inputs": [
        {
          "name": "noteName",
          "type": "bytes32"
        },
        {
          "name": "noteIssueDate",
          "type": "uint256"
        },
        {
          "name": "noteMaturity",
          "type": "uint256"
        },
        {
          "name": "underlyingName",
          "type": "bytes32"
        },
        {
          "name": "initialUnderlyingPx",
          "type": "uint256"
        },
        {
          "name": "minLiqVal",
          "type": "uint256"
        },
        {
          "name": "maxLiqVal",
          "type": "uint256"
        },
        {
          "name": "amount",
          "type": "uint256"
        }
      ],
      "name": "newIssue2",
      "outputs": [
        {
          "name": "success",
          "type": "bool"
        }
      ],
      "payable": false,
      "stateMutability": "nonpayable",
      "type": "function"
    },
    {
      "constant": false,
      "inputs": [
        {
          "name": "amount",
          "type": "uint256"
        }
      ],
      "name": "additionalIssue",
      "outputs": [
        {
          "name": "success",
          "type": "bool"
        }
      ],
      "payable": false,
      "stateMutability": "nonpayable",
      "type": "function"
    },
    {
      "constant": false,
      "inputs": [
        {
          "name": "newPrice",
          "type": "uint256"
        },
        {
          "name": "updateDate",
          "type": "uint256"
        }
      ],
      "name": "updatePrice",
      "outputs": [
        {
          "name": "success",
          "type": "bool"
        }
      ],
      "payable": false,
      "stateMutability": "nonpayable",
      "type": "function"
    },
    {
      "constant": false,
      "inputs": [],
      "name": "payContract",
      "outputs": [],
      "payable": true,
      "stateMutability": "payable",
      "type": "function"
    },
    {
      "constant": false,
      "inputs": [
        {
          "name": "closeDate",
          "type": "uint256"
        }
      ],
      "name": "closeFund",
      "outputs": [
        {
          "name": "success",
          "type": "bool"
        }
      ],
      "payable": false,
      "stateMutability": "nonpayable",
      "type": "function"
    },
    {
      "constant": false,
      "inputs": [
        {
          "name": "tierName",
          "type": "bytes32"
        },
        {
          "name": "receiver",
          "type": "address"
        },
        {
          "name": "amount",
          "type": "uint256"
        }
      ],
      "name": "sendNote",
      "outputs": [],
      "payable": false,
      "stateMutability": "nonpayable",
      "type": "function"
    },
    {
      "constant": true,
      "inputs": [
        {
          "name": "tierName",
          "type": "bytes32"
        },
        {
          "name": "amount",
          "type": "uint256"
        }
      ],
      "name": "userGetSubscribePayable",
      "outputs": [
        {
          "name": "",
          "type": "uint256"
        }
      ],
      "payable": false,
      "stateMutability": "view",
      "type": "function"
    },
    {
      "constant": false,
      "inputs": [
        {
          "name": "tierName",
          "type": "bytes32"
        },
        {
          "name": "amount",
          "type": "uint256"
        }
      ],
      "name": "userSubscribe",
      "outputs": [
        {
          "name": "",
          "type": "bool"
        }
      ],
      "payable": true,
      "stateMutability": "payable",
      "type": "function"
    },
    {
      "constant": true,
      "inputs": [
        {
          "name": "tierName",
          "type": "bytes32"
        },
        {
          "name": "amount",
          "type": "uint256"
        }
      ],
      "name": "userGetRedeemReceivable",
      "outputs": [
        {
          "name": "",
          "type": "uint256"
        }
      ],
      "payable": false,
      "stateMutability": "view",
      "type": "function"
    },
    {
      "constant": false,
      "inputs": [
        {
          "name": "tierName",
          "type": "bytes32"
        },
        {
          "name": "amount",
          "type": "uint256"
        }
      ],
      "name": "userRedeem",
      "outputs": [
        {
          "name": "",
          "type": "bool"
        }
      ],
      "payable": false,
      "stateMutability": "nonpayable",
      "type": "function"
    },
    {
      "constant": true,
      "inputs": [],
      "name": "getIfIssued",
      "outputs": [
        {
          "name": "",
          "type": "bool"
        }
      ],
      "payable": false,
      "stateMutability": "view",
      "type": "function"
    },
    {
      "constant": true,
      "inputs": [],
      "name": "getOutstanding",
      "outputs": [
        {
          "name": "",
          "type": "uint256"
        }
      ],
      "payable": false,
      "stateMutability": "view",
      "type": "function"
    },
    {
      "constant": true,
      "inputs": [],
      "name": "getFIOutstanding",
      "outputs": [
        {
          "name": "",
          "type": "uint256"
        }
      ],
      "payable": false,
      "stateMutability": "view",
      "type": "function"
    },
    {
      "constant": true,
      "inputs": [],
      "name": "getEQOutstanding",
      "outputs": [
        {
          "name": "",
          "type": "uint256"
        }
      ],
      "payable": false,
      "stateMutability": "view",
      "type": "function"
    },
    {
      "constant": true,
      "inputs": [],
      "name": "getContractETHBalance",
      "outputs": [
        {
          "name": "",
          "type": "uint256"
        }
      ],
      "payable": false,
      "stateMutability": "view",
      "type": "function"
    },
    {
      "constant": true,
      "inputs": [],
      "name": "getIssuer",
      "outputs": [
        {
          "name": "",
          "type": "address"
        }
      ],
      "payable": false,
      "stateMutability": "view",
      "type": "function"
    },
    {
      "constant": true,
      "inputs": [],
      "name": "getNoteName",
      "outputs": [
        {
          "name": "",
          "type": "bytes32"
        }
      ],
      "payable": false,
      "stateMutability": "view",
      "type": "function"
    },
    {
      "constant": true,
      "inputs": [],
      "name": "getIssueDate",
      "outputs": [
        {
          "name": "",
          "type": "uint256"
        }
      ],
      "payable": false,
      "stateMutability": "view",
      "type": "function"
    },
    {
      "constant": true,
      "inputs": [],
      "name": "getMaturity",
      "outputs": [
        {
          "name": "",
          "type": "uint256"
        }
      ],
      "payable": false,
      "stateMutability": "view",
      "type": "function"
    },
    {
      "constant": true,
      "inputs": [],
      "name": "getUnderlyingName",
      "outputs": [
        {
          "name": "",
          "type": "bytes32"
        }
      ],
      "payable": false,
      "stateMutability": "view",
      "type": "function"
    },
    {
      "constant": true,
      "inputs": [],
      "name": "getUnderlyingInitialPx",
      "outputs": [
        {
          "name": "",
          "type": "uint256"
        }
      ],
      "payable": false,
      "stateMutability": "view",
      "type": "function"
    },
    {
      "constant": true,
      "inputs": [],
      "name": "getUnderlyingCurrentPx",
      "outputs": [
        {
          "name": "",
          "type": "uint256"
        }
      ],
      "payable": false,
      "stateMutability": "view",
      "type": "function"
    },
    {
      "constant": true,
      "inputs": [],
      "name": "getMinLiqPct",
      "outputs": [
        {
          "name": "",
          "type": "uint256"
        }
      ],
      "payable": false,
      "stateMutability": "view",
      "type": "function"
    },
    {
      "constant": true,
      "inputs": [],
      "name": "getMaxLiqPct",
      "outputs": [
        {
          "name": "",
          "type": "uint256"
        }
      ],
      "payable": false,
      "stateMutability": "view",
      "type": "function"
    },
    {
      "constant": true,
      "inputs": [],
      "name": "getIfLiquidated",
      "outputs": [
        {
          "name": "",
          "type": "bool"
        }
      ],
      "payable": false,
      "stateMutability": "view",
      "type": "function"
    },
    {
      "constant": true,
      "inputs": [],
      "name": "getLiqDate",
      "outputs": [
        {
          "name": "",
          "type": "uint256"
        }
      ],
      "payable": false,
      "stateMutability": "view",
      "type": "function"
    },
    {
      "constant": true,
      "inputs": [],
      "name": "getLiqVal",
      "outputs": [
        {
          "name": "",
          "type": "uint256"
        }
      ],
      "payable": false,
      "stateMutability": "view",
      "type": "function"
    },
    {
      "constant": true,
      "inputs": [],
      "name": "getLiqEQVal",
      "outputs": [
        {
          "name": "",
          "type": "uint256"
        }
      ],
      "payable": false,
      "stateMutability": "view",
      "type": "function"
    },
    {
      "constant": true,
      "inputs": [],
      "name": "getFITierName",
      "outputs": [
        {
          "name": "",
          "type": "bytes32"
        }
      ],
      "payable": false,
      "stateMutability": "view",
      "type": "function"
    },
    {
      "constant": true,
      "inputs": [],
      "name": "getEQTierName",
      "outputs": [
        {
          "name": "",
          "type": "bytes32"
        }
      ],
      "payable": false,
      "stateMutability": "view",
      "type": "function"
    },
    {
      "constant": true,
      "inputs": [
        {
          "name": "tierName",
          "type": "bytes32"
        }
      ],
      "name": "getBalance",
      "outputs": [
        {
          "name": "",
          "type": "uint256"
        }
      ],
      "payable": false,
      "stateMutability": "view",
      "type": "function"
    },
    {
      "constant": true,
      "inputs": [],
      "name": "getTierFI",
      "outputs": [
        {
          "name": "FIname",
          "type": "bytes32"
        },
        {
          "name": "FIweight",
          "type": "uint256"
        },
        {
          "name": "FIinterest",
          "type": "uint256"
        }
      ],
      "payable": false,
      "stateMutability": "view",
      "type": "function"
    },
    {
      "constant": true,
      "inputs": [],
      "name": "getTierEQ",
      "outputs": [
        {
          "name": "EQname",
          "type": "bytes32"
        },
        {
          "name": "EQweight",
          "type": "uint256"
        }
      ],
      "payable": false,
      "stateMutability": "view",
      "type": "function"
    },
    {
      "constant": true,
      "inputs": [],
      "name": "getNAV",
      "outputs": [
        {
          "name": "",
          "type": "uint256"
        }
      ],
      "payable": false,
      "stateMutability": "view",
      "type": "function"
    },
    {
      "constant": true,
      "inputs": [],
      "name": "getFINAV",
      "outputs": [
        {
          "name": "",
          "type": "uint256"
        }
      ],
      "payable": false,
      "stateMutability": "view",
      "type": "function"
    },
    {
      "constant": true,
      "inputs": [],
      "name": "getEQNAV",
      "outputs": [
        {
          "name": "",
          "type": "uint256"
        }
      ],
      "payable": false,
      "stateMutability": "view",
      "type": "function"
    }
  ],
  "bytecode": "0x608060405234801561001057600080fd5b5033600760016101000a81548173ffffffffffffffffffffffffffffffffffffffff021916908373ffffffffffffffffffffffffffffffffffffffff1602179055506000600760006101000a81548160ff021916908315150217905550612fd48061007c6000396000f30060806040526004361061025c576000357c0100000000000000000000000000000000000000000000000000000000900463ffffffff1680630126c6061461026157806306df7fb21461028c57806313efc6ba146102cd5780631a939b701461030e5780631b170c48146103395780631d14384814610390578063204f83f9146103e757806321c703271461041257806322aaecde1461045a578063234304451461048557806325082ff61461050e578063256f08ee146105415780632ade34af1461056c5780633133f2a71461059757806338a0fdb5146105c25780635255642114610611578063528e5e16146106685780635766e747146106935780635e6a1ff5146106be578063609a49701461070457806360c11446146107495780636155ebe7146107745780636dde6c33146107cf5780636f01a8a2146107fa5780636f307dc314610825578063784ea887146108585780637a4ee555146108875780637eac6e37146108b257806382367b2d146108e557806385440863146109345780638c89a0ad1461095f5780638d1343e01461098a5780638e739461146109b5578063a843057f146109fa578063abfdac0c14610a2d578063adc6110c14610a7c578063b369f42314610ab6578063be57384b14610afb578063c7e8f05314610b2a578063c9d492d714610b81578063d4fc7cd914610bac578063df6b91b114610bd7578063e16695b514610c0a578063ecb0b86214610c35578063ef1a204314610c3f578063f231655614610cd2578063f8ac6db414610cfd578063f989170a14610d50578063fb182e4014610d7b578063fc82264f14610da6575b600080fd5b34801561026d57600080fd5b50610276610dd1565b6040518082815260200191505060405180910390f35b34801561029857600080fd5b506102a1610df8565b604051808460001916600019168152602001838152602001828152602001935050505060405180910390f35b3480156102d957600080fd5b506102e2610e19565b604051808460001916600019168152602001838152602001828152602001935050505060405180910390f35b34801561031a57600080fd5b50610323610e31565b6040518082815260200191505060405180910390f35b34801561034557600080fd5b5061037a600480360381019080803573ffffffffffffffffffffffffffffffffffffffff169060200190929190505050610e55565b6040518082815260200191505060405180910390f35b34801561039c57600080fd5b506103a5610e6d565b604051808273ffffffffffffffffffffffffffffffffffffffff1673ffffffffffffffffffffffffffffffffffffffff16815260200191505060405180910390f35b3480156103f357600080fd5b506103fc610e93565b6040518082815260200191505060405180910390f35b34801561041e57600080fd5b50610427610e99565b60405180856000191660001916815260200184815260200183815260200182815260200194505050505060405180910390f35b34801561046657600080fd5b5061046f610eb7565b6040518082815260200191505060405180910390f35b34801561049157600080fd5b506104f4600480360381019080803560001916906020019092919080359060200190929190803590602001909291908035906020019092919080356000191690602001909291908035906020019092919080359060200190929190505050610ebd565b604051808215151515815260200191505060405180910390f35b34801561051a57600080fd5b5061052361110b565b60405180826000191660001916815260200191505060405180910390f35b34801561054d57600080fd5b50610556611117565b6040518082815260200191505060405180910390f35b34801561057857600080fd5b50610581611137565b6040518082815260200191505060405180910390f35b3480156105a357600080fd5b506105ac61113d565b6040518082815260200191505060405180910390f35b3480156105ce57600080fd5b506105fb600480360381019080803560001916906020019092919080359060200190929190505050611143565b6040518082815260200191505060405180910390f35b34801561061d57600080fd5b50610626611250565b604051808273ffffffffffffffffffffffffffffffffffffffff1673ffffffffffffffffffffffffffffffffffffffff16815260200191505060405180910390f35b34801561067457600080fd5b5061067d61127a565b6040518082815260200191505060405180910390f35b34801561069f57600080fd5b506106a8611284565b6040518082815260200191505060405180910390f35b6106ea60048036038101908080356000191690602001909291908035906020019092919050505061128e565b604051808215151515815260200191505060405180910390f35b34801561071057600080fd5b5061072f6004803603810190808035906020019092919050505061179a565b604051808215151515815260200191505060405180910390f35b34801561075557600080fd5b5061075e611bb0565b6040518082815260200191505060405180910390f35b34801561078057600080fd5b506107cd6004803603810190808035600019169060200190929190803573ffffffffffffffffffffffffffffffffffffffff16906020019092919080359060200190929190505050611bb6565b005b3480156107db57600080fd5b506107e4611fa1565b6040518082815260200191505060405180910390f35b34801561080657600080fd5b5061080f611fc5565b6040518082815260200191505060405180910390f35b34801561083157600080fd5b5061083a61206e565b60405180826000191660001916815260200191505060405180910390f35b34801561086457600080fd5b5061086d612074565b604051808215151515815260200191505060405180910390f35b34801561089357600080fd5b5061089c61208b565b6040518082815260200191505060405180910390f35b3480156108be57600080fd5b506108c7612095565b60405180826000191660001916815260200191505060405180910390f35b3480156108f157600080fd5b5061091a60048036038101908080359060200190929190803590602001909291905050506120a2565b604051808215151515815260200191505060405180910390f35b34801561094057600080fd5b50610949612303565b6040518082815260200191505060405180910390f35b34801561096b57600080fd5b50610974612309565b6040518082815260200191505060405180910390f35b34801561099657600080fd5b5061099f612328565b6040518082815260200191505060405180910390f35b3480156109c157600080fd5b506109e4600480360381019080803560001916906020019092919050505061232e565b6040518082815260200191505060405180910390f35b348015610a0657600080fd5b50610a0f61246d565b60405180826000191660001916815260200191505060405180910390f35b348015610a3957600080fd5b50610a66600480360381019080803560001916906020019092919080359060200190929190505050612477565b6040518082815260200191505060405180910390f35b348015610a8857600080fd5b50610a91612563565b6040518083600019166000191681526020018281526020019250505060405180910390f35b348015610ac257600080fd5b50610ae16004803603810190808035906020019092919050505061257a565b604051808215151515815260200191505060405180910390f35b348015610b0757600080fd5b50610b10612749565b604051808215151515815260200191505060405180910390f35b348015610b3657600080fd5b50610b6b600480360381019080803573ffffffffffffffffffffffffffffffffffffffff169060200190929190505050612760565b6040518082815260200191505060405180910390f35b348015610b8d57600080fd5b50610b96612778565b6040518082815260200191505060405180910390f35b348015610bb857600080fd5b50610bc1612782565b6040518082815260200191505060405180910390f35b348015610be357600080fd5b50610bec61278c565b60405180826000191660001916815260200191505060405180910390f35b348015610c1657600080fd5b50610c1f612796565b6040518082815260200191505060405180910390f35b610c3d6127a0565b005b348015610c4b57600080fd5b50610cb8600480360381019080803560001916906020019092919080359060200190929190803590602001909291908035600019169060200190929190803590602001909291908035906020019092919080359060200190929190803590602001909291905050506127a2565b604051808215151515815260200191505060405180910390f35b348015610cde57600080fd5b50610ce7612aa7565b6040518082815260200191505060405180910390f35b348015610d0957600080fd5b50610d36600480360381019080803560001916906020019092919080359060200190929190505050612ab1565b604051808215151515815260200191505060405180910390f35b348015610d5c57600080fd5b50610d65612f8a565b6040518082815260200191505060405180910390f35b348015610d8757600080fd5b50610d90612f94565b6040518082815260200191505060405180910390f35b348015610db257600080fd5b50610dbb612f9e565b6040518082815260200191505060405180910390f35b60008068056bc75e2d631000009050600d54600e548202811515610df157fe5b0491505090565b60008060008060000154600060010154600060030154925092509250909192565b60048060000154908060010154908060020154905083565b6000670de0b6b3a7640000600460010154600b5402811515610e4f57fe5b04905090565b60166020528060005260406000206000915090505481565b600760019054906101000a900473ffffffffffffffffffffffffffffffffffffffff1681565b600a5481565b60008060000154908060010154908060020154908060030154905084565b600f5481565b6000600760019054906101000a900473ffffffffffffffffffffffffffffffffffffffff1673ffffffffffffffffffffffffffffffffffffffff163373ffffffffffffffffffffffffffffffffffffffff16141515610faa576040517f08c379a000000000000000000000000000000000000000000000000000000000815260040180806020018281038252602c8152602001807f4f6e6c7920746865206973737565722063616e2063616c6c206e65772069737381526020017f75652066756e6374696f6e2e000000000000000000000000000000000000000081525060400191505060405180910390fd5b60001515600760009054906101000a900460ff16151514151561105b576040517f08c379a00000000000000000000000000000000000000000000000000000000081526004018080602001828103825260308152602001807f4e6f746520686173206265656e2069737375656420616c72656164792c20636881526020017f65636b20697373756564206e6f74652e0000000000000000000000000000000081525060400191505060405180910390fd5b608060405190810160405280896000191681526020018881526020018781526020018681525060008082015181600001906000191690556020820151816001015560408201518160020155606082015181600301559050506060604051908101604052808560001916815260200184815260200183815250600460008201518160000190600019169055602082015181600101556040820151816002015590505060019050979650505050505050565b60008060000154905090565b60008068056bc75e2d631000009050606460006003015402810191505090565b60105481565b600b5481565b6000806000806000800154600019168660001916148061116f5750600460000154600019168660001916145b15156111e3576040517f08c379a000000000000000000000000000000000000000000000000000000000815260040180806020018281038252601b8152602001807f54696572206e616d6520646f65736e206e6f74206578697374732e000000000081525060200191505060405180910390fd5b60008001546000191686600019161415611213576111ff611117565b9150606485830281151561120f57fe5b0492505b600460000154600019168660001916141561124457611230611fc5565b9050606485820281151561124057fe5b0492505b82935050505092915050565b6000600760019054906101000a900473ffffffffffffffffffffffffffffffffffffffff16905090565b6000601054905090565b6000600d54905090565b600080600080600080015460001916866000191614806112ba5750600460000154600019168660001916145b151561132e576040517f08c379a000000000000000000000000000000000000000000000000000000000815260040180806020018281038252601b8152602001807f54696572206e616d6520646f65736e206e6f74206578697374732e000000000081525060200191505060405180910390fd5b3373ffffffffffffffffffffffffffffffffffffffff163192503483101515156113e6576040517f08c379a000000000000000000000000000000000000000000000000000000000815260040180806020018281038252602f8152602001807f596f7520646f6e2774206861766520656e6f756768204554482062616c616e6381526020017f6520746f207375627363726962652e000000000000000000000000000000000081525060400191505060405180910390fd5b600080015460001916866000191614156115b95760156000600760019054906101000a900473ffffffffffffffffffffffffffffffffffffffff1673ffffffffffffffffffffffffffffffffffffffff1673ffffffffffffffffffffffffffffffffffffffff1681526020019081526020016000205491508482101515156114fc576040517f08c379a000000000000000000000000000000000000000000000000000000000815260040180806020018281038252602c8152602001807f49737375657220646f65736e2774206861766520656e6f75676820756e69747381526020017f206f75747374616e64696e67000000000000000000000000000000000000000081525060400191505060405180910390fd5b84601560003373ffffffffffffffffffffffffffffffffffffffff1673ffffffffffffffffffffffffffffffffffffffff168152602001908152602001600020600082825401925050819055508460156000600760019054906101000a900473ffffffffffffffffffffffffffffffffffffffff1673ffffffffffffffffffffffffffffffffffffffff1673ffffffffffffffffffffffffffffffffffffffff168152602001908152602001600020600082825403925050819055505b600460000154600019168660001916141561178d5760166000600760019054906101000a900473ffffffffffffffffffffffffffffffffffffffff1673ffffffffffffffffffffffffffffffffffffffff1673ffffffffffffffffffffffffffffffffffffffff1681526020019081526020016000205490508481101515156116d0576040517f08c379a000000000000000000000000000000000000000000000000000000000815260040180806020018281038252602c8152602001807f49737375657220646f65736e2774206861766520656e6f75676820756e69747381526020017f206f75747374616e64696e67000000000000000000000000000000000000000081525060400191505060405180910390fd5b84601660003373ffffffffffffffffffffffffffffffffffffffff1673ffffffffffffffffffffffffffffffffffffffff168152602001908152602001600020600082825401925050819055508460166000600760019054906101000a900473ffffffffffffffffffffffffffffffffffffffff1673ffffffffffffffffffffffffffffffffffffffff1673ffffffffffffffffffffffffffffffffffffffff168152602001908152602001600020600082825403925050819055505b6001935050505092915050565b600080600760019054906101000a900473ffffffffffffffffffffffffffffffffffffffff1673ffffffffffffffffffffffffffffffffffffffff163373ffffffffffffffffffffffffffffffffffffffff16141515611888576040517f08c379a00000000000000000000000000000000000000000000000000000000081526004018080602001828103825260218152602001807f4f6e6c7920746865206973737565722063616e2075706461746520707269636581526020017f2e0000000000000000000000000000000000000000000000000000000000000081525060400191505060405180910390fd5b600a54831015806118ac575060011515601160009054906101000a900460ff161515145b1515611920576040517f08c379a00000000000000000000000000000000000000000000000000000000081526004018080602001828103825260198152602001807f4d61747572697479206e6f742072656163686564207965742e0000000000000081525060200191505060405180910390fd5b670de0b6b3a7640000600060010154600b540281151561193c57fe5b0460156000600760019054906101000a900473ffffffffffffffffffffffffffffffffffffffff1673ffffffffffffffffffffffffffffffffffffffff1673ffffffffffffffffffffffffffffffffffffffff16815260200190815260200160002054141515611a14576040517f08c379a00000000000000000000000000000000000000000000000000000000081526004018080602001828103825260208152602001807f50617274206f662046492074696572206973206e6f742072656465656d65642e81525060200191505060405180910390fd5b670de0b6b3a7640000600460010154600b5402811515611a3057fe5b0460166000600760019054906101000a900473ffffffffffffffffffffffffffffffffffffffff1673ffffffffffffffffffffffffffffffffffffffff1673ffffffffffffffffffffffffffffffffffffffff16815260200190815260200160002054141515611b08576040517f08c379a00000000000000000000000000000000000000000000000000000000081526004018080602001828103825260208152602001807f50617274206f662045512074696572206973206e6f742072656465656d65642e81525060200191505060405180910390fd5b3073ffffffffffffffffffffffffffffffffffffffff16319050600760019054906101000a900473ffffffffffffffffffffffffffffffffffffffff1673ffffffffffffffffffffffffffffffffffffffff166108fc829081150290604051600060405180830381858888f19350505050158015611b8a573d6000803e3d6000fd5b506001601160006101000a81548160ff0219169083151502179055506001915050919050565b600e5481565b600760019054906101000a900473ffffffffffffffffffffffffffffffffffffffff1673ffffffffffffffffffffffffffffffffffffffff163373ffffffffffffffffffffffffffffffffffffffff1614151515611c7c576040517f08c379a000000000000000000000000000000000000000000000000000000000815260040180806020018281038252601d8152602001807f4973737565722063616e6e6f742073656e6420475350206e6f7465732e00000081525060200191505060405180910390fd5b60008001546000191683600019161480611ca25750600460000154600019168360001916145b1515611d16576040517f08c379a000000000000000000000000000000000000000000000000000000000815260040180806020018281038252601b8152602001807f54696572206e616d6520646f65736e206e6f74206578697374732e000000000081525060200191505060405180910390fd5b60008001546000191683600019161415611e155780601560003373ffffffffffffffffffffffffffffffffffffffff1673ffffffffffffffffffffffffffffffffffffffff168152602001908152602001600020541015611d7657611f9c565b80601560003373ffffffffffffffffffffffffffffffffffffffff1673ffffffffffffffffffffffffffffffffffffffff1681526020019081526020016000206000828254039250508190555080601560008473ffffffffffffffffffffffffffffffffffffffff1673ffffffffffffffffffffffffffffffffffffffff16815260200190815260200160002060008282540192505081905550611efc565b80601660003373ffffffffffffffffffffffffffffffffffffffff1673ffffffffffffffffffffffffffffffffffffffff168152602001908152602001600020541015611e6157611f9c565b80601660003373ffffffffffffffffffffffffffffffffffffffff1673ffffffffffffffffffffffffffffffffffffffff1681526020019081526020016000206000828254039250508190555080601660008473ffffffffffffffffffffffffffffffffffffffff1673ffffffffffffffffffffffffffffffffffffffff168152602001908152602001600020600082825401925050819055505b7f3990db2d31862302a685e8086b5755072a6e2b5b780af1ee81ece35ee3cd3345338383604051808473ffffffffffffffffffffffffffffffffffffffff1673ffffffffffffffffffffffffffffffffffffffff1681526020018373ffffffffffffffffffffffffffffffffffffffff1673ffffffffffffffffffffffffffffffffffffffff168152602001828152602001935050505060405180910390a15b505050565b6000670de0b6b3a7640000600060010154600b5402811515611fbf57fe5b04905090565b60008060008060008060008060008068056bc75e2d631000009850670de0b6b3a76400009750600d54600e548a02811515611ffc57fe5b049650606460006003015402890195506064600060020154029450876000600101548688010281151561202b57fe5b049350838703925060046001015488840281151561204557fe5b04915087600460020154830281151561205a57fe5b049050808203995050505050505050505090565b600c5481565b6000601160009054906101000a900460ff16905090565b6000600b54905090565b6000600460000154905090565b600080600760019054906101000a900473ffffffffffffffffffffffffffffffffffffffff1673ffffffffffffffffffffffffffffffffffffffff163373ffffffffffffffffffffffffffffffffffffffff16141515612190576040517f08c379a00000000000000000000000000000000000000000000000000000000081526004018080602001828103825260218152602001807f4f6e6c7920746865206973737565722063616e2075706461746520707269636581526020017f2e0000000000000000000000000000000000000000000000000000000000000081525060400191505060405180910390fd5b60001515601160009054906101000a900460ff161515141515612241576040517f08c379a000000000000000000000000000000000000000000000000000000000815260040180806020018281038252602c8152602001807f596f752063616e6e6f742075706461746520707269636520666f72206c69717581526020017f696461746564206e6f74652e000000000000000000000000000000000000000081525060400191505060405180910390fd5b83600e81905550670de0b6b3a7640000600d54600e5481151561226057fe5b04029050600f54811115156122ae576001601160006101000a81548160ff02191690831515021790555082601281905550612299610dd1565b6013819055506122a7611fc5565b6014819055505b601054811015156122f8576001601160006101000a81548160ff021916908315150217905550826012819055506122e3610dd1565b6013819055506122f1611fc5565b6014819055505b600191505092915050565b600d5481565b60003073ffffffffffffffffffffffffffffffffffffffff1631905090565b60095481565b6000806000015460001916826000191614806123565750600460000154600019168260001916145b15156123ca576040517f08c379a000000000000000000000000000000000000000000000000000000000815260040180806020018281038252601b8152602001807f54696572206e616d6520646f65736e206e6f74206578697374732e000000000081525060200191505060405180910390fd5b6000800154600019168260001916141561242557601560003373ffffffffffffffffffffffffffffffffffffffff1673ffffffffffffffffffffffffffffffffffffffff168152602001908152602001600020549050612468565b601660003373ffffffffffffffffffffffffffffffffffffffff1673ffffffffffffffffffffffffffffffffffffffff1681526020019081526020016000205490505b919050565b6000600854905090565b600080600080015460001916846000191614806124a05750600460000154600019168460001916145b1515612514576040517f08c379a000000000000000000000000000000000000000000000000000000000815260040180806020018281038252601b8152602001807f54696572206e616d6520646f65736e206e6f74206578697374732e000000000081525060200191505060405180910390fd5b6000800154600019168460001916141561253657670de0b6b3a7640000830290505b600460000154600019168460001916141561255957670de0b6b3a7640000830290505b8091505092915050565b600080600460000154600460010154915091509091565b6000600760019054906101000a900473ffffffffffffffffffffffffffffffffffffffff1673ffffffffffffffffffffffffffffffffffffffff163373ffffffffffffffffffffffffffffffffffffffff16141515612667576040517f08c379a000000000000000000000000000000000000000000000000000000000815260040180806020018281038252602c8152602001807f4f6e6c7920746865206973737565722063616e2063616c6c206e65772069737381526020017f75652066756e6374696f6e2e000000000000000000000000000000000000000081525060400191505060405180910390fd5b81600b5401600b81905550670de0b6b3a7640000600060010154830281151561268c57fe5b04601560003373ffffffffffffffffffffffffffffffffffffffff1673ffffffffffffffffffffffffffffffffffffffff16815260200190815260200160002060008282540192505081905550670de0b6b3a764000060046001015483028115156126f357fe5b04601660003373ffffffffffffffffffffffffffffffffffffffff1673ffffffffffffffffffffffffffffffffffffffff1681526020019081526020016000206000828254019250508190555060019050919050565b6000600760009054906101000a900460ff16905090565b60156020528060005260406000206000915090505481565b6000601354905090565b6000600954905090565b6000600c54905090565b6000600a54905090565b565b6000600760019054906101000a900473ffffffffffffffffffffffffffffffffffffffff1673ffffffffffffffffffffffffffffffffffffffff163373ffffffffffffffffffffffffffffffffffffffff1614151561288f576040517f08c379a000000000000000000000000000000000000000000000000000000000815260040180806020018281038252602c8152602001807f4f6e6c7920746865206973737565722063616e2063616c6c206e65772069737381526020017f75652066756e6374696f6e2e000000000000000000000000000000000000000081525060400191505060405180910390fd5b60001515600760009054906101000a900460ff161515141515612940576040517f08c379a00000000000000000000000000000000000000000000000000000000081526004018080602001828103825260308152602001807f4e6f746520686173206265656e2069737375656420616c72656164792c20636881526020017f65636b20697373756564206e6f74652e0000000000000000000000000000000081525060400191505060405180910390fd5b6001600760006101000a81548160ff0219169083151502179055506000600b8190555088600881600019169055508760098190555086600a8190555085600c816000191690555084600d8190555084600e819055506000601160006101000a81548160ff02191690831515021790555083600f819055508260108190555081600b5401600b81905550670de0b6b3a764000060006001015483028115156129e357fe5b04601560003373ffffffffffffffffffffffffffffffffffffffff1673ffffffffffffffffffffffffffffffffffffffff16815260200190815260200160002060008282540192505081905550670de0b6b3a76400006004600101548302811515612a4a57fe5b04601660003373ffffffffffffffffffffffffffffffffffffffff1673ffffffffffffffffffffffffffffffffffffffff168152602001908152602001600020600082825401925050819055506001905098975050505050505050565b6000600e54905090565b60008060008060008060008001546000191688600019161480612ae05750600460000154600019168860001916145b1515612b54576040517f08c379a000000000000000000000000000000000000000000000000000000000815260040180806020018281038252601b8152602001807f54696572206e616d6520646f65736e206e6f74206578697374732e000000000081525060200191505060405180910390fd5b60008001546000191688600019161415612d6757612b70611117565b93506064878502811515612b8057fe5b049450601560003373ffffffffffffffffffffffffffffffffffffffff1673ffffffffffffffffffffffffffffffffffffffff168152602001908152602001600020549250868310151515612c63576040517f08c379a000000000000000000000000000000000000000000000000000000000815260040180806020018281038252602a8152602001807f5573657220646f6e2774206861766520656e6f75676820475350206e6f74657381526020017f20746f2072656465656d0000000000000000000000000000000000000000000081525060400191505060405180910390fd5b3373ffffffffffffffffffffffffffffffffffffffff166108fc869081150290604051600060405180830381858888f19350505050158015612ca9573d6000803e3d6000fd5b508660156000600760019054906101000a900473ffffffffffffffffffffffffffffffffffffffff1673ffffffffffffffffffffffffffffffffffffffff1673ffffffffffffffffffffffffffffffffffffffff1681526020019081526020016000206000828254019250508190555086601560003373ffffffffffffffffffffffffffffffffffffffff1673ffffffffffffffffffffffffffffffffffffffff168152602001908152602001600020600082825403925050819055505b6004600001546000191688600019161415612f7b57612d84611fc5565b91506064878302811515612d9457fe5b049450601660003373ffffffffffffffffffffffffffffffffffffffff1673ffffffffffffffffffffffffffffffffffffffff168152602001908152602001600020549050868110151515612e77576040517f08c379a000000000000000000000000000000000000000000000000000000000815260040180806020018281038252602a8152602001807f5573657220646f6e2774206861766520656e6f75676820475350206e6f74657381526020017f20746f2072656465656d0000000000000000000000000000000000000000000081525060400191505060405180910390fd5b3373ffffffffffffffffffffffffffffffffffffffff166108fc869081150290604051600060405180830381858888f19350505050158015612ebd573d6000803e3d6000fd5b508660166000600760019054906101000a900473ffffffffffffffffffffffffffffffffffffffff1673ffffffffffffffffffffffffffffffffffffffff1673ffffffffffffffffffffffffffffffffffffffff1681526020019081526020016000206000828254019250508190555086601660003373ffffffffffffffffffffffffffffffffffffffff1673ffffffffffffffffffffffffffffffffffffffff168152602001908152602001600020600082825403925050819055505b60019550505050505092915050565b6000601454905090565b6000600f54905090565b60006012549050905600a165627a7a72305820e2baa7fbd8dc45d8bc02e28e738f2e471869556bce938b4d5f5060148c711d7f0029",
  "source": "pragma solidity ^0.4.24;\r\n\r\n// Structured Leverage Fund\r\ncontract SLFBase {\r\n\r\n    /*** DATA TYPES ***/\r\n    // This is a type for tranche that pays\r\n    struct FixedIncomeTier {\r\n        bytes32 name; // short name\r\n        uint weight; // weights in percentage - divided by 1 ether when use\r\n        uint commission; // commission in percentage\r\n        uint interest; // interest rate in percentage\r\n    }\r\n\r\n    struct EquityTier {\r\n        bytes32 name; // short name\r\n        uint weight; // weight in percentage - divided by 1 ether when use\r\n        uint commission; // commission in percentage\r\n    }\r\n\r\n    /*** STORAGE ***/\r\n\r\n    // A note is composed of the following:\r\n    //uint commission; // commission in percentage - divided by 1 ether when use\r\n    // A 'FixedIncomeTier' struct\r\n    FixedIncomeTier public tierFI;\r\n    // A 'EquityTier' struct\r\n    EquityTier public tierEQ;\r\n\r\n    // Future: A dynamically-sized array of 'ZeroCouponBond' struct\r\n    // FixedIncomeTier[] public tierFIs;\r\n    // Future: A dynamically-sized array of 'EquityTier' structs.\r\n    // EquityTier[] public tierEQs;\r\n\r\n    // discription fields for the fund\r\n    bool isIssued; //flag for whether the note is issued\r\n    address public issuer; // address of the issuer\r\n    bytes32 fundName; //fund name\r\n    uint public issueDate; // date of issuance of the gsp note\r\n    uint public maturity; // date of maturity of the gsp note\r\n    uint public outstandingBalance; // total oustanding parent fund unit issued\r\n\r\n    // Equity Linked\r\n    bytes32 public underlying; // name of underlying index or asset\r\n    uint public initialPx;  // price of the underlying index or asset\r\n    uint public currentPx;  // price of the current underlying index or asset\r\n\r\n    // Data related to force liquidation\r\n    uint public minParentLiqPct; // in percentage - divided by 1 ether when use\r\n    uint public maxParentLiqPct; // in percentage - divided by 1 ether when use\r\n    bool isLiquidated;\r\n    uint liqDate;\r\n    uint liqParentVal;\r\n    uint liqEQVal; //uint[] liqEQVal;\r\n\r\n    // Balance for FixedIncomeTier and EquityTier\r\n    mapping(address => uint) public balancesFI;\r\n    mapping(address => uint) public balancesEQ;\r\n    // // Future: Dynamically-sized array for balances\r\n    // mapping(address => uint)[] public balancesFIArray;\r\n    // mapping(address => uint)[] public balancesEQArray;\r\n\r\n    /*** EVENTS ***/\r\n    // Events allow light clients to react on\r\n    // changes efficiently.\r\n    event Sent(address from, address to, uint amount);\r\n\r\n    // This is the constructor whose code is\r\n    // run only when the contract is created.\r\n    constructor() public {\r\n        issuer = msg.sender;\r\n        isIssued = false;\r\n    }\r\n\r\n    /*** FUNCTIONS ***/\r\n    // -------------------------------------------------------------------------\r\n    // Issuer functions\r\n\r\n    // This is the new issuance part 1 - add FI and EQ\r\n    function newIssue1(\r\n                bytes32 FIName,\r\n                uint FIWeight,\r\n                uint FICommission,\r\n                uint FIInterest,\r\n                bytes32 EQName,\r\n                uint EQWeight,\r\n                uint EQCommission\r\n                ) public returns(bool success){\r\n\r\n        // make sure the issuer is the one performing issuance\r\n        require(msg.sender == issuer,\r\n                \"Only the issuer can call new issue function.\"\r\n        );\r\n\r\n        // make sure the note has not been issued before\r\n        require(isIssued == false,\r\n            \"Note has been issued already, check issued note.\"\r\n        );\r\n\r\n        // // make sure weights total to 1 ether\r\n        // require((tierFI.weight + tierEQ.weight) == (1 ether),\r\n        //     \"Total percentage has to be 100%\"\r\n        // );\r\n\r\n        // FI tier\r\n        tierFI=FixedIncomeTier({\r\n                name:           FIName,\r\n                weight:         FIWeight,\r\n                commission:     FICommission,\r\n                interest:       FIInterest\r\n        });\r\n\r\n        // EQ tier\r\n        tierEQ=EquityTier({\r\n                name:           EQName,\r\n                weight:         EQWeight,\r\n                commission:     EQCommission\r\n        });\r\n\r\n        return true;\r\n    }\r\n        // This is the new issuance part 2\r\n    function newIssue2(\r\n                bytes32 noteName,\r\n                uint noteIssueDate,\r\n                uint noteMaturity,\r\n                bytes32 underlyingName,\r\n                uint initialUnderlyingPx,\r\n                uint minLiqVal,\r\n                uint maxLiqVal,\r\n                uint amount\r\n                ) public returns(bool success){\r\n        // ERC721 compliant\r\n        //uint256 tokenId = allTokens.length + 1;\r\n        //_mint(msg.sender, tokenId);\r\n\r\n        // make sure the issuer is the one performing issuance\r\n        require(msg.sender == issuer,\r\n                \"Only the issuer can call new issue function.\"\r\n        );\r\n\r\n        // make sure the note has not been issued before\r\n        require(isIssued == false,\r\n                \"Note has been issued already, check issued note.\"\r\n        );\r\n\r\n        // basic note data\r\n        isIssued = true;\r\n        outstandingBalance = 0;\r\n        fundName = noteName;\r\n        issueDate = noteIssueDate;\r\n        maturity = noteMaturity;\r\n\r\n        // Equity Linked data\r\n        underlying = underlyingName;\r\n        initialPx = initialUnderlyingPx;\r\n        currentPx = initialUnderlyingPx;\r\n\r\n        // Liquidation data\r\n        isLiquidated = false;\r\n        minParentLiqPct = minLiqVal;\r\n        maxParentLiqPct = maxLiqVal;\r\n\r\n        // Add amount to outstanding\r\n        // Issued amount initially belongs to issuer\r\n        outstandingBalance = outstandingBalance + amount;\r\n        balancesFI[msg.sender] += amount * tierFI.weight/(1 ether);\r\n        balancesEQ[msg.sender] += amount * tierEQ.weight/(1 ether);\r\n\r\n        return true;\r\n    }\r\n\r\n\r\n    function additionalIssue(uint amount) public returns(bool success){\r\n        // make sure the issuer is the one performing issuance\r\n        require(msg.sender == issuer,\r\n            \"Only the issuer can call new issue function.\"\r\n        );\r\n        outstandingBalance = outstandingBalance + amount;\r\n        balancesFI[msg.sender] += amount * tierFI.weight/(1 ether);\r\n        balancesEQ[msg.sender] += amount * tierEQ.weight/(1 ether);\r\n        return true;\r\n    }\r\n\r\n    function updatePrice(uint newPrice, uint updateDate) public returns(bool success){\r\n        // make sure the issuer is the one performing issuance\r\n        require(msg.sender == issuer,\r\n            \"Only the issuer can update price.\"\r\n        );\r\n\r\n        // make sure the note is not liquidated\r\n        require(isLiquidated == false,\r\n            \"You cannot update price for liquidated note.\"\r\n        );\r\n\r\n        // update parent fund price to new price\r\n        currentPx=newPrice;\r\n\r\n        // Check if the new price reach below the min or max\r\n        // If so, liquidate the fund\r\n        uint parentFundVal = (currentPx/initialPx) * 1 ether ;\r\n        if (parentFundVal <= minParentLiqPct) {\r\n            // Perform Liquidation\r\n            isLiquidated = true;\r\n            liqDate = updateDate;\r\n            liqParentVal = getNAV();\r\n            liqEQVal = getEQNAV();\r\n            // send comission back to issuer\r\n        }\r\n        if (parentFundVal >= maxParentLiqPct) {\r\n            // Perform Liquidation\r\n            isLiquidated = true;\r\n            liqDate = updateDate;\r\n            liqParentVal = getNAV();\r\n            liqEQVal = getEQNAV();\r\n            // send comission back to issuer\r\n        }\r\n        return true;\r\n    }\r\n\r\n    function payContract() public payable {\r\n    }\r\n\r\n    function closeFund(uint closeDate) public returns(bool success){\r\n        // make sure the issuer is the one performing issuance\r\n        require(msg.sender == issuer,\r\n            \"Only the issuer can update price.\"\r\n        );\r\n\r\n        // Require either reach maturity or liquidated\r\n        require((closeDate >= maturity) || (isLiquidated == true),\r\n            \"Maturity not reached yet.\"\r\n        );\r\n\r\n        // Check all units as been redeemed/send back to issuer\r\n        require(balancesFI[issuer] == outstandingBalance*tierFI.weight/(1 ether),\r\n            \"Part of FI tier is not redeemed.\"\r\n        );\r\n        require(balancesEQ[issuer] == outstandingBalance*tierEQ.weight/(1 ether),\r\n            \"Part of EQ tier is not redeemed.\"\r\n        );\r\n\r\n        // Send remaining commission to the Issuer\r\n        // uint commissionPayable = (commission)*amount;\r\n        // issuer.transfer(commissionPayable);\r\n        uint remainingBal = address(this).balance;\r\n        issuer.transfer(remainingBal); // exclude gas?\r\n\r\n        isLiquidated = true;\r\n        // Set issued to false and delete all the structs\r\n        // ...\r\n\r\n        return true;\r\n    }\r\n\r\n// ----------------------------------------------------------------------------------\r\n    // user functions\r\n\r\n    function sendNote(bytes32 tierName, address receiver, uint amount) public {\r\n        // Don't allow issuer to send\r\n        // since issue's notes are not sold\r\n        // no ether to back up\r\n        // make sure the issuer is the one performing issuance\r\n        require(msg.sender != issuer,\r\n            \"Issuer cannot send GSP notes.\"\r\n        );\r\n\r\n        // tierName has to be either tierFI or tierEQ\r\n        require((tierName == tierFI.name) || (tierName == tierEQ.name),\r\n            \"Tier name doesn not exists.\"\r\n        );\r\n        if (tierName == tierFI.name) {\r\n            if (balancesFI[msg.sender] < amount) return;\r\n            balancesFI[msg.sender] -= amount;\r\n            balancesFI[receiver] += amount;\r\n        }\r\n        else {\r\n            if (balancesEQ[msg.sender] < amount) return;\r\n            balancesEQ[msg.sender] -= amount;\r\n            balancesEQ[receiver] += amount;\r\n        }\r\n        emit Sent(msg.sender, receiver, amount);\r\n    }\r\n\r\n    function userGetSubscribePayable(bytes32 tierName, uint amount) public view returns (uint) {\r\n        // tierName has to be either tierFI or tierEQ\r\n        require((tierName == tierFI.name) || (tierName == tierEQ.name),\r\n            \"Tier name doesn not exists.\"\r\n        );\r\n\r\n        uint ETHpayable;\r\n\r\n        // For FI tier - subscribe with no interest\r\n        if (tierName == tierFI.name) {\r\n            ETHpayable = amount * 1 ether;\r\n        }\r\n\r\n        // For EQ tier - subscribe with par\r\n        if (tierName == tierEQ.name) {\r\n            ETHpayable = amount * 1 ether;\r\n        }\r\n\r\n        // // Check ETH balance from user\r\n        // uint ETHbalance;\r\n        // ETHbalance = (msg.sender).balance;\r\n        // // User has to have enough ETH for subscription\r\n        // require(ETHbalance >= ETHpayable,\r\n        //         \"You don't have enough ETH balance to subscribe.\"\r\n        // );\r\n\r\n        return (ETHpayable);\r\n    }\r\n\r\n    function userSubscribe(bytes32 tierName, uint amount) public payable returns (bool) {\r\n        // tierName has to be either tierFI or tierEQ\r\n        require((tierName == tierFI.name) || (tierName == tierEQ.name),\r\n            \"Tier name doesn not exists.\"\r\n        );\r\n\r\n        // Check ETH balance from user\r\n        uint ETHbalance = (msg.sender).balance;\r\n        // User has to have enough ETH for subscription\r\n        require(ETHbalance >= msg.value,\r\n            \"You don't have enough ETH balance to subscribe.\"\r\n        );\r\n\r\n        // For FI tier\r\n        if (tierName == tierFI.name) {\r\n\r\n            // Check fund balance from issuer\r\n            uint FIBalance;\r\n            FIBalance = balancesFI[issuer];\r\n            // Issuer has to have enough balance for subscription\r\n            require(FIBalance >= amount,\r\n                \"Issuer doesn't have enough units outstanding\"\r\n            );\r\n\r\n            // Ether is paid to the contract\r\n            // Commission is paid at maturity/liquidation\r\n            // Do nothing at subscription\r\n\r\n\r\n            // Add note units to user\r\n            balancesFI[msg.sender] += amount;\r\n            balancesFI[issuer] -= amount;\r\n        }\r\n\r\n        // For EQ tier\r\n        if (tierName == tierEQ.name) {\r\n            // Check fund balance from issuer\r\n            uint EQBalance;\r\n            EQBalance = balancesEQ[issuer];\r\n            // Issuer has to have enough balance for subscription\r\n            require(EQBalance >= amount,\r\n                \"Issuer doesn't have enough units outstanding\"\r\n            );\r\n\r\n            // Add note units to user\r\n            balancesEQ[msg.sender] += amount;\r\n            balancesEQ[issuer] -= amount;\r\n        }\r\n\r\n        return true;\r\n    }\r\n\r\n    function userGetRedeemReceivable(bytes32 tierName, uint amount) public view returns(uint) {\r\n         // tierName has to be either tierFI or tierEQ\r\n        require((tierName == tierFI.name) || (tierName == tierEQ.name),\r\n            \"Tier name doesn not exists.\"\r\n        );\r\n\r\n        uint ETHreceivable;\r\n        //= nav*amount/100;\r\n\r\n        // For FI tier\r\n        if (tierName == tierFI.name) {\r\n            uint FInav = getFINAV();\r\n            ETHreceivable = FInav*amount/100;\r\n\r\n            // // Check fund balance from user\r\n            // uint FIbalance;\r\n            // FIbalance = balancesFI[msg.sender];\r\n            // // Issuer has to have enough GSP note for subscription\r\n            // require(FIbalance >= amount,\r\n            //     \"User don't have enough GSP notes to redeem\"\r\n            // );\r\n        }\r\n\r\n        // For EQ tier\r\n        if (tierName == tierEQ.name) {\r\n            uint EQnav = getEQNAV();\r\n            ETHreceivable = EQnav*amount/100;\r\n\r\n            // // Check fund balance from user\r\n            // uint EQbalance;\r\n            // EQbalance = balancesEQ[msg.sender];\r\n            // // Issuer has to have enough GSP note for subscription\r\n            // require(EQbalance >= amount,\r\n            //     \"User don't have enough GSP notes to redeem\"\r\n            // );\r\n        }\r\n\r\n        // view redeemed value\r\n        return(ETHreceivable);\r\n    }\r\n\r\n     function userRedeem(bytes32 tierName, uint amount) public returns(bool) {\r\n\r\n        // tierName has to be either tierFI or tierEQ\r\n        require((tierName == tierFI.name) || (tierName == tierEQ.name),\r\n            \"Tier name doesn not exists.\"\r\n        );\r\n\r\n         // Only allow user to redeem at maturity\r\n         // Add code here ....\r\n         // Maybe allow early redemption for a penalty\r\n         // Add code here ...\r\n\r\n        uint ETHreceivable;\r\n\r\n        // For FI tier\r\n        if (tierName == tierFI.name) {\r\n            uint FInav = getFINAV();\r\n            ETHreceivable = FInav*amount/100;\r\n\r\n            // Check fund balance from user\r\n            uint FIbalance;\r\n            FIbalance = balancesFI[msg.sender];\r\n            // Issuer has to have enough GSP note for subscription\r\n            require(FIbalance >= amount,\r\n                \"User don't have enough GSP notes to redeem\"\r\n            );\r\n\r\n            // Send equalvilent ether to issuer\r\n            (msg.sender).transfer(ETHreceivable);\r\n\r\n            // Add note units to issuer\r\n            balancesFI[issuer] += amount;\r\n            balancesFI[msg.sender] -= amount;\r\n        }\r\n\r\n        // For EQ tier\r\n        if (tierName == tierEQ.name) {\r\n            uint EQnav = getEQNAV();\r\n            ETHreceivable = EQnav*amount/100;\r\n\r\n            // Check fund balance from user\r\n            uint EQbalance;\r\n            EQbalance = balancesEQ[msg.sender];\r\n            // Issuer has to have enough GSP note for subscription\r\n            require(EQbalance >= amount,\r\n                \"User don't have enough GSP notes to redeem\"\r\n            );\r\n\r\n            // Send equalvilent ether to issuer\r\n            (msg.sender).transfer(ETHreceivable);\r\n\r\n            // Add note units to issuer\r\n            balancesEQ[issuer] += amount;\r\n            balancesEQ[msg.sender] -= amount;\r\n        }\r\n\r\n        return true;\r\n     }\r\n// ----------------------------------------------------------------------------------\r\n    // For display information\r\n    function getIfIssued() public view returns (bool) {\r\n        return isIssued;\r\n    }\r\n\r\n    function getOutstanding() public view returns (uint) {\r\n        return outstandingBalance;\r\n    }\r\n\r\n    function getFIOutstanding() public view returns (uint) {\r\n        return outstandingBalance * tierFI.weight/(1 ether);\r\n    }\r\n\r\n    function getEQOutstanding() public view returns (uint) {\r\n        return outstandingBalance * tierEQ.weight/(1 ether);\r\n    }\r\n\r\n    function getContractETHBalance() public view returns (uint) {\r\n        return (address(this).balance);\r\n    }\r\n\r\n    function getIssuer() public view returns (address) {\r\n        return issuer;\r\n    }\r\n\r\n    function getNoteName() public view returns (bytes32) {\r\n        return fundName;\r\n    }\r\n\r\n    function getIssueDate() public view returns (uint) {\r\n        return issueDate;\r\n    }\r\n\r\n    function getMaturity() public view returns (uint) {\r\n        return maturity;\r\n    }\r\n\r\n    function getUnderlyingName() public view returns (bytes32) {\r\n        return underlying;\r\n    }\r\n\r\n    function getUnderlyingInitialPx() public view returns (uint) {\r\n        return initialPx;\r\n    }\r\n\r\n    function getUnderlyingCurrentPx() public view returns (uint) {\r\n        return currentPx;\r\n    }\r\n\r\n    function getMinLiqPct() public view returns (uint) {\r\n        return minParentLiqPct;\r\n    }\r\n\r\n    function getMaxLiqPct() public view returns (uint) {\r\n        return maxParentLiqPct;\r\n    }\r\n\r\n    function getIfLiquidated() public view returns (bool) {\r\n        return isLiquidated;\r\n    }\r\n\r\n    function getLiqDate() public view returns (uint) {\r\n        return liqDate;\r\n    }\r\n\r\n    function getLiqVal() public view returns (uint) {\r\n        return liqParentVal;\r\n    }\r\n\r\n    function getLiqEQVal() public view returns (uint) {\r\n        return liqEQVal;\r\n    }\r\n\r\n    function getFITierName() public view returns (bytes32) {\r\n        return tierFI.name;\r\n    }\r\n\r\n    function getEQTierName() public view returns (bytes32) {\r\n        return tierEQ.name;\r\n    }\r\n\r\n    function getBalance(bytes32 tierName) public view returns (uint) {\r\n        // tierName has to be either tierFI or tierEQ\r\n        require((tierName == tierFI.name) || (tierName == tierEQ.name),\r\n            \"Tier name doesn not exists.\"\r\n        );\r\n\r\n        if (tierName == tierFI.name) {\r\n            return balancesFI[msg.sender];\r\n        }\r\n        else {\r\n            return balancesEQ[msg.sender];\r\n        }\r\n    }\r\n\r\n    function getTierFI() public view\r\n        returns (bytes32 FIname,uint FIweight,uint FIinterest) {\r\n        return (tierFI.name,tierFI.weight,tierFI.interest);\r\n    }\r\n\r\n    function getTierEQ() public view\r\n        returns (bytes32 EQname,uint EQweight) {\r\n        return (tierEQ.name,tierEQ.weight);\r\n    }\r\n\r\n    // Not excluding commission\r\n    function getNAV() public view returns (uint) {\r\n        uint base = 100 ether;\r\n        return base*currentPx/initialPx;\r\n    }\r\n\r\n    // Excluding commission\r\n    function getFINAV() public view returns (uint) {\r\n        uint base = 100 ether;\r\n        // include interest\r\n        return base + tierFI.interest*100;\r\n    }\r\n\r\n    // Excluding commission\r\n    function getEQNAV() public view returns (uint) {\r\n        uint base = 100 ether;\r\n        uint eth = 1 ether;\r\n        uint parentFundVal = base*currentPx/initialPx;\r\n        uint FITierVal = base + tierFI.interest*100;\r\n        uint FITierCommission = tierFI.commission*100;\r\n        // need to multiple first before divide\r\n        // otherwise will have decimal cut off\r\n        uint FIAfterScaling = (FITierVal+FITierCommission)*tierFI.weight/eth;\r\n        uint EQAfterScaling = parentFundVal - FIAfterScaling;\r\n        uint EQBeforeScaling = EQAfterScaling*eth/tierEQ.weight;\r\n        uint EQTierCommission = EQBeforeScaling*tierEQ.commission/eth;\r\n        return EQBeforeScaling - EQTierCommission;\r\n    }\r\n\r\n}\r\n",
  "sourcePath": "C:\\Users\\jzqav\\CoinCapitalMarkets\\contracts\\SLFBase.sol",
  "compiler": {
    "name": "solc",
    "version": "0.4.24+commit.e67f0147.Emscripten.clang"
  },
  "schemaVersion": "2.0.1",
  "updatedAt": "2018-08-23T19:53:34.400Z"
}